:020000040100F9
:10000000706B0021513E0001DDFC00013D3E00010E
:100010003D3E00013D3E00013D3E0001000000006C
:10002000000000000000000000000000AD3F0001E3
:100030003D3E0001000000004D3F00013D3E00013B
:100040001D4100011D4100011D4100011D41000134
:100050001D4100011D4100011D4100011D41000124
:100060004F0101011D4100011D4100011D41000121
:10007000650101011D4100011D4100011D410001FB
:100080001D410001350101011D4100011D4100011B
:100090001D4100011D4100011D4100011D410001E4
:1000A0001D4100011D4100011D4100011D410001D4
:1000B0001D4100011D410001014B1B681B681847D1
:1000C00000000021014B1B685B68184700000021FD
:1000D000014B1B689B68184700000021014B1B68FF
:1000E0001B69184700000021014B1B685B6918471A
:1000F00000000021014B1B689B691847000000218C
:10010000014B1B68DB69184700000021014B1B688D
:100110001B6A184700000021014B1B689B6A1847A7
:1001200000000021014B1B68DB6A1847000000211A
:10013000014B1B681B6B184700000021014B1B681B
:10014000DB6B18470000002130B4044C9DF80850C8
:1001500024680295E468A44630BC60470000002192
:10016000132D0001192D00011B2D0001412D00014F
:100170001F2D00014B2D0001252D0001552D0001E3
:100180002B2D0001612D0001372D00013B2D0001B9
:100190002D2D0001332D0001512D00015B2D00019B
:1001A000042810B511D883B104280CBF10242824CA
:1001B000A1420AD2064C54F8200018B141568A4296
:1001C000A8BF0A4600201A7010BD6FF01500FBE7AB
:1001D000900200210228034610DC10F1270F0FDBEC
:1001E000084A101890F82800024492F92C209A42EC
:1001F00007D0002918BF0130C0B270470F207047E8
:1002000000207047B4310101022808B506DCFFF771
:10021000E1FF034B034493F92C0008BD0320FCE7E6
:10022000B4310101C0B208B518B9044B01221A60FB
:1002300008BD4D21B52002F0CFF800BF00500041AD
:1002400010F0FF0008B507D1054B01225A60C3F832
:100250000001044B187008BD7C21B52002F0BCF8E9
:1002600000500041A5020021014B01221A70704785
:10027000A502002108B540B9064BD3F8003113B9E7
:10028000054B187808BD0120FCE7C221B52002F01B
:10029000A3F800BF00500041A5020021024BD3F893
:1002A000080400F00100704700500041024BD3F8F1
:1002B000140400F00100704700500041024BD3F8D5
:1002C0001C0400F00300704700500041074902463B
:1002D000D1F81804D1F8181410F4803005D0D0B239
:1002E00001F003031B1A5842584170470050004167
:1002F000F8B50F4E012704460D46375402F039FD7C
:1003000058B92CB90B4BB7707560C3F80473F8BDBE
:1003100040F229116D2002F05FF8002DF7D01CB9D2
:100320002046A8477460F2E74FF4A271F2E700BFDD
:10033000A802002100500041044B002219181A5451
:100340008A7003EB80014A60704700BFA802002159
:10035000014B9881704700BFA8020021014B98898A
:10036000704700BFA802002110B5EFF3108472B6E9
:10037000064B03441A7C0132D2B21A741B7C012B47
:1003800001D1FFF74FFF04B962B610BDA8020021EA
:1003900008B502F0F1FC02F0ECFC084A084B30B161
:1003A0000121116104229A740022DA7408BD03212C
:1003B00099740121C2F80413F6E700BF0050004110
:1003C000A802002110B5EFF3108472B6094B034464
:1003D0001A7C22B940F25B216D2001F0FDFF1A7CEE
:1003E000013AD2B21A741B7C0BB9FFF729FF04B98A
:1003F00062B610BDA8020021024B987C003818BFDD
:1004000001207047A802002137B5184C637D63B9FD
:10041000206A00F00300FFF759FF30B1EFF31083BB
:1004200072B6A27C1AB103B962B603B030BD012224
:10043000A27403B962B680230D4DC5F808334FF49A
:100440002073ADF80630BDF806309BB25A1E92B24A
:10045000ADF80620002BF6D1C5F81C3184F8243005
:10046000FFF796FF8023C5F80433DEE7A8020021DA
:10047000005000412DE9F347344C237D002B62D01E
:100480000323ADF80430324BD3F800513DBBD3F811
:100490000481B8F1000F08D02D4B0022C3F80421CD
:1004A0000222C3F80823FFF7AFFF94F82460284B1B
:1004B000F6B2D3F81C2135B1A17C032901BF042178
:1004C000A1740121196182B30022C3F81C21A37C0D
:1004D000042B26D040F26D316D2001F07DFF002508
:1004E00001220DF10409271DA61C8DF80450D3F834
:1004F0000481C3F8082319F8010B03280AD03378C4
:1005000043B14FF0000A3B6886F800A013B198474A
:10051000C7F800A06B1C043701360125022BEAD175
:10052000B7E70223A37402F02AFC66B1002384F823
:100530002430A37C022B01D1FFF72AFF02B0BDE8D3
:10054000F04702F01CBC02B0BDE8F087A802002111
:100550000050004110B5054C206A00F00300FFF781
:10056000B5FE0028F8D0002010BD00BFA802002171
:10057000F8B5054650B10278022A07D8437842B947
:10058000013B1F2B02D88378212B07D96FF0150070
:100590006CE0002BFAD18378002BF7D15C4B202242
:1005A000C3F88020BFF34F8FBFF36F8F594EC3F84E
:1005B00080218323584CC6F808330023C6F8003145
:1005C000C6F80431C6F81C3123746374AB88E38128
:1005D000FFF764FE10B1012323702374D6F80C24B6
:1005E000D6F80C34D70303D5DE0701D5FFF73CFE60
:1005F0004FF4AF63AA78A3810123A275002223627E
:100600002B78E274012B637507D0022B2FD033B106
:1006100040F222516D2001F0DFFE02232362FFF73A
:1006200045FE002835D0FFF749FE236A03F0030397
:1006300098422ED1AB793BBBFFF78CFFA37D63B112
:100640002B7853B902F095FB054601F049FF6FF096
:100650000043002D58D0C4E90603012320220020C6
:1006600023752B4BA074C3F880211A60F8BD02F0EB
:1006700083FB284BD3F80C14D3F80C24C803F9D50A
:10068000D107F7D50323C9E7224B0222C3F804237D
:10069000D4E7204B01220021DA60C3F8041194F85A
:1006A0002010C3F818159A600222C3F80423AA790F
:1006B000002AC3D1D3F80423920702D440F2D541D3
:1006C000A8E7164A1769116907F0100741F01001F1
:1006D0001161D3F804310BB902F0A7FB0D4ED6F827
:1006E000043173B1FFF736FF27B90C4A136923F0C1
:1006F000100313610223C6F808330023C6F804313F
:100700009CE702F091FBEAE7C4E90630A5E700BFE9
:1007100000E100E000500041A802002100ED00E0EF
:1007200038B50C4B0C46197919B183216F2001F0B3
:1007300053FE60B95D790DB1002038BD01225A71B8
:10074000FFF712FE21462846FFF7D2FDF4E76FF0CF
:100750001500F2E7D002002138B50B4D04462B7985
:100760001BB19A216F2001F037FE50B96B790BB99C
:10077000002038BDFFF7E0FD20466C71FFF722FE38
:10078000F6E76FF01500F4E7D0020021014B9B68FB
:10079000184700BFD0020021014BDB68184700BF9B
:1007A000D0020021014B1B69184700BFD002002175
:1007B000034B1A790AB9FFF7D1BD988A704700BF79
:1007C000D0020021024B1B790BB9FFF71DBE704709
:1007D000D0020021014B9B69184700BFD0020021C5
:1007E00010B5144C2379A3B1636A9847002806DB3F
:1007F00094F82E3023B10123002084F8303010BD4E
:10080000FFF7E8FF0028F6DA40F28D116F2001F0C3
:10081000E3FD094BA361094BE361094B2362094BDB
:10082000A360094BE360094B2361FFF7A1FE002899
:10083000E1D0E4E7D0020021550500018B2D000135
:10084000F9030001792D00017F2D0001852D0001A4
:1008500038B5084B04461D7925B140F2E1116F20EF
:1008600001F0BAFD00F02EFF2046FFF771FD28468B
:1008700038BD00BFD002002108B5074800F010FFC6
:10088000054800F01BF801F0CBF801F0B3F800F0D8
:1008900009FB012008BD00BF0403002101F052BA8A
:1008A000103000F031BF00BF00F046BF01F020BBA8
:1008B0002721032008B501F08FFD00BF024B18600F
:1008C00000221A719A6070470C03002170B582B043
:1008D0001F4C2379012B11D0DAB2022A0BD10DF172
:1008E0000701A06800F004FB0023A36023719DF8BA
:1008F000070002B070BD012002B070BD0DF107010C
:10090000A06800F0EBFAA5686B7DDB07ECD5AB7F48
:10091000042BE9D000F054FF06460028E4D000F094
:1009200055FF2A69B3682E686D6896194FF000026A
:1009300045F100050A3342F100021B1842EB0102A7
:10094000B342AA41D0D3A06800F086FBCCE700BF39
:100950000C030021837F0BB1002070470A684B68AD
:10096000D1F808C010B5CC680260C46001244360AF
:10097000C0F808C00A694B69026184774361054B7E
:100980001A792AB998601C7100F0B0FE204610BD9B
:10099000FFF78EFF0C03002170B5044682B00D46B0
:1009A00000F00EFFA37F012B17D02A6806466B6864
:1009B000A868E968A0602046E1600DF107012260A7
:1009C00063602A696B69226101226361A27700F08A
:1009D00085FA2EB1012002B070BD002002B070BDBA
:1009E000024B0421186802F0E2F9F3E70C0300213E
:1009F000024B0621186802F0DAB900BF0C0300218F
:100A000070B5054600F0DCFE00B3044600F0DEFEE3
:100A100003462846A4680025E41841F10006224652
:100A2000334600F0ABFAA04271EB06030CD3001B77
:100A30006FF0010361EB0601834275EB010100D306
:100A400070BD4FF0FF3070BD284670BD40F22911D7
:100A5000032001F0C1FC00BF2DE9F04104460F4620
:100A600000F0AEFE10B385680023064662195B41B4
:100A700013B10020BDE8F08100F0A8FE2A18384626
:100A800041F1000314EB020843F1000500F076FA8F
:100A90004045A941EDD301F055F900F045FAB3689E
:100AA000012037752344B360BDE8F0814FF4A37192
:100AB000032001F091FC00BF00F088BE2DE9F04F4B
:100AC000374B0024804614601868002853D0A0F1EA
:100AD000180750E90645444575EB010309D250F863
:100AE000083C1B1945F1000598451C4671EB0503B0
:100AF00052D350F8103C4FF000093E4613F10A0C57
:100B000049F100031CEB040C45EB030EB36993B1F0
:100B1000A3F1180053E90645644575EB0E0A0AD2A5
:100B200097F814B013F804ACD34507D00FD8064695
:100B3000B369002BECD13846BDE8F08FB3F804A0C0
:100B4000B7F81CB0AAEB0B0A1AF4004FEFD006F16D
:100B500018074445176075EB01070AD253F8087C63
:100B60003C1945F10005A04571EB050701D244464B
:100B70000D46B6690EB9BDE8F08F53F8103C074634
:100B8000A6F1180013F10A0C064649F1000E1CEB01
:100B9000040C45EB0E0ECBE744460D46A9E700BF1B
:100BA00018030021F8B50022244C6260EFF3108195
:100BB00072B6A368E260A260636009B962B6636856
:100BC00063B300259A79A3F11800032A27D01F6880
:100BD0006FB3BA79A7F1180384460026042A0FD10F
:100BE0009A8B818B521A120402D50CF11806184602
:100BF0009A6942B19C46A2F118039A7F042AEFD069
:100C00009B7F032B15D196B133681B683360C36893
:100C10000221857798476368002BD3D1F8BD1E6801
:100C2000012153F80C2C9D7166609047F3E76760D3
:100C3000EDE763219F2001F0CFFB00BF18030021E7
:100C40002DE9F043224E34686CB300254FF00409BF
:100C5000A846AE462346246853F8187C53F8082C5F
:100C6000D21953F8147C47F1000C82427CEB010C42
:100C70001BD205B32A6812682A6083F80690B2680E
:100C800083F800E083F801E083F802E083F803E0F2
:100C90007AB1F26813604FF00108F360002CD9D1EB
:100CA000B8F1000F0DD1BDE8F0831D46002CD1D165
:100CB000F6E7B360EFE73268002ADED012683260F0
:100CC000DBE7044BBDE8F043187801F05FBC00BFE0
:100CD0001803002104000021704B2DE9F04F8846D5
:100CE000196885B00546046882834068002900F0D1
:100CF000CA80A1F1180295F815C08A46A9460CF0E1
:100D0000010C0027D2E900636546B44270EB030191
:100D10002AD3F5B1177D99F814108F4219D891682C
:100D2000891943F1000311F10A0E43F1000C7445D7
:100D300070EB0C065FD2D9F81060361940F100074D
:100D4000B6457CEB070B01D2764667468E429F4143
:100D500056D3936917468BB1A3F11802D2E9006309
:100D6000B44270EB0301D4D2AC4651464D46BCF1BF
:100D7000000F00F0918013463A4605E0AC4651461C
:100D80004D46BCF1000F59D0AE68361940F100094C
:100D9000002B68D0C246CDE9001216F10A0C1F687C
:100DA000596849F10002674571EB020258D21A7D79
:100DB00095F814C0944519D39A68D21941F10001ED
:100DC00012F10A0841F1000E444570EB0E0752D2B1
:100DD0002F693F1940F1000CB8457EEB0C0B01D296
:100DE0004746F44697427CEB010C4AD39B69002BA3
:100DF00036D0183BD1E7264607468E429F41A8D2FF
:100E00004D460023042105F118022B766B76AB7654
:100E1000EB76224BA9779B68002B3AD01F4BDB68FF
:100E20001A601F4B00251D491878CA6001F0AEFBFF
:100E300088F8005005B0BDE8F08F9369294641F865
:100E4000183F916103AA00210020FFF737FE2D1AF9
:100E5000B5FA85F56D0988F8005005B0BDE8F08F4A
:100E6000DDE90012D046002AE7D12B460B4A43F8B1
:100E7000181F1360E6E72746844697427CEB010C77
:100E8000B4D2D046BDE76B7DDB07EED50A460B46F4
:100E90007AE7024B9A60C4E73A46E4E71803002178
:100EA0000400002110B50A4C2378FF2B0AD1094811
:100EB00001F052FB084B002220701A609A60DA6041
:100EC0001A8210BD4FF483719F2001F085FA00BF94
:100ED00004000021A50B000118030021034B1A8A0E
:100EE00002F1010CA3F810C0FFF7F6BE18030021B1
:100EF00030B583B004460D460020002101AAFFF75B
:100F0000DDFD034604F118010648E31AB3FA83F342
:100F10005B092B7001F071FF10B100230120A37752
:100F200003B030BD18030021FFF78ABE30B5054677
:100F300083B00C46FFF784FE01AA28462146FFF73E
:100F4000BDFD28B100F11802044B5A6103B030BD59
:100F50000246024B5A6103B030BD00BF18030021A6
:100F600010B5054C6169204601F047FF18B1606972
:100F700000231838636110BD180300211C4909685B
:100F800039B3A1F1180C9CF8141081421DD870B52A
:100F900012F10A05DCE9004143F1000EAC4271EBAD
:100FA0000E0620D2DCF81060341941F10001AC4289
:100FB00071EB0E0115D2DCF8181071B1A1F1180C0B
:100FC0009CF814108142F6D8E2E7DCF818100029EA
:100FD000D7D14FF0FF30014670474FF0FF30014648
:100FE00070BD2C467146B4F10A0041F1FF3170BD6D
:100FF0001803002110B5837F022B06D0837F012BBD
:1010000002D0837F042B1DD110BD437D13F002035A
:1010100013D103240E4A00F11801037684779468F3
:1010200043768376C3765CB1D3681960094BD1608F
:101030001878BDE8104001F0A9BA0023837710BDED
:101040009160F3E74FF4FA719F2001F0C5F900BFFA
:10105000180300210400002170B50446104D04F16E
:1010600018062846314601F0C8FE98B10023042234
:101070002376A2776376A376E376AB6843B1EB6819
:101080001E60084BEE601878BDE8704001F07EBA33
:10109000AE60F6E74FF4FF719F2001F09DF900BFAD
:1010A0001803002104000021024B0521186801F0FB
:1010B0007EBE00BF30030021054B586810B1C368E5
:1010C000052118474FF42471B02010B501F084F9C0
:1010D000300300212DE9F0471746002B56D0054676
:1010E0000E46D3E90089804579EB01034BD3524C7E
:1010F0000023404649462361C4E9028901F032F8E1
:10110000A38AB8EB05054FF0000203F1640369EB15
:101110000606AB42B24116DBA36903F2A3139D425C
:1011200076F1000669DA454A40464946C4F8288007
:10113000C4F82C9000F020FD0523414A84F830309B
:101140003A60BDE8F087627F237FAABB03F0FD0A07
:10115000A36903F2A3139D4276F1000632DABAF1D5
:10116000010FE0D1A08A354AB8EB000069F1000117
:10117000C4E90A0100F000FD0623314A84F830304A
:101180003A60BDE8F08780468946B0E72A4C637F25
:101190001BB1237F023B012B44D90025657700F06A
:1011A000EDFFFFF7F9FA00F0DFFF264A2B463A6021
:1011B00084F83030BDE8F0879A1E012A36D9002223
:1011C0006277C3E700F0DAFFFFF7E6FAA08AA369C7
:1011D000984217D9BAF1010F14D1B8EB0000174AA1
:1011E00069F10001C4E90A0100F0C6FC0123144AB8
:1011F00084F830303A60BDE8F08700F0BFFFFFF7B9
:10120000CBFAA369B8EB03000C4A69F10001C4E909
:101210000A0100F0B1FC0223094A84F830303A6038
:10122000BDE8F087236A01209847B6E7236A0120CA
:101230009847237FC3E700BF30030021A9100001B6
:10124000E9130001B913000102392DE9F041042925
:101250002DD8DFE801F00309292C0C00164A137F72
:10126000003B18BF012353770020BDE8F081124DE9
:10127000044600F053FC00F065FD0E460746FFF7FC
:1012800055FE80466868FFF7B5FE2246384631466F
:1012900000240026002743466C60C5E90267FFF77B
:1012A00019FF0220BDE8F081FFF710FBDCE740F2F8
:1012B0003B21B02001F090F8300300212DE9F04FE0
:1012C000394C83B0814694F81DA0A769BAF1000F8C
:1012D00039D1237F03F0FD03012B3ED000F032FD16
:1012E00010EB07080E46054641F10001404601910A
:1012F000FFF71CFE00283FD00199D0E900B3D84584
:1013000071EB030222D30022284601932261274A6F
:10131000A562E662C4E90281314600F02DFC019B22
:101320005846194600F01EFFBAF1000F02D0A38AFA
:101330009F4218D002231E4A84F83030C9F800209A
:1013400003B0BDE8F08F4FF0000AC7E7BBEB07051D
:10135000D846194663F10006D5E7A28A9A46974215
:1013600038BF1746BAE70123114A84F83030C9F86C
:10137000002003B0BDE8F08F637F1BB1237F023BE9
:10138000012B0CD90025657700F0EEFE094A2B46AB
:10139000C9F8002084F8303003B0BDE8F08F236A2C
:1013A00001209847EEE700BF30030021A91000019B
:1013B000E9130001B9130001032910B506D801296A
:1013C0000AD84FF49E71B02001F006F80429F8D134
:1013D0000446FFF77BFA08B9002010BD2046FFF74E
:1013E0006DFF022010BD00BF023970B5054603290C
:1013F00000F24581DFE801F006021708A54B002244
:1014000083F83120002070BDA24C94F83030013BAD
:10141000052B00F23981DFE813F03A005F00860007
:10142000A900F400CC009B4C94F83030042B0FD86A
:10143000022B24D8013B012B00F20D81FFF746FA65
:101440000028DFD000F06CFC2846FFF737FFAEE045
:10145000053B012B00F2FF80FFF738FA0028D1D0BE
:1014600000F05EFC00F06EFC06460C46FFF75EFDE9
:101470002A46034621463046FFF72CFE97E0FFF749
:1014800025FA0028BED0012384F83130BAE7257F41
:1014900005F0FD05012D40F0E380607F002840F05D
:1014A000DF80236A9847657700F04CFCA26A2369C5
:1014B000821AA1699A42B8BF1A46A368581AE1680D
:1014C000226161F10001744AA062E16200F054FB04
:1014D000022384F8303095E700F048FEFFF756F914
:1014E00000F030FCA26A2369851A227F9D4202F037
:1014F000FD02B8BF1D46012AD4E90231256103D19E
:10150000627F002A00F08B80323B634A41F1FF3159
:10151000581941EBE571C4E90A0100F02DFB0423E1
:1015200084F830306EE7257F05F0FD05012D40F091
:101530009C80667F002E40F0988000F003FCA26A39
:10154000034630469B1A22699342B8BF1346236173
:10155000236A984722696577D4E90231323B41F129
:10156000FF31981841EBE2714B4AD4E700F00EFED0
:10157000002861D094F83160002E7FF473AFFFF73C
:10158000EFFC00283FF46EAF6060C4E90D6600F028
:10159000BDFA0223606883773146C3689847D4E96F
:1015A0000201FFF7C1FC3D4B84F830602B60022044
:1015B00070BD257F05F0FD05012D5BD1667F002EF6
:1015C00058D100F0BFFBA26A034630469B1A22693D
:1015D0009342B8BF13462361236A9847226965770F
:1015E000D4E90231323B41F1FF31981841EBE2710D
:1015F000294AC4E90A0100F0BFFA052384F8303013
:1016000000E7FFF7ADFC00283FF42CAF0026606038
:10161000C4E90D6600F07AFA60680223BBE7A08A8D
:101620001D4A181A61F10001C4E90A0100F0A4FA88
:10163000032384F83030E5E600200021FFF776FC34
:1016400008B1FFF709FD00F099FDFFF7A5F828465E
:10165000FFF734FEABE740F27911B02000F0BCFE9A
:1016600040F28311B02000F0B7FE4FF4DA71B020E1
:1016700000F0B2FE4FF4FD71B02000F0ADFE40F27C
:101680001521B02000F0A8FE4FF40471B02000F046
:10169000A3FE00BF30030021A91000014912000180
:1016A000064A002310B5064C026084F830302377D8
:1016B0002060FFF77DF85130A06110BDB913000123
:1016C0003003002108B5074B074A196809689142A1
:1016D00002D15130986108BD40F27521B02000F070
:1016E0007BFE00BF30030021B913000110B5EFF3FA
:1016F000108472B6034B0421186801F058FB04B93A
:1017000062B610BD30030021094B5A6810B54AB1CA
:10171000084AD3E902410019BDE8104041F1000137
:1017200000F02ABA40F29621B02000F055FE00BF2A
:1017300030030021B910000108B5064B5B681BB1EE
:10174000BDE8084000F0ECBA4FF42771B02000F07B
:1017500043FE00BF3003002108B5054B5A680AB1AB
:10176000586308BD40F2A221B02000F035FE00BF52
:101770003003002108B5054B5A680AB1986308BDCB
:101780004FF42A71B02000F027FE00BF3003002183
:10179000044B9B6B03B1184740F2AE21B02010B54B
:1017A00000F01AFE30030021044B5B6B03B11847B5
:1017B0004FF42D71B02010B500F00EFE3003002163
:1017C000014B5868704700BF3003002108B5054B36
:1017D0005A6812B1D3E9020108BD40F2BF21B0201E
:1017E00000F0FAFD30030021054B1B681BB11A6A9B
:1017F0000421586A10477221452010B500F0ECFD15
:1018000070030021054B1B681BB11A6A0321586A3B
:1018100010476C21452010B500F0DEFD700300215B
:101820002DE9F04104460D4679B9154F3B681BBBC5
:1018300014483C60FFF790FF1348FFF79BFFFFF74A
:101840003BF9637D06465B0705D4236A2946606A37
:10185000BDE8F0411847FFF729F82036361A7E60B8
:1018600000F0D8FA0028FBD000230849084AC1F844
:101870008031C2F88030E8E78621452000F0ACFDD9
:101880007003002105180001E91700010010014153
:1018900000C00041024B00221A601A81704700BF4D
:1018A0007003002108B5074B1A683AB106480021B9
:1018B000D0601960BDE80840FFF79AB8B92145200B
:1018C00000F08AFD700300212118000130B40D469C
:1018D000144600212022C0E9085430BC00F096BE16
:1018E00030B5002287B04B7A0C4605924FF00001CC
:1018F0000092054601920492C3F3800282F0010235
:1019000062F38201227A8DF814202B4A8DF815108B
:101910000392616822780291002A3BD1D4E9042025
:101920009DF815406407CDE9002024D4C3F340039B
:101930009DF8152021495B0022F0030243F00103CA
:1019400013438DF815304B68C3F308036BB1103B9C
:101950005BB2002B18DB1A4AD35C5B092BB96946D2
:101960002846FFF719F807B030BD69462846FEF74C
:10197000F1FF07B030BD203A01F1200140F1FF3006
:10198000009202910190D1E703F00F0319440B7DFF
:101990005B09E3E723690493FEF780FF9DF81530A8
:1019A0005B07CDE9000104D5029A637A20320292E6
:1019B000BCE7637ABAE700BF2118000100ED00E040
:1019C00000E400E008B50A4B1B6863B15B7D5B0770
:1019D00005D5FFF771F8203041F1000108BDBDE8E1
:1019E0000840FFF769B84FF4EE71452000F0F4FCB1
:1019F00070030021074A002313721375064A012160
:101A000006485160C2F84035C2F84031C0F80815A8
:101A1000704700BFA803002100C0004100F0004152
:101A200030B4344B0022344C012134488261596077
:101A30009960C3F80843C3F84843C469C3F8042154
:101A4000C3F84021C3F84421C3F84821002C4ED0EC
:101A50002B4A4FF00045C2F8C051C4F88050C3F87B
:101A60008050284BC3F804150523C2F84035116097
:101A7000D2F84031002BFBD00121224D0023C5F8C4
:101A800008155160D1601B49C2F84031C2F8403599
:101A9000C2F8C031C4F88030C1F8803090F82030EE
:101AA00003B390F821200121124B4FF48024914080
:101AB000144842F000424FF6FF75C0F80815C3F80D
:101AC0004443C3F84855C3F80443C3F848219A6017
:101AD000C0F804150C4B4FF4003230BCC3F8802121
:101AE0001A607047034B0222C3F80423F2E719601F
:101AF000D4E700BF0010014102000700A803002145
:101B000000C0004100F0004100E100E0024B012272
:101B1000C3F80027704700BF0000084110B4114A05
:101B2000002301244FF0FF300F49C1F88031C2F883
:101B3000803054604FF48054C2F808030B480C4ABC
:101B4000C0F88041106838B14FF48030C1F8080304
:101B50001372C1F840311360064B002210BCC3F869
:101B60000027704700C000410010014100E100E083
:101B7000A80300210000084170B5604C2368002BC9
:101B800040F0B2805E4B2260994200F2B280420F78
:101B90005C4DC0F34F3343F6095642EAC10103EBF3
:101BA0000143A5FB01125849920B01FB123357491F
:101BB000A5FB035343F608559B0B43EA024201FB86
:101BC000120048F237614FEA122C430B120601FB58
:101BD00003F34F491B0C06FB130000FB01F1490DF9
:101BE00001EB432306FB0151B0EB512F4FF00001F5
:101BF00088BF0133D0184CF1000CEFF3108572B69A
:101C000094F82060434A96BBD2F80435D2F8041108
:101C100009BB05334FF00002A16942F1000225B96A
:101C200062B694F82050002D38D14FF08075E1FB5A
:101C3000053298427CEB020242D3010E20F07F4233
:101C400041EA0C21334B4FF480306160C3F84025EA
:101C5000C3F8040370BDA3690133A361C2F8046132
:101C6000D2F80435D2F804110029F4D1D1E7D2F822
:101C700004354FF6FF76D2F84821B34228D0161E1D
:101C800047F6FE7E18BF0126734588BF0026053340
:101C900041F10002A1693144002DC1D04FF48035DB
:101CA000E1FB053298427CEB020209D3010C4FF6AE
:101CB000FF7382B241EA0C41002A08BF1A46C1E70D
:101CC000FF232372144B4FF40032C3F8002170BD80
:101CD00022B9A1690523002DE0D1A1E70A460F4BE7
:101CE000A169002DDAD19BE740F2F921052000F02F
:101CF00073FB4FF49471052000F06EFBA8030021E4
:101D0000FF7F841E83DE1B43000024F40080841EBA
:101D10006F0C01000010014100E100E0040001002F
:101D2000064B1A684AB106494FF48032C1F80823BD
:101D300000221A72C1F840211A607047A8030021DE
:101D40000010014170B4EFF3108572B62C4C2D4A8F
:101D500094F82000D2F8043540B3D2F848014FF689
:101D6000FF72A669934245D0003843F60951C3F388
:101D7000080247F6FE7C18BF012001FB02F2634512
:101D80004FEA532388BF002002F5807201FB03F362
:101D90000021064403EB52201DB962B694F82030AE
:101DA0001BB3194BE6FB030170BC7047D2F804115A
:101DB00051B1A3690133A361C2F80401D2F804351B
:101DC000D2F804110029F4D143F60951C3F30802F3
:101DD000580AA66901FB02F301FB00F0002103F59C
:101DE000807300EB5320002DD7D0084BE6FB030196
:101DF00070BC704700B106480021002DD1D1CCE75E
:101E0000A80300210010014180841E000080841E70
:101E100061841E0030B5EFF3108572B62F4A92F838
:101E2000204044B32E4B4FF6FF70D3F80415D3F87F
:101E30004831814290694BD0003B43F6095CC1F3C5
:101E4000080447F6FE7E18BF01230CFB04F471451D
:101E50004FEA512188BF002304F580740CFB01F187
:101E6000184401EB542300211DB962B692F82040BA
:101E70001CB31C4C22E01A49D1F80435D1F80401F6
:101E800050B1936901339361C1F80441D1F804352D
:101E9000D1F804010028F4D1C3F3080143F6095432
:101EA0005B0A906904FB01F104FB03F301F5807107
:101EB00003EB51230021002DD7D00B4CE0FB043164
:101EC000D2E90A02834291412CBF0120002030BD9B
:101ED00003B1064B0021002DCBD1C6E7A80300219A
:101EE0000010014180841E000080841E61841E0059
:101EF0002DE9F84F0020954E0125954C7560C6F8E8
:101F00004005C6F84001C4F80855D6F8043523F05A
:101F10000303C6F80435D6F8083543F00303C6F8C2
:101F20000835102393FAA3F3B3FA83F3092B00F3D4
:101F30000881C6F810354FF48052864B4FF6FF7C6F
:101F4000F56047F6FE7EC3F880211A604FF000422C
:101F5000814B7560F560C3F88021C6F880207F4A08
:101F600041E06745D3F8481100F0C6800039D2F847
:101F7000188018BF0121774588BF002141444FF0E8
:101F80000008B9F1000F00F0BF804FF48039E1FB89
:101F90000978C4F80455EFF3108972B692F820104E
:101FA000D3F804A5002900F08F80E245D3F848114A
:101FB0003AD00039D2F818B018BF0121F24588BFD5
:101FC000002159444FF0000BB9F1000F34D04FF409
:101FD0008039E1FB09ABC34508BFBA453CD0C4F822
:101FE00008557560F560EFF3108972B692F820100D
:101FF000D3F804750029B4D1D3F8041141B991691B
:102000004FF00008B9F1000F7ED04FF08079BEE7A5
:10201000916901319161C3F80401D3F80475D3F8D3
:1020200004110029F4D1EAE7002978D18A469169A0
:10203000D346B9F1000FCAD162B692F82090B9F137
:10204000000F0CBF4FF080794FF48039E1FB09ABF2
:10205000C34508BFBA45C2D1013743F60951C7F39A
:10206000080348F100083C0EC7F34E2701FB03F3B9
:1020700044EA082401FB07F04FEA186803F580736F
:10208000650100EB53204FEA48132D1B43EAD4634C
:1020900063EB0806AB01B1015B1B41EA956161EBA3
:1020A0000601C90041EA5371DB001B1948EB010826
:1020B000DC034FEAC831001941EA5341906241F113
:1020C0000001D162BDE8F88FD3F8041141B99169DC
:1020D0004FF0000BB9F1000FAED04FF0807978E7E8
:1020E000916901319161C3F80401D3F804A5D3F8D3
:1020F00004110029F4D1EAE7D1B90F469169B84635
:10210000B9F1000F7FF441AF62B692F82090B9F1B7
:10211000000F0CBF4FF080794FF4803937E7916999
:10212000E2464FF0000BB9F1000F7FF450AF83E7A8
:10213000916967464FF00008B9F1000F7FF425AFB1
:10214000E2E740F29F31064800F03CF900C0004150
:1021500000F0004100E100E000100141A80300216F
:10216000C0330101704700BF704700BF024B01221E
:10217000C3F84423704700BF00100141024B012205
:10218000C3F84823704700BF0010014108B5FEF7AF
:1021900009FB30B9074A136B0133312B136304D8A1
:1021A00008BD044B00221A6308BD4FF4806105206E
:1021B00000F012F9A803002110B53F4C82B094F84A
:1021C0002030002B55D03D4BD3F8042352035BD471
:1021D0003A4B6168D3F80423D00334D5D3F84031A7
:1021E000002B30D0A36999425DD800232372334A73
:1021F0004FF48031C2F84031C2F808132268002A37
:1022000055D0236090472D4B2169D3F804239203C6
:1022100024D5D3F844310BB3A3698B423FD30022BA
:102220002275264B4FF40030E168C3F84421C3F80F
:10223000080300293BD08847204BD3F84031019355
:10224000019B02B010BDA269237A002BCDD191422F
:10225000D9D91A4B0022C3F84021D4E7A269237DC3
:10226000002BDCD18A42E7D2144B0022C3F8442170
:10227000E2E7124AD2F804110029A9D0C2F80431C9
:10228000A3690133A361A3E7D3F84821002A9FD0B3
:102290000022C3F84821A3690133A36198E7237D95
:1022A000002BE1D0BBE7237A002BD2D09DE740F290
:1022B0004241052000F090F8A803002100100141E0
:1022C000014B1879704700BFE0030021044B1A79D5
:1022D000824283BF1B68602202FB003000207047EF
:1022E000E0030021BFF34F8F0549064BCA6802F493
:1022F000E0621343CB60BFF34F8F00BFFDE700BF29
:1023000000ED00E00400FA05094B01225A604FF08D
:10231000FF32C3F808234FF40052064BC3F8802065
:10232000BFF34F8FBFF36F8FC3F88021704700BF9B
:1023300000D0004100E100E0094B01225A604FF05B
:10234000FF32C3F808234FF48032064BC3F88020D5
:10235000BFF34F8FBFF36F8FC3F88021704700BF6B
:102360000000014100E100E010B513490023012203
:10237000124CC1F8FC3FC1F8FC2FDA00013302F126
:10238000FF7202F58032D2F800032040884202BF7B
:10239000D2F80003D2F804230260202BEDD1084BC1
:1023A0004FF48072C3F88020BFF34F8FBFF36F8F5D
:1023B000C3F8802110BD00BF0080004100F0FFFF86
:1023C00000E100E008B572B6024B5B6803B19847C4
:1023D000FFF788FFE80300211FB572B6144B5C6855
:1023E00094B9FFF77FFFB2FBF6F22B465D1C002A83
:1023F000F9D1DBB203F110056D4405F80C2C0A226B
:1024000033B901A8A047ECE7024600230A26EDE70E
:10241000013BDBB203F110050DEB0506B0FBF2F555
:1024200002FB1500303006F80C0C2846E8E700BF28
:10243000E8030021F8B51E4E05460C4617463378D2
:1024400093BB00F095FC77603472FFF78DFFFFF7C8
:1024500073FFFFF759FF174B002D14BF284618468E
:10246000FEF7BEF90546E8B9FFF714FAFEF7AAF938
:1024700000F08CFCFEF700FA18B9B8211120FFF724
:10248000ABFF002C0CDB04F01F0264090123A40045
:10249000934004F1604404F56144C4F88031236042
:1024A000012333702846F8BD4FF0FF35FAE700BF2F
:1024B000E8030021F0310101074B93F90830002BAC
:1024C00009DB5A09012103F01F03994002F140037F
:1024D000024A42F823107047E803002100E100E0BF
:1024E0001A4B4FF4803270B5C3F88020BFF34F8F82
:1024F000BFF36F8F164C0021164DC4F80011C3F8BE
:1025000080212E692B6906F0100643F010032B6121
:102510000123C4F804332360D4F800319BB11EB901
:102520002B6923F010032B610123D4F808054FF425
:1025300080326360C4F808330023C4F80031034BD1
:10254000C3F8802170BD00F06FFCE5E700E100E01A
:102550000000014100ED00E038B50B49042301EB18
:10256000C302157905F0FF042DB1013BF7D24021DC
:102570006920FFF731FF41F8330001215471D8B2CF
:102580009471117138BD00BFF4030021042808B50F
:1025900003D950216920FFF71FFF094B03EBC0004F
:1025A0000379012B01D05121F4E74379827901337A
:1025B000DBB29A4218BF4371BDE80840FFF77CBF09
:1025C000F403002138B505240F4D95F8281005EBCC
:1025D000C1031A79012A09D158799A79904205D014
:1025E0005A79D2B29A7155F83130984795F8283017
:1025F000013C0133DBB2052B28BF002314F0FF049C
:1026000085F82830E1D138BDF403002110F0030F24
:10261000C9B2034607D0BAB303F8011B13F0030F86
:1026200002F1FF32F7D170B5032A01EB012404EB6C
:1026300004441ED9161FB508032E05F1010521D942
:102640004FEA550E9C4603EBCE0ECCE900440CF14C
:10265000080CF445F9D115F0010F04D025F001055F
:1026600003EB85052C6026F00306043302F0030219
:10267000334432B1012A197003D0022A597018BFAD
:10268000997070BD1D46EDE7704700BF014B1B6898
:102690001B68184708000021014B1B685B6818473E
:1026A00008000021014B1B689B68184708000021A7
:1026B000014B1B681B691847080000212F2E0001E1
:1026C0003B2E00013F2E0001472E00014B2E000142
:1026D00038B5174C0420FEF793F90421236898427B
:1026E00028BF18460546FEF7B7F9D0B1FEF7DCF86B
:1026F0002368E068AB4207D1FEF7D2F8E2682368AE
:1027000022611344E36038BD054460890123281A1F
:10271000E5602375FEF7C4F86289E3689B1A2361BC
:10272000F1E70123E06823756389C01AF2E700BF6F
:102730002004002108B50C4B1A7802F0FF0312B1F7
:102740005A1E1A4203D0F8216B20FFF745FE19B13B
:10275000034208D1FD21F7E723EA00039B0602D1DB
:1027600040F20111F0E708BD0C00002112480222DE
:1027700008B5012300F11801383000F8203C04238B
:1027800000F8183C10F8083C83F0010300F8173CEF
:1027900050F8383C40F81C3C50F8343C40F8103CB1
:1027A000064B1A70FFF79CF820B940F21F116B20FE
:1027B000FFF712FE08BD00BF200400210C0000211D
:1027C00070B5EFF3108572B6264C002394F8606064
:1027D00084F86030012E06D0022E1DD0002E3BD191
:1027E00085F3108870BD85F3108894F8613003F08C
:1027F000FF0123B140F25D116B20FFF7EDFD1420C6
:10280000FFF798FF184B84F861601B78012BE9D122
:10281000BDE87040FFF7AABF94F8612012B94FF4E9
:10282000B771E9E7104984F861300B78023BDBB2FD
:102830001E2B0ED8012202FA03F30C4A1342CFD109
:1028400044F20402134204D020230B70FFF72AF84D
:10285000C6E74FF4C571CFE785F310884FF4D87100
:10286000CAE700BF200400210C0000214100004005
:102870002DE9F041254D04460E462B7D23B1012B59
:102880000AD00020BDE8F0816A892B689B1A984223
:102890008CBF00200120F5E7D5E91A78FDF7FEFF8F
:1028A0002B691E3041F10001DB1948F1000298420A
:1028B00071EB020C07D21B1A62EB010222B1B021AC
:1028C0006B20FFF789FD00239C421DD96B89C6F15F
:1028D00004011B19C9B21C18EB68DB19E41A402C5F
:1028E00038BF40242046FEF7B7F80028C9D0FDF7CE
:1028F000DBFFEB6868891C44201AEC60FDF7D0FF11
:102900006A89EB689B1A2B610120BBE72004002138
:1029100070B5114C94F8705025B140F28F216B20A6
:10292000FFF75AFD01260D4B4FF4C85284F8615051
:102930001E700B4B0B48C4E900230B4BA360FFF741
:102940000BFE2A4684F87100084904F13800FEF7AE
:10295000BDFF84F8706070BD200400210C000021D0
:10296000FF3F420FC12700010500B700092B0001FE
:1029700008B5104B93F8702022B94FF43E716B20CC
:10298000FFF72AFDEFF3108172B693F8602022B1B1
:10299000012A0DD04FF44271F1E7022283F8602042
:1029A00001B962B693F87100BDE80840FFF7EEBDCB
:1029B0000022F3E7200400210B4B93F8703010B590
:1029C00023B940F217316B20FFF706FDEFF31084B7
:1029D00072B6064B1A78102A03D108221A70FEF735
:1029E00061FF04B962B610BD200400210C00002173
:1029F00010B5EFF3108472B6054B1B78042B04D18D
:102A0000FFF736FF04B962B610BD0020FAE700BF39
:102A10000C00002170B5EFF3108472B6134B1B78D5
:102A2000042B20D1124D2B7D2BB96B892868C01A3D
:102A300004B962B670BDFDF731FF2B691E30D5E9D0
:102A40001A6241F100019B1942F10002984271EBB8
:102A5000020508D2181A62EB0102002AE8D0B02160
:102A60006B20FFF7B9FC0020E2E700BF0C0000215B
:102A700020040021014B83F830007047200400211E
:102A800038B5144C94F8703023B940F2CD216B2046
:102A9000FFF7A2FCEFF3108572B694F8603023B113
:102AA000022B0DD04FF43871F1E7012384F8603028
:102AB00005B962B694F87100BDE83840FFF766BD0D
:102AC000054B00221B7884F86020042BF0D10BF01A
:102AD000DDFDEDE7200400210C00002108B5094BC5
:102AE00019781029CAB207D0202A05D0042A04D1A7
:102AF00010221A700BF0DAFD08BD40F2CF116B20E6
:102B0000FFF76AFC0C00002138B50C46FDF7C6FE45
:102B1000052C48D8DFE804F0035E522B2665334CC1
:102B2000FEF750FFC4E91A0101210220FFF702FE5F
:102B300094F861202E4B7AB104221A702368E36066
:102B40000023237594F86030022B01D00BF09EFD1A
:102B5000BDE83840FFF7BCBD20221A70BDE8384000
:102B6000FEF7A0BE4FF406716B20FFF735FC1F4C3B
:102B700094F86130BBB11E4B1B78042B14D1237D1C
:102B8000012B0ED1FDF78AFE2369D4E91A525B1995
:102B900042F100029842914103D3BDE83840FFF76B
:102BA0009DBF06F0CBF838BD124B4FF48072C3F8CE
:102BB0008020BFF34F8FBFF36F8FF4E70121022016
:102BC000FFF7B8FD094B93F8613033B1BDE83840E9
:102BD000FFF7CCBD01212820F2E7054B01221A7036
:102BE000E1E7024B1B7D012BB2D1D6E72004002187
:102BF0000C00002100E100E07BB972B90029BEBFE2
:102C000000204FF0004106E008BF00281CBF6FF015
:102C100000414FF0FF3000F03FB8ADF1080C6DE916
:102C200004CE002909DB002B1ADB00F022F9DDF8C5
:102C300004E0DDE9022304B07047404261EB41014A
:102C4000002B1BDB00F015F9DDF804E0DDE90223C1
:102C500004B0404261EB4101524263EB43037047D1
:102C6000524263EB430300F004F9DDF804E0DDE9D0
:102C7000022304B0404261EB41017047524263EBD2
:102C8000430300F0F6F8DDF804E0DDE9022304B0C8
:102C9000524263EB43037047704700BF00F068B8CF
:102CA000801A00F3070038B50D46144659B240B2F9
:102CB000FDF7AAFA0023287020446B7040B238BD9B
:102CC0007FB5A0F10B040E461546E1B20F2903D9DA
:102CD00050216420FFF780FB0DF10B0332460420E6
:102CE000FDF75EFA08B15921F3E704EB8404009084
:102CF000042203A904F665139DF90B009BB2FDF7AE
:102D000023FA9DF80C302B709DF80D306B7004B0D9
:102D100070BD0023036070477047002070474FF07C
:102D2000FF3070474FF0FF30704770474FF0FF3073
:102D300070470020704700207047002303707047E1
:102D40009DF800300022FFF7ABBF4FF0FF30704717
:102D5000002070474FF0FF3070474FF0FF30704752
:102D600070470346C0B2002BC4BF0338C0B27047DF
:102D700070470020FDF77EBA0020FDF7F5BA00206D
:102D8000FDF720BB0020FDF775BA704770B5002431
:102D9000FFF796FA05462646E0B2854200D870BD98
:102DA000FFF794FA0134068580F82A60F4E7F8B555
:102DB000037904461BB11B219D20FFF70DFB4679CB
:102DC000017126B901234371217909B96171F8BDF7
:102DD000276820462671B84702280546F4D103210A
:102DE0002046B84708B12F21E6E723682946204648
:102DF00098470028E8D03021DEE703460068884283
:102E000004D109B10A681A600846704728B97047AA
:102E1000884202D10A681A60F6E703460068002873
:102E2000F6D17047FFF7CEBB704720BF7047002830
:102E30000CBF6FF01500002070470020704707237B
:102E4000037000207047002070470020704710F882
:102E5000012B11F8013B012A28BF9A42F7D0D01A62
:102E60007047034613F8012B002AFBD1181A0138CA
:102E700070472DE9F04786468C460846089E154661
:102E800074461946002B40F0C1808542B2FA82F2A6
:102E900045D94AB1C2F1200300FA02FC95409440A2
:102EA0002EFA03F343EA0C0C4FEA154EA8B2230C9A
:102EB000BCFBFEF80EFB18CC08FB00F943EA0C4300
:102EC000994528D9EB1808F1FF3704D2994502D962
:102ED000A8F102072B44A3EB0903A4B2B3FBFEFC49
:102EE0000EFB1C330CFB00F044EA0344A04214D94F
:102EF0002C190CF1FF3304D2A04202D9ACF1020329
:102F00002C44241A43EA07401EB1D4400023346005
:102F10007360BDE8F0874746DDE76346F1E792BBA3
:102F2000431B01214FEA154EAFB2200CB3FBFEFC50
:102F30000EFB1C330CFB07F840EA0343984561D9AC
:102F4000EB180CF1FF3004D2984502D9ACF1020025
:102F50002B44A3EB0803A4B2B3FBFEFC0EFB1C3313
:102F60000CFB07F744EA0344A7424DD92C190CF196
:102F7000FF3304D2A74202D9ACF102032C44E41B74
:102F800043EA0040C0E7C2F120039540944020FA94
:102F900003F12EFA03F34FEA154E9040AFB203430C
:102FA000B1FBFEFC0EFB1C10190C0CFB07F841EAF0
:102FB0000041884522D969180CF1FF3004D28845B8
:102FC00002D9ACF102002944A1EB08019BB2B1FB8C
:102FD000FEFC0EFB1C110CFB07F743EA01439F426A
:102FE0000ED9EB180CF1FF3104D29F4202D9ACF19B
:102FF00002012B44DB1B41EA004193E76046E3E713
:103000006146F7E76046A4E76346B8E7834206D91E
:1030100016B9002108467CE7C6E900E0F9E7B3FAF3
:1030200083F78FB9834201D3724508D8BEEB0204FF
:1030300060EB030301209C461EB9002169E7384676
:10304000FAE7C6E9004CF8E7C7F1200CBB400EFADE
:1030500007F522FA0CF42EFA0CF1BA401C4320FAC0
:103060000CF3B8404FEA144901431FFA84FEB3FB46
:10307000F9F809FB18300B0C08FB0EFA43EA004381
:103080009A4540D9E31808F1FF3004D29A4502D995
:10309000A8F102002344A3EB0A0389B2B3FBF9F8B9
:1030A00009FB183308FB0EFE41EA03418E452CD97B
:1030B000611808F1FF3304D28E4502D9A8F102034A
:1030C000214443EA0040A1EB0E01A0FB02984145D8
:1030D000CE46434602D306D14D4504D20138B9EB62
:1030E000020E68EB0403002EA7D0B5EB0E0261EBD5
:1030F000030101FA0CFC22FA07F3F9404CEA03033E
:10310000C6E9003199E74046C5E74346D9E70000E4
:10311000014B1B68184700BF1000002130B585B077
:1031200004460D461022002168460FF090FE02234F
:103130008DF80230044B2A462146684601930BF075
:10314000FDFD05B030BD00BF1131000180B5054661
:103150000E46174698460AF0A5FD03460FF014FFE9
:103160000446DFF81890424649F8003039463046A8
:10317000A84754F8090000F0D3FE00BF0800000083
:103180002DE9F047058B04462807904611D4022903
:1031900005F0070540F0CC8020460CF099FA78B194
:1031A0000138218B042811D8DFE800F0C2106D85AA
:1031B000950001290CBF45F0100545F02005258339
:1031C00088F31188BFF36F8FBDE8F08701F0070A1D
:1031D000AA4500F0A5800027B9463E46A368002B0B
:1031E00000F0BC8041F00801218388F31188BFF30F
:1031F0006F8FA168002900F0BA800D68002900F0E7
:10320000B680334652462046D1F80480C047002D90
:1032100076D02B6829461D46F0E701F007035A1FB8
:10322000012A1BD8002221F00701062B276889B24A
:10323000C4E9002209D13B4603E0628B013262837C
:103240001B68002BF9D141F00201204621830CF0CC
:103250003FFA00287AD041F0200176E0042B0AD111
:1032600021F0070189B2204621830CF031FA10B118
:1032700041F020012183218B01F0070AAA454FD09C
:103280000027B946AAE7236921F0070141F00601AA
:10329000062DD3F8009021832DD1B9F1000F3FD036
:1032A00041F00801218388F31188BFF36F8F204616
:1032B0003949C84729E021F00701236941F0040199
:1032C00089B2042DD3F804902183E6D000274FF073
:1032D000040A3E4682E721F00701236941F0050117
:1032E00089B2052DD3F808902183D6D000274FF05E
:1032F000050A3E4672E700274FF0060A3E466DE794
:103300002B4687E7B9F1000FD1D1EFF311884023A5
:1033100083F31288BFF36F8F238B23F0080323837B
:10332000258BEA062ED525F01003238305F007052B
:103330006669218B002EBFF670AF00232768C4E9B1
:10334000003321F0070141F001012183218B4FF06F
:10335000000901F0070AAA457FF440AF002F9CD076
:1033600041F00801218388F31188BFF36F8F002F8C
:10337000C8D03D6839463346524620460CF0D4F951
:103380002F46F4E7AB067FF51BAF25F02003238320
:1033900005F0070500E700BF55F7000130B50C4602
:1033A0000E4985B00291D0F8CC110546CDE9003127
:1033B00000F1F0014FF0FF33204609F087FA50B9D1
:1033C000012384F86C30D5F8C83123B1204605B00C
:1033D000BDE83040184705B030BD00BFE7F9000137
:1033E00038B50C46114605460CF0FFFA034638B9CD
:1033F000284604490CF0F9FA03460020236038BD42
:103400000120FBE7213801012DE9F04F012381461E
:103410000569466889B005F55B77D7E8EF2F002A84
:1034200003D1C7E8E13F0029F7D10CBF1A460022BB
:1034300040F0B180B368B16A05F5F4781C1F1046FE
:103440000CF05AFB84426FD8013A00F09E80B2FA29
:1034500082F24FF00044D44072682046073222F0D6
:103460000302C5F83422B16A0CF046FBC5F83802F5
:10347000B36A40466343033323F0030302EB430282
:10348000230103EB4403093323F0030303EBC403D9
:10349000C5F82C221A440832C5F828227368C5F8EA
:1034A0003042C5F824323D4BC5E9AB63316800F0CA
:1034B000E5F90446002835D1D9F810B0D9F804A0B0
:1034C000D9F800300BF53279CDE90600059348466E
:1034D000DAE90734012B08BF103C0FF071F9DAF874
:1034E00024002F4905AB01EB80214FF48062484650
:1034F000009323460AF004F82A490BF52E700FF0CA
:1035000018F9DAE9050183685C684CB15B46264A24
:10351000A047044630B9DAE9050183681B692BB975
:103520006FF05704002129E0013288E70122984713
:1035300004460028F6D11D4B2846C5F8C8311C4B5F
:10354000C5F8CC311B4B0393D5F838320293D5F82C
:103550003432CDE9008305F50F73B26AD5F86813EC
:1035600000F054F904460028DCD105F1F00009F020
:1035700053FA0028C5F870030ADB022138460CF024
:1035800068FA204609B0BDE8F08F6FF00B04C9E778
:103590006FF01504C6E76FF07704F2E73DFA00011B
:1035A0007052002123FA000117FA0001B935000119
:1035B000CFFB000183FA000113B5044640B100239C
:1035C0000122CDE90032074BD0E9091209F052F986
:1035D000236F1B6823B1606F02B0BDE8104018472D
:1035E00002B010BD2138010113B504460846216917
:1035F00001F55B71D1E8AF1F022910D193B1A0B1E1
:103600000121CDE900311346D0E9091209F032F960
:10361000074B984208BF6FF00B0002B010BD6FF06F
:103620000F00FAE76FF04C00F7E76FF00100F4E7E6
:103630002EF8FFFF2DE9F34789461546066906F582
:103640005B73D3E8AF3F022B64D1136823B96FF0EB
:10365000150002B0BDE8F0871B78002BF7D0D6F834
:1036600068A3BAF1000F36D106F5E8774FF0FF32C4
:103670004FF0FF33384609F0E3FC30462A6801A9D1
:10368000FFF7AEFE019C80461CB938460CF0DFF90E
:10369000DDE705F108032367AB6984F86CA0636775
:1036A000646460B138460CF0D2F921463046A36E0E
:1036B0002A68FFF773FE0020C9F80040C9E71F22FF
:1036C000296804F148000FF0ECFB384684F8678065
:1036D0000CF0BDF9EFE7304610490CF086F90446CE
:1036E0000028B4D0002705F108030367AB6980F810
:1036F0006C70436740641F22296848300FF0D1FB8B
:1037000022460121304684F8677000F061F80028F5
:10371000D1D09CE76FF00F009BE700BF213801017B
:1037200010B50C46006900F55B73D3E8AF3F022B80
:103730000FD189B10A4900F52E700FF026F8204606
:103740000EF09FFC7822002120460FF080FB002025
:1037500010BD6FF00F00FBE76FF00100F8E700BF4E
:10376000101400212DE9F04F05460E469046002723
:10377000D0F8BCA085B0AAF5BA7421463046FFF750
:1037800066FBE0B9114BA4F1480B0293DAF8103054
:103790003246CDE9008329464FF0FF335846AAF55B
:1037A000DE7909F093F860B97823012203FB0793CF
:1037B00083F86C20DAF80C300BB15846984778340F
:1037C00017B105B0BDE8F08F0127D6E7FDFB00017A
:1037D0001FB5144690B18AB1012912D10A4B00F1EC
:1037E000F0010293D0F8CC31483201934FF0FF330F
:1037F0002046009309F06AF804B010BD6FF0150080
:10380000FAE70020F8E700BFFDFB00012DE9F043D7
:1038100087B00E46DDE90E811446DDE910251F460E
:1038200030B329B3DFF850C000F1F009002D08BF14
:1038300065469EB9CDE9034400F5DE742046059641
:103840000EF0B4FE03ABCDE900432A463B464146A9
:10385000484609F05BF907B0BDE8F0830022414615
:103860000E9248462A4607B0BDE8F04309F0A2BAD6
:103870006FF01500EFE700BF65370001F0B50446B3
:103880002B4A87B004AB0E4692E8030083E803009E
:10389000002C49D0184608F0F3FE0546B0B94FF0A9
:1038A000FF33E16C04F15407A163CDE901000093FB
:1038B0003846236D04F138020EF093F8A06C0CF03A
:1038C000CCF9C4F8BC0020B96FF00B05284607B04E
:1038D000F0BDA06C0CF0C1F9C4F8C0000028F3D012
:1038E000236CD4F8BC10C4F890300423C4F894308E
:1038F000C4F8AC300223E3620E4BB4F84820C4F89D
:103900008C10616C236204F18C03C4F8A070A4F8DD
:103910009820C4F8B870C4F8A810A4F8B020C4F86F
:10392000A400A6612363D1E76FF01505CEE700BFC1
:10393000A031010138320101014B036000207047C2
:103940006432010108B504480BF0B5FE03480BF0E2
:10395000B2FE002008BD00BFEC3301012534010197
:1039600038B50C4615460CF0B0F9034B43F830500F
:1039700003EBC0035C6038BD4401002108B5034877
:10398000034A0021121A0CF0A1F908BD900200218F
:1039900070520021074808B5074A0849121A0CF06E
:1039A00097F9BDE808400648064A0749121A0CF084
:1039B0008FB900BF000000218C020021203B0101D3
:1039C0000000002100000021203B010138B5054620
:1039D0000C4699B1D1E901230F4809680BF06BFE41
:1039E000D4E90423E1680D480BF065FEE1690C4859
:1039F0000BF061FEA1690B480BF05DFE012D05D1B6
:103A0000EFF30581084810390BF055FE2146284692
:103A1000BDE8384009F0E4B95334010183340101B1
:103A2000B3340101C3340101F234010130BFFFF7A7
:103A3000FDBF00BF2DE9F04105460B4EDFF82C809D
:103A4000324606EB0807CC1B204609490FF0D8F98F
:103A5000A01942460021083C0FF0F9F92C6707F144
:103A60000800BDE8F08100BF000000000800000071
:103A700098310101054B5A699B689A421FBF044A5D
:103A8000536843F080535360704700BFE8450021FE
:103A900000ED00E010B5204C20480BF00CFEA36AAE
:103AA000990137D51E480BF006FE1E20A36ADA01E5
:103AB00003D51C480BF0FFFD1F20174CA36ADB0247
:103AC00003D519480BF0F7FD0220A36A1C0303D5A8
:103AD00016480BF0F0FD21200F4CA36A590303D5C3
:103AE00013480BF0E8FD2220A36A9A0303D511487E
:103AF0000BF0E1FD2320084CA36ADB0303D50E483D
:103B00000BF0D9FD2420A36A6FEA03436FEA134345
:103B1000A36210BD1D20C9E700ED00E006350101DC
:103B20001F350101333501014E35010179350101A0
:103B300098350101BE350101D935010170B5204C20
:103B4000064620480D460BF0B6FDA36AD90435D5CC
:103B50001D480BF0B0FD1720A36A1A0503D51B48BA
:103B60000BF0A9FD1820164CA36A9B050FD5184829
:103B70000BF0A1FDA16BA36A180407D515480BF043
:103B80009AFD1EB1A36A23F40043A36219200C4CD2
:103B9000A36A5A0503D510480BF08DFD1A20A36ABD
:103BA000DB0503D50D480BF086FD1B20044A936A04
:103BB00043F47F43936200232B7070BD1620CBE744
:103BC00000ED00E0053601011C3601012E36010131
:103BD000423601015C360101723601018E36010167
:103BE00070B51F4C06461F480D460BF064FDA36AD6
:103BF000D90632D51C480BF05EFD1120A36A1A07C6
:103C000003D51A480BF057FD1220154CA36A9B07E9
:103C10000FD517480BF04FFD616BA36A180607D547
:103C200014480BF048FD1EB1A36A23F08003A36281
:103C300013200B4CA36ADA0703D50F480BF03BFDAA
:103C40001420A36A064ADB0658BFA36A936A43F0AE
:103C5000FF03936200232B7070BD1020CEE700BFDE
:103C600000ED00E0A7360101BE3601012E3601014C
:103C7000F23601010B370101223701012DE9F04134
:103C80005B4B04465F6800258AB0C7F3080685F3DE
:103C90001188BFF36F8F02F07F43B3F17F4F06D1DE
:103CA00002F00C03082B13D152480BF004FD002541
:103CB0002C464FF00008F31E8DF80780092B00F208
:103CC0008580DFE803F00A797D75838383838381B0
:103CD00010074CBF0C460125EBE74748444E0BF05C
:103CE000EAFC8DF80780F36A9A0704D543480BF085
:103CF000E2FC00232FE0F36A002B01DA4048F6E7EC
:103D0000F36A5B00F5D53F480BF0D5FC7369A269F7
:103D100043F480737361BFF34F8FBFF36F8F736989
:103D200032F8022C23F480737361BFF34F8FBFF31B
:103D30006F8F4DF602739A4208D0B36ADBB24BB371
:103D400001200DF10701FFF74BFF33E021682E48FA
:103D50000BF0B1FC23689DF80720C2B902AE04F154
:103D60002007324620686168083403C2BC42164608
:103D7000F7D1099AB5B3C2F3080121B96FEA52220B
:103D80006FEA42220992184602A9FFF71FFE0AB005
:103D9000BDE8F081B36A13F47F4F05D001200DF127
:103DA0000701FFF7CBFE05E0B36AB3F5803FA0D370
:103DB000FFF770FE0346CEE700200DF10701C2E7D2
:103DC00000200DF10701ECE7104890E7104B17F4C5
:103DD000F87F1049104818BF1946A6F110020BF0E1
:103DE0006AFC86E722F4FF7222F00102CAE700BFF4
:103DF00000ED00E0703701019C370101B43701018B
:103E0000D6370101E53701010538010122380101EA
:103E1000573701014237010147380101064B5A6902
:103E200042F010025A615A6942F480625A615A693A
:103E300022F008025A61704700ED00E0EFF30880BD
:103E4000EFF3098101B57246FFF718FF01BD00BF0E
:103E5000002080F31488BFF36F8F002080F30A885E
:103E600080F30B880F4880F3088808F01FF90020C2
:103E70000D490860BFF34F8F00F02CF8402080F30D
:103E800011880A484FF40061401880F30988EFF365
:103E900014800221084380F31488BFF36F8F0BF066
:103EA00036FF0000706B002194ED00E0705E002191
:103EB000002318460649D1F89020C2F30722934206
:103EC00000DB7047C1F89830C1F8A0000133F6E775
:103ED00000ED00E010B572B6002484F31388FFF7FC
:103EE000E7FF23464FF0FF300C4A03F12001013376
:103EF000102B42F82100F8D100234FF0FF30074A81
:103F000003F160010133102B42F82100F8D162B6B1
:103F1000BFF34F8FBFF36F8F10BD00BF00E100E014
:103F2000084B9B6883420BD1EFF3058343B1064BEB
:103F30005A6842F080525A605A6A22F400425A6229
:103F400009F0B6BEE845002100ED00E014498A689A
:103F50004FF030001044EFF3098C80E8F01F402050
:103F600080F31288BFF36F8F0E4F4FF000664A69DF
:103F70008A603E60106F0C4C2060506F00235367C6
:103F800080F3118802F1300090E8F01F8CF309886B
:103F900002F1000004B50BF0C5FEBDE80440704717
:103FA000E845002104ED00E0301400211EF0040F6C
:103FB0000CBFEFF30880EFF30980816911F8021C50
:103FC0000229FFD001B572460BF084FE01BD00BF8F
:103FD00040B2002807DB01234109034A00F01F001B
:103FE000834042F82130704700E100E040B20028F1
:103FF0000CDB01220649430900F01F0082402033F8
:1040000041F82320BFF34F8FBFF36F8F704700BF7E
:1040100000E100E0054B420953F82220012300F0A3
:104020001F0003FA00F01040704700BF00E100E0FD
:10403000D30748BF002140B258BF02310028ACBFAF
:1040400000F16040064A4FEA4113DBB2ABBF00F516
:10405000614000F00F0080F800331354704700BF38
:1040600014ED00E0044B054A23F07F039360BFF397
:104070004F8FBFF36F8F70470000000100ED00E02D
:1040800042F8203C009B0B4942F81C3C019B21F06C
:10409000010142F8183C029B42F8081C42F8143C0B
:1040A0004FF0807342F8043C0023203A02654367D6
:1040B000704700BF4D31000100B50D4B15469860AB
:1040C000026F0C4B0E461A60036E83F30B882C466E
:1040D00086F309880020044B9847204600210022DF
:1040E0000023024C2047000033FD00014D31000148
:1040F000E8450021301400211022014B1A6170475D
:1041000000ED00E0002340210348C21801331E2BBC
:1041100082F80013F9D1704700E100E008B5EFF331
:104120000583064A103B02EBC30152F8330049688D
:104130008847BDE80840FFF79DBC00BF440100214F
:104140001FB5094C094A23460121094800F0FAF835
:1041500000230393074B0121E41A01A80193029461
:1041600000F0FAF804B010BD0000012100000021A9
:10417000643201019002002110B50C7A0B6804F042
:104180001F0223F01F031A43CB68640923F01F03A7
:10419000054943EA440343F00103C1F89800C1F81C
:1041A0009C20C1F8A03010BD00ED00E010B5074B19
:1041B000D3F89030C3F30723013B984202D8FFF7AE
:1041C000DBFF10BD6FF01500FBE700BF00ED00E066
:1041D0002DE9F04F0F46144606464FF000084D4DAE
:1041E00085B0B84580F29280D6F80490B9F1000FFE
:1041F00036D0B9F11F0F40F2878019F01F0F40F041
:104200008380D6F800A01AF01F0F7DD150460BF026
:10421000D0FD834609EB0A0001380BF0CAFD834547
:1042200072D11BF1160F6FD05C456DDDC5F898B0EB
:10423000D5F89C10C5F898B0D5F8A03021F01F0132
:1042400043F01F0AD6E900321A44994202F1FF39BD
:104250001ED1CA4508D131465FFA8BF00BF0B2FD92
:1042600008F101080C36BCE73146C5F898B0D5F81E
:104270009C3022F01F0203F01F031343C5F89C304B
:10428000E0B20BF09FFD10F1160F3DD0441CE7E7A4
:10429000C5F898B0D5F8A020013B23F01F0302F029
:1042A0001F021343CA453146E0B2C5F8A030E8D03A
:1042B0000BF088FD10F1160F26D0C5F898B0D5F890
:1042C0009C209DF808300AF1FF3A62F304038DF850
:1042D0000830D5F8A0309DF808205B0863F347123A
:1042E0008DF80820D6E900321344009323F01F0311
:1042F0005344A3EB0903013023F01F036946C0B206
:104300000393FFF753FFBEE76FF01504204605B097
:10431000BDE8F08F00ED00E00522044BC3F89420C7
:10432000BFF34F8FBFF36F8F704700BF00ED00E00A
:10433000BFF35F8F0022024BC3F89420704700BF89
:1043400000ED00E010B5034C2278FFF741FF20702C
:1043500010BD00BF584600212DE9F74F294D8A4670
:1043600006464FF00008AB46274FD0451BDAD6F87B
:104370000490B9F1000F3FD03168084601910BF06D
:1043800018FD0199044609EB010001380BF011FDFD
:1043900084424FF014021D4B08D002FB08F36FF06B
:1043A00015024BF8032003B0BDE8F08F14F1160F8F
:1043B0002C60F8D01978A142F5DD02FB08B0C7F8EF
:1043C0009840C7F89840D7F89C4000F10801007B5E
:1043D00064F304000871D7F8A0000C79400860F37A
:1043E00047140C71D7F89C1021F01F016960D7F8B1
:1043F000A01021F01F01296108F1010814350C36C5
:10440000B3E700BF3414002100ED00E0584600215E
:10441000F0B55249524CD1F890302568C3F30723C8
:104420009D4287B000F296800020FFF781FF4D4B40
:10443000C1F8C030854216D14B4C01A82570FFF75A
:104440007BFA00250646494FAE4213D1002023785F
:104450004249D1F89020C2F30722934274DBFFF760
:104460005BFF002043E0616801EB0011FFF784FE71
:104470000130DFE70199280101EB0513DA683A40C2
:10448000B2F5800F42D007D8B2F5801F15D0B2F533
:10449000001F2ED00135D7E7B2F1006F43D0B2F143
:1044A000805FF7D15A689B680958013B22F01F00D2
:1044B000034423F01F03012032E05A689B68095827
:1044C000013B22F01F0003440120844623F01F0318
:1044D00040EA4C10CDE902218DF8100002A92078A5
:1044E0000593FFF763FE00282ADA6FF0150007B086
:1044F000F0BD5A689B680958013B22F01F00034435
:104500004FF0020C012023F01F03E1E75A689B687B
:104510000958013B22F01F000344062023F01F032B
:104520004FF0000CD4E75A689B680958013B22F011
:104530001F0003444FF0030C012023F01F03C7E7C3
:10454000237801332370A5E7C1F89830C1F8A000A3
:1045500001337EE74FF0FF30C9E700BF00ED00E018
:1045600070320101AAFF4400584600210000F0FF0C
:1045700008B505480BF09FF8002383F31188BFF3BB
:104580006F8F0423184602DF6A38010108B5064917
:10459000064821F00701C1F1045202F580320BF008
:1045A00030F8002008BD00BF777F002148140021AB
:1045B000064AD2F8AC3123F00043C2F8AC310022F5
:1045C000034BC3F84C21D3F84C3170470020014114
:1045D0000060014173B5354BD3E84F3F00233449A8
:1045E000CDE90033334BD3F80445BFF35F8FD1F8E7
:1045F0000465BFF35F8FD3F804259442F3D16B4673
:10460000224607212B480BF0F9FB324605460F21C5
:10461000274801AB0BF0F2FBE0B1019B0DB9009311
:1046200002E0009A9342FAD3009B22481C44013CCA
:10463000D0F84C3524F07F449C421F4932D0FFF71C
:10464000B7FFC0F84C451D4B009A9A4218D9012378
:104650000B7001E0002DE7D1194AD2F8AC3143F0DC
:104660000043C2F8AC31134BD3F84C2132B90121CD
:10467000144A5160D3F84C3103B1116001230DE0AD
:10468000BFF35F8FD0F80435E41A24F07F440E4B5B
:10469000033C9C42DBD900230B7000230B4A1370B0
:1046A00002B070BD0B78002BF7D0D5E75D46002136
:1046B00000100141006001415B460021FEFF7F00C8
:1046C0000020014100B00041FBFF7F005C4600215B
:1046D000F8B51E490023C1E8423F52BB1C4B1D7870
:1046E0003DB305231B4E1C4F34780134B4FBF3F368
:1046F00003EB8303E41A0BF00CFD184A137823B183
:1047000057F82430C01A072813D9154BD3F81411C1
:1047100041B10021C3F81411D3F8143134700CB92D
:104720000123137034780BF0F4FC47F8240028467A
:10473000F8BD0C4A0025D2F8AC3123F00043C2F892
:10474000AC310122084B5A60F1E700BF5D46002101
:104750005C4600215A46002154140021594600218C
:10476000005000410020014100B000410122024BF5
:10477000C3F84025704700BF0000084150231422B1
:1047800013B51D4C0021C4F80C351C4B0846C3F86A
:1047900020214FF400621A4BC3F8BC254FF480620D
:1047A000C3F838250DF1070207F0EEFC002821DBE5
:1047B0009DF8071013480CF050FE9DF807101248A2
:1047C0000CF04BFE9DF8071010480CF046FE9DF8CB
:1047D000071020460CF041FE9DF8070007F0E2FCB0
:1047E0004FF400220A4BC3F844230022C3F84C21A3
:1047F000D3F84C3102B010BD00B000410030204170
:10480000002001414C610141282001412C2101413E
:104810000060014108B53F230348044AC0E9002372
:1048200007F0ACFC002008BD681400210002FFFF67
:10483000084B70B5C31A0D4607499B1004465943EF
:10484000402206480BF016FB2B4601462046BDE8E9
:104850007040184784140021B76DDBB62C3001017D
:10486000402373B50B4C0093041B0B460D460A49BD
:10487000A41061430646094A09480BF027FB011EB4
:1048800005DA30462B4602B0BDE87040184702B04A
:1048900070BD00BF84140021B76DDBB637FF000187
:1048A0002C300101F8B50022012105460520FFF753
:1048B000BFFB104800F076FF0446B8B90BF069FC66
:1048C0002F690D4938460AF052FF031E09DB012605
:1048D0003E642D69084905F11C000AF048FF031EDB
:1048E00002DA1C462046F8BDEE64FBE76FF00404D4
:1048F000F8E700BF2D4A0001983201011FB50022E0
:104900000123CDE902236B46084ACDF800D0CDF84B
:1049100004D00BF009FB002805DB4FF48042002394
:10492000684608F089FC05B05DF804FB49FF00010A
:1049300010B5EFF31184402383F31288BFF36F8F18
:10494000074A136823F00201DB07116002D401203B
:104950000BF019FC84F31188BFF36F8F10BD00BFFB
:10496000D41400210C22104B014602FB003300201E
:1049700030B4D3E90E529863EFF31180402484F3EE
:104980001288BFF36F8F1C6C04F0C00444F0020463
:104990001C6480F31188BFF36F8F1DB12B4630BCB0
:1049A0000248184730BC7047841400212C300101A4
:1049B00010B4EFF31182402383F31288BFF36F8F9B
:1049C0001748016841F002040460C80707D482F365
:1049D0001188BFF36F8F012010BC00F0D3BE1149C6
:1049E000D1F80C04D1F80C14C907F0D5EFF31180FD
:1049F00083F31288BFF36F8F0B490B6C03F0C00376
:104A000043F002030B6480F31188BFF36F8F82F3CE
:104A10001188BFF36F8F002010BCFFF7A3BF00BF4A
:104A2000D4140021005000418414002110B1012849
:104A300004D07047034B1B6C5B0701D1FFF792BF9B
:104A4000704700BF841400212DE9F0410122074680
:104A50003449D1E8EF3FC1E8E02F0028F9D133B95C
:104A6000314932484B60CB608A600AF093FE7B1E6E
:104A7000012B28D8012F06D12D4BD3F81C3403F07D
:104A80000303022B1FD00DF0ADFE0546E8B9294BFC
:104A90001B78D3B102220646254BC3F80823244CC9
:104AA000DFF89480D4F81824D4F81834D20315D53C
:104AB00003F00303022B01D0012F0FD16DB386F356
:104AC0001188BFF36F8FBDE8F081EFF311864023AB
:104AD00083F31288BFF36F8F0125E0E7C5B130463D
:104AE0000BF049F9D4F81835DBB2012BDAD1D4F840
:104AF0000421002AD6D00022C4F80421D4F80421CD
:104B00000222C4F818252022C8F88021A360C9E732
:104B1000002121200DF005FFE4E70222044BC3F839
:104B20000423D0E78014002170140021A014002178
:104B3000005000415D52002100E100E0EFF31182DE
:104B4000402383F31288BFF36F8F0A4BD3F8001111
:104B500061B10021D3F80805C3F80011D3F8003182
:104B6000C0B282F31188BFF36F8F70476FF00A00F5
:104B7000F7E700BF009000410346F0B510469C786F
:104B800093F803C0EFF31182402585F31288BFF339
:104B90006F8F1F7893F801E0E41B04EA0C04A04235
:104BA00088BFA0B23E180CEA06063D461E7082F38E
:104BB0001188BFF36F8F0A188A4216D177450CD13E
:104BC000EFF31182402181F31288BFF36F8F1978C0
:104BD000597082F31188BFF36F8F1B79241AA34297
:104BE00022BF0122054B1A60F0BD5E1976790135AE
:104BF00001F8016B05EA0C05DEE700BF00900041FB
:104C0000DB432DE9F04713F001050E46144604D0AE
:104C10002248FFF7B1FFBDE8F0879AB3EFF31188A0
:104C2000402383F31288BFF36F8F0920FFF7F2F957
:104C300007460920FFF7DAF988F31188BFF36F8F71
:104C4000DFF85CA04FF40079CAF80051DAF80031BF
:104C500001232546DFF84C80CAF80030C8F880915F
:104C6000DAF8003183B1FFF769FF031EC8F88091BD
:104C7000F6DB013DADB27355002DF1D117B109201E
:104C8000FFF7A6F92046C6E7EFF31180402383F330
:104C90001288BFF36F8F0BF06EF8E1E7F814002174
:104CA0000090004100E100E02DE9F0410D4614467E
:104CB000114F07F1350814B92046BDE8F0814FF0D7
:104CC000FF334FF0FF32384608F0B6FA2246294645
:104CD0004046FFF751FF0646384608F079FA3EB9DC
:104CE0004FF0FF324FF0FF33044808F0A5FAE6E733
:104CF000A41BA4B23544DEE7D8140021E814002137
:104D000038B50122174C114620460DF0C6FC012291
:104D1000002104F110000DF0C0FC40F2074323878E
:104D20004FF0706323620C230025012184F82430A6
:104D30000D4B84F83550E586D3F80425092022F080
:104D40000102C3F80425C3F80051D3F80021C3F8C9
:104D500004132A461960FFF76BF90920FFF738F9A9
:104D6000284638BDD81400210090004110B5FFF747
:104D7000E5FE002820DB174BC0B293F8222093F801
:104D8000214093F82310141B31EA04040DD193F849
:104D9000372093F8364093F83810141B31EA040496
:104DA0000BD101220C4B5A600EE09C1801321140CD
:104DB00084F8250083F8221010BD9C1801321140A0
:104DC00084F83A0083F837100448BDE8104008F032
:104DD000FFB900BFD814002100900041E814002161
:104DE000F0B544681646A068227C01F01F0587B024
:104DF00045EA421500286CD0B6F5001F04D12946BB
:104E00000CF0EDFD002055E06268607CB6F5800F87
:104E100050624FF0000001AA0190506037D1B3F109
:104E2000007F14BF052304238DF804300023CDE94F
:104E300004230393E3680DF1030723FA01F111F052
:104E4000010139D1B6F1A07F36D105F01F036A09FF
:104E500003F1800326D0012A3ED1214A52F82330A3
:104E6000DB0729D43A462946A0680CF031FD1630FC
:104E70001AD002972946A06803AA0CF0FEFB00286E
:104E800018DB01222946A0680CF059FDBAE7B3F1FE
:104E9000C06F05D0B3F1007F14BF01230223C3E725
:104EA0000323C1E70F4AD9E73946A06807F00CFA97
:104EB0000028DEDA07B0F0BD3A462946A0680CF0BB
:104EC00007FD0028D6D19DF80310A06807F0F6F979
:104ED000D0E76FF08500EDE751F82330FFDE00BF2B
:104EE00000088C4100058C414209034670B502D090
:104EF000012A17D070BD0D4E326951680029F9D0D2
:104F0000012503F01F030C689D400029F2D08A6838
:104F10002A4002D030464B6898472CB1236821467E
:104F20001C46F2E7024EE7E72346F8E7643001014A
:104F30004830010138B54568A86890B10CF0F7FC1D
:104F4000014670B9A8680CF0D6FC044658B9024670
:104F50000649A8680CF0B9FC224605210A20FFF793
:104F600067F8002038BD6FF00400FBE7E94E000150
:104F70002DE9F04340F206364768D00648BF4FF0AF
:104F8000030C3B7C02EA060658BFC2F3401C87B004
:104F900001F01F05B6F5837F144645EA43158DF8E9
:104FA00003C044D00DD8062E16D005D8A6B1022EC7
:104FB0003FD06FF0150037E0B6F5807FF9D10126BC
:104FC0000AE040F20222964235D0B6F5407F34D056
:104FD000B6F5007FEDD102260123220303FA01F189
:104FE0002DD57B689960B86880BB05F01F036D09FB
:104FF0002AD0012D73D13C4A02EB830284F4803322
:10500000D2F80012C3F30043C4F3404444EA43041B
:1050100021F4706144EA8C0421F00F0144EA062374
:105020000B43C2F80032002007B0BDE8F08307262A
:10503000D2E70426D0E70526CEE70326CCE76303B4
:1050400044BF7B68D960CEE7284AD5E729460DF1F1
:1050500002020CF03DFC14F4403F80460CD129467E
:10506000B8680CF06AFCB8F1000FDCD19DF80210B2
:10507000B86807F023F9D6E74FF0000901ABCDE996
:105080000199CDE90439CDF80C902946B86803AAF6
:105090000CF0F3FA4845C6DB14F4003314D09DF845
:1050A000033084F48034C4F300448DF80E308DF85E
:1050B0000C608DF80D404B462946B86803AA0CF0E9
:1050C0008FFB0028CFDAAEE7CDE904330DF10303FF
:1050D00003932946B86803AA0CF0CFFAF1E78033AE
:1050E00050F82330FFDE00BF00088C4100058C41E2
:1050F00010B504460269A2B0C2F88000164900202B
:1051000007F0D0F9002201211220FEF791FF84223E
:10511000002101A864680DF09AFE0023012001AA75
:1051200061680432D940C90744BF00FA03F142F86C
:10513000041C2168D940C90748BF00FA03F103F1F4
:10514000010348BFD163102BEAD101A807F0BEF9D3
:10515000002022B010BD00BFF5FF000101238340F5
:1051600070B5DC430B4AD2E8EF1F01EA0405C2E840
:10517000E65F002EF7D14FF4803282400648C0F837
:105180000823BFF35F8FBFF36F8F0B4214BF012063
:10519000002070BDC41500210060014170B40E49AB
:1051A00022F07F46D1E90034D01AC31844F100043C
:1051B000C1E90034A6F50013B3F5400F09D2074B3F
:1051C0001B681A0A1B069C19054B42F10005C3E92E
:1051D000004570BC08F05CBF40080021C8150021E4
:1051E00048080021D9B101230D4A8340D2E8EFCF0E
:1051F0004CEA030CC2E8E1CF0029F7D14FF4803329
:10520000084A8340C2F80433074BD3E8AF3FC3409A
:10521000DB0742BF4FF48002044BC3F80021704704
:10522000C415002100600141BC15002100E100E02F
:10523000C3B202489B001844704700BF406101415F
:10524000D0B50446FFF78AFF4FF0FF364FF0FF3727
:105250000E4B014603EB04132046C3E902670AF034
:105260003CFF4FF480330A4AA340C2F8483301237D
:10527000A340DB43074AD2E8EF6F1E40C2E8E46F69
:10528000002CF8D1BDE8D040FFF7ACBF10080021DA
:1052900000600141BC1500210D4B1868010A000691
:1052A000BFF35F8F0B4BD3F80435181841F10001A1
:1052B000B3F5801F0AD2084BD3E90023904271EB6B
:1052C000030303D210F1807041F10001704700BF69
:1052D000C815002100600141480800212DE9F04F68
:1052E00085B016461F4604469DF840A0FFF736FFDE
:1052F0000190FFF7D1FFB04271EB070352D23B4B55
:10530000301A67EB0101984271F100014DD2384B20
:1053100003EB0413D3E902239F4208BF964258D0FF
:105320004FF48038334908FA04F8204626F07F4BC2
:10533000C1F848830AF0D1FE4FF00309584604F142
:105340005005AD00ADB205F1824504F5A87305F531
:10535000B0350293029A20F07F4341F82230C1F821
:105360004483D1F80435244AC01A033820F07F4022
:1053700090422ED9286868B1D1F80435A3EB0B0010
:1053800020F07F40B0F5000F039322D920460AF0A9
:10539000A4FE039BBAF1000F07D109EB030009F14A
:1053A0000109D7E7BAF1000F09D06FF015052046C3
:1053B0000199FFF717FF284605B0BDE8F08F0123DC
:1053C0000E4AA340D2E8EF0F1843C2E8E10F0029CC
:1053D000F8D107490E982301C8500F9B01EB041226
:1053E0000025C2E902675360E1E700BF01008000C9
:1053F0001008002100600141FDFF7F00BC15002165
:105400007FB500254FF0FF304FF0FF314FF4803271
:10541000204C214B0226C4F80833C4F848331F4BF4
:10542000C4F80855C3E90201C4F804234FF400325C
:10543000C3E90601C4F80423C3E90A014FF4802339
:105440004FF48002C4F80433154B0121C4F80463FF
:105450001620C3F880212A46FEF7EAFD1620FEF743
:10546000B7FD01230722A36023600E4B28461A6074
:1054700006220D4B1A600D4B0D4A0093CDE90155E4
:105480000023FFF72BFF3046FFF7DEFA284604B073
:1054900070BD00BF0060014103000F001008002133
:1054A00000E100E0C4150021C01500219D5100015C
:1054B000FFFF7F002DE9F04F87B00AF0D0FC354B9D
:1054C000D3F8042392070BD5D3F8042142B100226C
:1054D000C3F80421304AD3F8043113680133136050
:1054E0002E4D0024AA462E4E4FF4803303FA04FBBF
:1054F000284BD3F804331BEA030F27D00123A34022
:10550000DB43D6E8EF2F02EA0301C6E8E01F0028DC
:10551000F7D122FA04F3DB0703D4224B53F82430EB
:10552000A3B120460AF0D9FDFFF7B6FEEFF31087CE
:1055300072B60AEB0412D2E90289CDE90289029B14
:105540009842039B994109D287F310880134032CB8
:1055500005F11005C8D107B0BDE8F08F0020D5E9EE
:1055600000134FF0FF384FF0FF392860C2E902897D
:10557000084A05932046C2F848B30AF0AEFD87F307
:1055800010880029E2D0059B0093DDE902238847BB
:10559000DCE700BF00600141C815002110080021B0
:1055A000BC1500214061014170B501240C4B186805
:1055B00090B1B0FA80F0C0F11F0004FA00F1C943C5
:1055C000D3E8EF2F02EA0105C3E8E65F002EF7D12A
:1055D000C240D207EBD570BD6FF00B00FBE700BFF8
:1055E000C015002130B5431C124C85B005D0844253
:1055F000A8BF0446012CB8BF0124FFF74DFE0E4B97
:105600000C4DD3E90013401AB0F5000F0FD2221849
:10561000AA4228BF2A46002052180849CDE90100B5
:10562000009143F10003FFF759FE05B030BD2A4653
:10563000F1E700BFFFFF7F00400800219D510001FE
:1056400008B5FFF729FE024B1B68C01A08BD00BF52
:105650004008002102460B46014807F0F1BC00BF9C
:1056600058020021014807F063BD00BF5802002125
:105670001FB500240A2201940294CDF80B4000913A
:10568000014601A80DF00DFC009A01A907480AF097
:1056900012F807480AF00FF884F31188BFF36F8FF0
:1056A0000323184602DF04B010BD00BFBC3801015F
:1056B00020380101322337B50125ADF8043000232D
:1056C0001A216846104A8DF80630ADF800508DF862
:1056D0000230FCF7AFFE044690B94FF4AF60FBF721
:1056E000B7F82A4621460C20FEF7A2FC2A4621469E
:1056F0001120FEF79DFC2A4621460820FEF798FC63
:10570000204603B030BD00BF715600010149024878
:105710000DF02BB8CC1500215008002137B500241E
:105720000C4D6FF007034FF4806228460A4900943D
:1057300007F0E6FE094928460DF05AF808490948DD
:105740000CF0F7FF224604211A20FEF771FC2046D8
:1057500003B030BD5008002170560021D13801013E
:105760001B010101CC15002110B9024B1B68184721
:10577000704700BFDC150021014B01201B68184752
:10578000DC15002128B1012807D100200349FAF7D0
:10579000C7BF034B01201B681847704769570001BA
:1057A000DC150021014B186000207047DC1500213A
:1057B00010B50C29036914D118680B4C80EAE0730A
:1057C000A3EBE07300284FF000004FEA930103F0D1
:1057D000030304FB03F3BCBF49425B42C2E900136D
:1057E00010BD6FF08500FBE790D0030038B5064B85
:1057F000064C9D6804222B68044903489847236897
:10580000002BF7D038BD00BF80300101E415002126
:10581000044B186880EA403080EA504080EA40102B
:1058200018607047E415002140B2002808DB01220F
:105830004309044900F01F008240403341F823200F
:10584000704700BF00E100E040B2002808DB012201
:105850004309044900F01F008240603341F82320CF
:10586000704700BF00E100E040B20028ABBF00F18C
:105870006040054B00F5614000F00F00ACBF90F8B0
:105880000003185C4009704714ED00E010B5064CA9
:10589000064920460CF09AFF00220023204607F01C
:1058A000D5FE002010BD00BFF0080021B158000156
:1058B00037B50F4C4321A5682046EB68984770B96F
:1058C0000C216A4620462B69984740B9094B009A3B
:1058D00093F90010914202D01A700AF0EEFC4FF4D6
:1058E000F0120023044807F0E5FE03B030BD00BF0E
:1058F000D430010140010021F0080021014B93F94F
:105900000000704740010021F7B5134E134C144DB1
:105910004FF0FF324FF0FF33304607F08DFC4FF46D
:10592000967321780F4859436F5804313A462944F9
:1059300009F0C8FF1E222378874203F10103B3FB5D
:10594000F2F102FB11332370E2D04FF0FF3301A8D4
:10595000019309F04EFCDBE77C0200215F46002149
:10596000E815002110390021014807F031BC00BFC3
:105970006C02002108B50D4809F082FF002804DA06
:10598000783002D06FF0050008BD094A0949074880
:1059900009F084FF0028F5DB4FF40042002306489D
:1059A00007F04AFC0028EDDB0020EDE7B8300101EC
:1059B000D8000021103900216C02002170B5054685
:1059C0000C460CF00FFFE8B11E2014490B785A1C4E
:1059D000B2FBF0F600FB16221148D2B200789042DA
:1059E00018D00A704FF4967253430E482246C450A2
:1059F0000433294618440DF003FA0B4807F0E8FB7E
:105A0000204670BD22462946084809F05BFF40EA5F
:105A1000E070F6E74FF0FF30F3E700BF5E4600218D
:105A20005F460021E81500217C0200211039002189
:105A30000122034B83F8142502480CF027BE00BF57
:105A400018390021303E0021084BD3F8082542F0D8
:105A50000302C3F808250422C3F81025D3F804254F
:105A600022F00302C3F80425704700BF0080014103
:105A70000122014B1A607047008001410122014B55
:105A80001A61704700800141004870474880014119
:105A90000123054A05495364D2F84435013B0B60A4
:105AA000C2F84835704700BF00800141443E0021E4
:105AB00008B5074BD3F8483508B90AF09CF9054AF0
:105AC00012689A4216BF03600020012008BD00BF83
:105AD00000800141443E0021004870474C80014154
