:020000040000FA
:10000000F80B002071710000FB71000023EE01006D
:100010004DEE010077EE0100CBEE0100A1EE0100F4
:1000200000000000000000000000000071DA000085
:100030000372000000000000990301000B72000031
:10004000137200001B720000000000002F08010066
:10005000000000002372000000000000000000000B
:100060002B720000337200003B72000043720000EC
:100070004B720000537200005B720000637200005C
:100080006B720000737200000000000000000000AE
:100090007B7200008372000000000000000000007E
:1000A0008B720000937200009B720000A37200002C
:1000B000AB720000B3720000BB720000C37200009C
:1000C000CB720000D3720000DB720000E37200000C
:1000D000EB72000000000000F3720000000000005E
:1000E000FB72000000000000037300000B730000AF
:1000F0000000000013730000000000001B730000EC
:100100000000000000000000000000002373000059
:100110002B73000000000000337300003B730000ED
:100120000000000043730000000000000000000019
:1001300000000000000000000000000000000000BF
:1001400000000000000000000000000000000000AF
:100150004B73000000015F5F02000000FE0B000017
:10016000B9DB0000000400000000000000000000F7
:100170000000000000000000000000000100FFC3BC
:10018000000000C4E0B100200000000001015F5F3A
:10019000030100001F010000F32B000000200000FD
:1001A000000000000100000001000000000000004D
:1001B0000000000000000000000000005845002082
:1001C00000000000700000007CF3010080000000CF
:1001D000000F000001000000232C000001000000BF
:1001E00001015F5F000100001F000000D96A0000EC
:1001F00000070000000000000300000001000000F4
:1002000000000000000000000000000000000000EE
:1002100000260020000000008000000070000000A8
:100220004000000088F301006000000001070000AA
:10023000010000001D5900000100000001015F5F86
:10024000010100001F010000A32E00002007000094
:10025000000000000000000001000000000000009D
:1002600000000000000000000000000058650020B1
:1002700000000000A8F3010070000000020F000061
:10028000010000005D1C00000100000001015F5F33
:10029000040100001F010000714F00000005000074
:1002A000000000000000000001000000000000004D
:1002B000000000000000000000000000786C00203A
:1002C00000000000D0F3010040000000050700001E
:0C02D00001000000DD2300000100000020
:1002E00080B483B000AF7860064B03F580531A46A4
:1002F0007B68C2F80434002318460C37BD465DF80D
:10030000047B70477871002080B483B000AF7860C0
:10031000064B03F58053D3F804247B681A6000234E
:1003200018460C37BD465DF8047B70477871002095
:1003300080B483B000AF786039607B6813F1040F3C
:1003400002D96FF08C0327E07B68033323F00303AB
:100350007B60144B03F58053D3F80034C3F5A053EE
:100360007A689A4202D96FF08C0315E00D4B03F5C1
:100370008053D3F800340B4A1A443B681A60094B87
:1003800003F58053D3F800247B681344054A02F533
:100390008052C2F80034002318460C37BD465DF881
:1003A000047B70477871002080B500AF0C4B03F5DB
:1003B00080531A460023C2F80434094B03F58053D6
:1003C000D3F800341A46002105481EF045FE044BC0
:1003D00003F580531A460023C2F8003400BF80BDE5
:1003E0007871002080B58AB000AFF860B9607A609B
:1003F0003B606FF096037B62FB681B683B620023E7
:10040000BB6100233B6100237B610023FB77FB681A
:100410005B68402B02D06FF08003A5E03B6A1B8D28
:100420001B0A9BB2BB77BB7F032B04D0BB7F012B86
:1004300001D0012300E00023FB77FB7F03F00103E1
:10044000FB77FB7F002B0FD007F11803184602F053
:100450007EFA78627B6A002B01D07B6A84E03B6A7B
:100460001B683B61BB697B61BB7F013B0A2B76D874
:1004700001A252F823F000BF2F050000A5040000E0
:10048000B7040000C3040000D5040000E704000026
:10049000F90400000B0500001D0500003B050000ED
:1004A0004D05000007F110031A467968F86801F05D
:1004B000C7F9034658E07968F86800F02FFB034657
:1004C00052E007F110031A467968F86800F092FCD0
:1004D000034649E007F110031A467968F86800F00E
:1004E000A1F9034640E007F110031A467968F8685D
:1004F00000F0D8FD034637E007F110031A4679688B
:10050000F86802F0A1FB03462EE007F110031A463B
:100510007968F86802F0A6FB034625E007F11003AE
:100520001A467968F86801F019F803461CE0796802
:10053000F86802F0B3FB034616E007F110031A4611
:100540007968F86802F033FC03460DE007F1100308
:100550001A467968F86802F038FC034604E004485B
:100560001EF036FE6FF0850318462837BD4680BD65
:100570001C53000080B582B000AF78607A681346E3
:100580005B0013441B021033054A13444FF43C72C2
:10059000002118461EF060FD00BF0837BD4680BD33
:1005A000582D002080B500AF4FF4C0520021034801
:1005B0001EF052FD0023184680BD00BF582D0020BC
:1005C00080B588B000AFF860B9607A600023FB6145
:1005D00000237B61BB681B68002B02D06FF088038F
:1005E00055E07B68002B02D16FF086034FE07B68FB
:1005F00000221A6007F11403184602F0A8F9B86146
:10060000BB69002B01D0BB6941E00023FB6139E0ED
:100610002149FA6913465B0013441B020B441B6813
:10062000002B2CD11C49FA6913465B0013441B02B2
:100630000B4401221A6079691748FA6913465B0076
:1006400013441B020344043319601349FA69134627
:100650005B0013441B020B440833FA681A60FB6901
:100660005A1CBB681A60FA6913465B0013441B02EC
:100670001033094A1A447B681A60002307E0FB69BB
:100680000133FB61FB69072BC2D96FF08403184665
:100690002037BD4680BD00BF582D002080B586B0F4
:1006A00000AF78607B681B687B610023FB607B6820
:1006B00000221A607B69002B02D07B69082B02D9CB
:1006C0006FF086034BE007F10C03184602F03FF988
:1006D00038613B69002B01D03B6940E07B695A1EC1
:1006E000214913465B0013441B020B441B68012B7A
:1006F00033D17B695A1E1C4913465B0013441B020D
:100700000B4404331A68FB689A4226D17B69013B8B
:100710001846FFF72FFF7B695A1E134913465B00EB
:1007200013441B020B4400221A607B695A1E0E49B7
:1007300013465B0013441B020B44083300221A606B
:100740007B695A1E084913465B0013441B020B4485
:10075000043300221A60002301E06FF0860318467C
:100760001837BD4680BD00BF582D002080B586B02B
:1007700000AFF860B9607A6000233B61BB68002B72
:1007800002D0BB68082B02D96FF0880344E07B6875
:10079000002B02D16FF086033EE007F110031846EC
:1007A00002F0D5F878617B69002B01D07B6933E0DA
:1007B000BB685A1E1A4913465B0013441B020B44C4
:1007C0001B68012B26D1BB685A1E154913465B00D6
:1007D00013441B020B4408331B68FA689A4219D170
:1007E000BB685A1E0E4913465B0013441B020B44A0
:1007F00004331A683B699A420CD1BB685A1E1346EF
:100800005B0013441B021033054A1A447B681A60CC
:10081000002301E06FF0880318461837BD4680BDFD
:10082000582D002080B5A2B004AFF860B9607A609E
:10083000FB681B68FB666FF085037B670023FB6129
:1008400000233B67FB6E1B8DA7F86A307B685968F5
:100850007B681A6807F11403184602F04FFAB7F8DC
:100860006A30B3F5A06F27D1FB6808331B68FB62C1
:10087000FB6808335B68BB62BB681B687B62BB6854
:100880005B683B62FB6E5A68BB68043303933B6A48
:1008900002937B6A0193BB6A0093FB6A07F1140120
:1008A00003C914F075F878677B6F002B02D0BB6822
:1008B00000225A607B6F2DE1B7F86A3040F2015296
:1008C000934227D1FB6808331B68FB63FB6808333E
:1008D0005B68BB63BB681B687B63BB685B683B632F
:1008E000FB6E5A68BB68043303933B6B02937B6BCC
:1008F0000193BB6B0093FB6B07F1140103C914F068
:100900000DF978677B6F002B02D0BB6800225A601C
:100910007B6FFFE0B7F86A3040F20252934205D095
:10092000B7F86A3040F2035293421BD1BB681B6890
:100930003B67BB681B68002B03D0BB685B68032B5D
:1009400002D86FF08003E5E0FB6E9A683B6F1A6097
:10095000BB681B6807F11C0219460120FFF730FE37
:10096000786725E0FB6E9B6807F11C0219460120A1
:10097000FFF7FCFE7867B7F86A3040F207529342FF
:1009800004D0B7F86A30B3F5A16F11D1BB681B680A
:100990003B67BB681B68002B03D0BB685B68032BFD
:1009A00002D86FF08003B5E0FB6E9A683B6F1A6067
:1009B0007B6F002B08D0B7F86A30B3F5A16F01D177
:1009C0000023A7E07B6FA5E0B7F86A30A3F20253DB
:1009D000062B00F2928001A252F823F0450A000093
:1009E0005F0A0000F9090000250A0000790A0000EA
:1009F000BD0A0000EF0A0000BB681B687B64BB688F
:100A00005B683B64F869BB6804333A6C796C13F03B
:100A1000D3FE78677B6F002B02D0BB6800225A6040
:100A20007B6F77E0FB6808331B68FB64FB68083367
:100A30005B68BB64FB69BA6CF96C184613F016FF6F
:100A4000034667E0F869FB6E5B6807F1140206CAAB
:100A500013F096FE78677B6F002B51D056E0F86953
:100A6000FB6E5B6807F1140206CA13F097FE786705
:100A70007B6F002B46D049E0FB6808331B68FB65A1
:100A8000FB6808335B68BB65BB681B687B65BB683C
:100A90005B683B65F869BB68043301933B6D009369
:100AA0007B6DBA6DF96D13F011FF78677B6F002BCA
:100AB00002D0BB6800225A607B6F2BE0BB68083312
:100AC0001B687B66BB6808335B683B66F869BB687C
:100AD000083304333A6E796E13F020FF78677B6F2A
:100AE000002B12D0BB68083300225A600BE0FB6970
:100AF000184613F03DFF786708E06FF0850309E0C2
:100B000000BF00E000BF7B6F04E000BF386FFFF75D
:100B1000C5FD7B6F18467837BD4680BD80B598B05F
:100B200002AF786039607B681B68FB646FF08503F7
:100B30007B650023FB6000233B65FB6C1B8DA7F8E6
:100B40004A30B7F84A30B3F5407F22D17B6808338A
:100B50001B68FB617B6808335B68BB613B681B6893
:100B60007B613B685B683B61FB6C58683B680433A6
:100B700001933B6900937B69BA69F96913F060FCE2
:100B800078657B6D002B02D03B6800225A607B6D3C
:100B90002BE1B7F84A3040F2013293421AD17B6818
:100BA00008331B68FB627B6808335B68BB627B6849
:100BB00010331B687B627B6810335B683B62FB6CA5
:100BC00058683B6A00937B6ABA6AF96A13F048FC7A
:100BD00003460AE1B7F84A3040F2023293421BD191
:100BE0003B681B683B653B681B68002B03D03B6878
:100BF0005B68032B02D86FF08003F6E0FB6C9A6809
:100C00003B6D1A603B681B6807F10C021946032014
:100C1000FFF7D6FC78652CE0FB6C9B6807F10C02B3
:100C200019460320FFF7A2FD7865B7F84A3040F275
:100C3000053293420BD0B7F84A3040F20632934265
:100C400005D0B7F84A3040F20732934211D13B68E1
:100C50001B683B653B681B68002B03D03B685B68E7
:100C6000032B02D86FF08003BFE0FB6C9A683B6DEA
:100C70001A607B6D002B09D0B7F84A3040F207327A
:100C8000934201D10023B0E07B6DAEE0B7F84A306B
:100C9000A3F20233052B00F2998001A252F823F04F
:100CA000B90C0000D30C0000570D0000F30C00003D
:100CB000250D00004B0D0000FA68FB6C5B681946BF
:100CC000104613F01DFB78657B6D002B00F08180D2
:100CD00087E07B6808331B687B637B6808335B684D
:100CE0003B63FB683A6B796B184613F02FFB0346A6
:100CF0007BE03B6808331B68FB633B6808335B6839
:100D0000BB63F8683B6808330433BA6BF96B13F0C4
:100D100039FB78657B6D002B62D03B68083300227D
:100D20005A605BE07B6808331B687B647B68083330
:100D30005B683B64FB683A6C796C184613F036FBD1
:100D400078657B6D002B46D14BE0FB68184613F0AD
:100D5000CBFA786545E00023BB603B681B683B65C8
:100D60003B681B68002B0DD03B685B68032B09D9DF
:100D70007B6808331B68002B04D07B6808335B68F2
:100D8000032B02D86FF080032FE07B6808331B68C9
:100D90001A683B6D1A6007F108031A46396D032083
:100DA000FFF70EFC78657B6D002B01D07B6D1CE09E
:100DB000FB68BA681146184613F07CFB78657B6DBA
:100DC000002B0AD0386DFFF769FC06E06FF0850351
:100DD0000BE000BF02E000BF00E000BF7B6D04E05D
:100DE00000BF386DFFF75AFC7B6D18465837BD467B
:100DF00080BD00BF80B59EB004AFF860B9607A6076
:100E0000FB681B68FB656FF085037B660023FB6155
:100E100000233B66FB6D1B8DA7F85A307B68596831
:100E20007B681A6807F11403184601F067FFB7F8EA
:100E30005A30B3F5806F27D1FB6808331B68FB621B
:100E4000FB6808335B68BB62BB681B687B62BB687E
:100E50005B683B62FB6D5A68BB68043303933B6A73
:100E600002937B6A0193BB6A0093FB6A07F114014A
:100E700003C913F045FC78667B6E002B02D0BB687B
:100E800000225A607B6E08E1B7F85A3040F2014206
:100E900093421FD1FB6808331B68FB63FB68083370
:100EA0005B68BB63FB6810331B687B63FB681033B4
:100EB0005B683B63FB6D5A683B6B02937B6B0193F2
:100EC000BB6B0093FB6B07F1140103C913F02EFCFD
:100ED0000346E2E0B7F85A3040F20242934205D0AE
:100EE000B7F85A3040F2034293421BD1BB681B68EB
:100EF0003B66BB681B68002B03D0BB685B68032B99
:100F000002D86FF08003C8E0FB6D9A683B6E1A60F0
:100F1000BB681B6807F11C0219460220FFF750FB53
:100F200078662CE0FB6D9B6807F11C0219460220D5
:100F3000FFF71CFC7866B7F85A3040F2054293423E
:100F40000BD0B7F85A3040F20642934205D0B7F8BA
:100F50005A3040F20742934211D1BB681B683B668E
:100F6000BB681B68002B03D0BB685B68032B02D8EF
:100F70006FF0800391E0FB6D9A683B6E1A607B6EA8
:100F8000002B09D0B7F85A3040F20742934201D102
:100F9000002382E07B6E80E0B7F85A30A3F2024370
:100FA000052B6BD801A252F823F000BFC50F00003B
:100FB000DF0F0000F90F0000191000004B100000B7
:100FC00071100000F869FB6D5B6807F1140206CA36
:100FD00013F0A4FA78667B6E002B52D059E0F869C2
:100FE000FB6D5B6807F1140206CA13F0A5FA786678
:100FF0007B6E002B47D04CE0FB6808331B687B649A
:10100000FB6808335B683B64FB693A6C796C184693
:1010100013F0A0FA034640E0BB6808331B68FB648A
:10102000BB6808335B68BB64F869BB68083304338A
:10103000BA6CF96C13F0AEFA78667B6E002B27D091
:10104000BB68083300225A6020E0FB6808331B6845
:101050007B65FB6808335B683B65FB693A6D796DBE
:10106000184613F00FFB78667B6E002B0DD110E055
:10107000FB69184613F040FA78660AE06FF08503C2
:101080000BE000BF02E000BF00E000BF7B6E04E0A9
:1010900000BF386EFFF702FB7B6E18466837BD460F
:1010A00080BD00BF80B5B8B008AFF860B9607A60A5
:1010B000FB681B68C7F8B4306FF08503C7F8BC3015
:1010C0000023FB610023C7F8B830D7F8B4301B8D7C
:1010D000A7F8B2307B6859687B681A6807F1140377
:1010E000184601F00BFEB7F8B230B3F5C06F44D12B
:1010F000D7F8B43014333B643B6CFB633B6C1B6927
:10110000BB63FB6808331B687B63FB6808335B6861
:101110003B63BB681B68FB62BB685B68BB62FB68C8
:1011200010331B687B62FB6810335B683B62D7F847
:10113000B4305A68BB6804330793BB6A0693FB6AF2
:1011400005933B6B04937B6B03933B6A02937B6A2F
:101150000193BB6B0093FB6B07F1140103C913F000
:1011600057FDC7F8BC00D7F8BC30002B02D0BB68D5
:1011700000225A60D7F8BC30ECE1B7F8B23040F248
:101180000162934244D1D7F8B43014337B667B6E4E
:101190003B667B6E1B69FB65FB6808331B68BB65A0
:1011A000FB6808335B687B65BB681B683B65BB6895
:1011B0005B68FB64FB6810331B68BB64FB6810331F
:1011C0005B687B64D7F8B4305A68BB680433079314
:1011D000FB6C06933B6D05937B6D0493BB6D039392
:1011E0007B6C0293BB6C0193FB6D00933B6E07F12C
:1011F000140103C913F05CFDC7F8BC00D7F8BC307C
:10120000002B02D0BB6800225A60D7F8BC30A1E1A5
:10121000B7F8B23040F20262934205D0B7F8B2306C
:1012200040F2036293421FD1BB681B68C7F8B83015
:10123000BB681B68002B03D0BB685B68032B02D81C
:101240006FF0800386E1D7F8B4309A68D7F8B830E9
:101250001A60BB681B6807F11C0219460520FFF7DE
:10126000AFF9C7F8BC0031E0D7F8B4309B6807F19C
:101270001C0219460520FFF779FAC7F8BC00B7F839
:10128000B23040F2096293420BD0B7F8B23040F26C
:101290000A62934205D0B7F8B23040F20B62934233
:1012A00014D1BB681B68C7F8B830BB681B68002B3B
:1012B00003D0BB685B68032B02D86FF0800349E161
:1012C000D7F8B4309A68D7F8B8301A60D7F8BC307D
:1012D000002B0AD0B7F8B23040F20B62934201D132
:1012E000002337E1D7F8BC3034E1B7F8B230A3F2CD
:1012F0000263092B00F21C8101A252F823F000BF07
:10130000291300004B130000ED1300001F14000010
:101310003F140000B1140000571400006D130000CA
:10132000D1140000DF130000F869D7F8B4305B680F
:1013300007F1140206CA13F00BFDC7F8BC00D7F87A
:10134000BC30002B00F0F780FEE0F869D7F8B4302D
:101350005B6807F1140206CA13F008FDC7F8BC0069
:10136000D7F8BC30002B00F0E880EDE0BB6810330C
:101370001B68C7F89C30BB6810335B68C7F89830AF
:10138000BB6808331B68C7F89430BB6808335B68D8
:10139000C7F89030F869BB6810331A1DBB68083372
:1013A00004330293D7F890300193D7F89430009328
:1013B0001346D7F89820D7F89C1013F061FEC7F8B1
:1013C000BC00D7F8BC30002B00F0BB80BB680833F2
:1013D00000225A60BB68103300225A60AEE0FB69FD
:1013E000184613F0D1FEC7F8BC00ADE0BB681B681F
:1013F000FB66BB685B68BB66F869BB680433BA6EA2
:10140000F96E13F0F3FCC7F8BC00D7F8BC30002B22
:1014100002D0BB6800225A60D7F8BC309AE0FB6863
:1014200008331B687B67FB6808335B683B67FB69B5
:101430003A6F796F184613F0A7FC03468AE0F86903
:10144000D7F8B430D968D7F8B4301B691A4613F00E
:101450005BFD03467EE0FB6808331B68C7F88C30F1
:10146000FB6808335B68C7F88830BB681B68C7F83F
:101470008430BB685B68C7F88030F869BB680433A8
:101480000193D7F880300093D7F88430D7F88820BC
:10149000D7F88C1013F0AEFDC7F8BC00D7F8BC30FD
:1014A000002B02D0BB6800225A60D7F8BC3051E054
:1014B000FB6808331B68FB67FB6808335B68BB6726
:1014C000FB69BA6FF96F184613F058FD034641E007
:1014D000FB6808331B68C7F8AC30FB6808335B68EF
:1014E000C7F8A830BB6808331B68C7F8A430BB68CE
:1014F00008335B68C7F8A030F869BB6808331A1D69
:10150000D7F8A8300193D7F8AC3000931346D7F83A
:10151000A020D7F8A41013F003FEC7F8BC00D7F83A
:10152000BC30002B0FD0BB68083300225A6005E0A6
:101530006FF085030EE000BF00E000BFD7F8BC30BD
:1015400008E000BF00E000BFD7F8B800FFF7A6F83A
:10155000D7F8BC301846C037BD4680BD80B5A2B0B4
:1015600004AFF860B9607A60FB681B68FB666FF0D7
:1015700085037B6700237B6300233B67FB6E1B8D2A
:10158000A7F86A307B6859687B681A6807F12C03F2
:10159000184601F0B3FBB7F86A30B3F5106F20D1ED
:1015A000BB681B687B64BB685B683B64FB68083393
:1015B0001B68FB63FB6808335B68BB63FB6E5868A2
:1015C000BB68043303933B6C02937B6C0193BB6B4E
:1015D0000093FB6B07F12C0206CA14F0C3F8034614
:1015E0002AE1B7F86A3040F6011293421BD1BB687A
:1015F0001B683B67BB681B68002B03D0BB685B683C
:10160000032B02D86FF0800316E1FB6E9A683B6FE4
:101610001A60BB681B6807F1340219460420FEF704
:10162000CFFF786708E0FB6E9B6807F1340219462C
:101630000420FFF79BF878677B6F002B07D0B7F883
:101640006A3040F60A12934201D07B6FF4E0B7F89B
:101650006A30A3F60113092B00F2E48001A252F8CC
:1016600023F000BF8D160000A7160000D116000061
:10167000E31600003517000005170000F9170000F9
:101680001917000049170000BF1700007A6BFB6EA6
:101690005B681946104613F005FF78677B6F002BD7
:1016A00000F0C380C4E0BB681B68BB64BB681B68F8
:1016B000002B03D0BB685B68042B02D06FF0800363
:1016C000BAE07B6BB96C184613F088FD0346B3E0B3
:1016D0007A6BFB6E1B6B1946104613F089FD0346AF
:1016E000AAE0FB6808331B683B65FB6808335B684E
:1016F000FB64786BFB6E598DFB6C3A6D13F026FF23
:10170000034699E0786BFB6E598DFB6ED3E90C2391
:1017100013F028FF03468FE0BB681B683B66BB687D
:101720005B68FB657B6BFA6D396E184613F074FDD0
:10173000034681E0786BFB6E598D07F12C030CCBCF
:1017400013F054FF034677E0BB681B687B66BB68F9
:101750001B68002B03D0BB685B68032B02D86FF0BB
:10176000800369E0FB6808331B68002B04D0FB682A
:1017700008335B681C2B02D06FF080035CE0FB68D1
:1017800008331968FB6808335A6807F110031846D4
:101790001DF01BFC7B685B6807F1100211461846C0
:1017A00001F0BCFA796B07F12C0207F1100318461F
:1017B00013F072FD7867FA6A7B6E1A6036E0BB68D8
:1017C0001B683B67BB681B68002B03D0BB685B686A
:1017D000032B02D86FF080032EE0FB6E9A683B6FFC
:1017E0001A607B6F002B01D0002325E07B6B18462D
:1017F00013F0DEFC78671BE0FB6808331B68BB65F1
:10180000FB6808335B687B65786BFB6E598D7B6D7D
:101810000193BB6D009307F12C030CCB13F036FF43
:10182000034609E06FF0850306E000BF7B6F03E02D
:10183000386FFEF733FF7B6F18467837BD4680BDA3
:1018400080B59EB002AFF860B9607A60FB681B6833
:10185000BB666FF09603FB667B6859687B681A6805
:1018600007F13403184601F049FABB6E1B8D40F2B4
:101870000322934207D040F20322934224DBA3F5D4
:101880000273012B20D8FB6808331B68002B04D09F
:10189000FB6808335B681C2B02D06FF0800328E1E3
:1018A000FB6808331968FB6808335A6807F11803A6
:1018B00018461DF08AFB7B685B6807F11802114629
:1018C000184601F02BFA00E000BFBB6E1B8DA3F59C
:1018D0000073092B00F2068101A252F823F000BF29
:1018E000A71900004F19000087190000091900000E
:1018F00097190000E9190000191A0000491A0000A0
:10190000591A0000A51A0000FB6810331B68FB641D
:10191000FB6810335B68BB64BB681B687B64BB6897
:101920001B68002B03D0BB685B68032B02D86FF0E9
:101930008003DEE007F1340307F11800BA6CF96C9C
:1019400012F01EFBF8667A6B7B6C1A60D0E0BB6805
:101950001B683B64BB681B68002B03D0BB685B68DB
:10196000032B02D86FF08003C3E007F134031A465B
:1019700007F1340393E8030014F098F9F8667A6BE2
:101980003B6C1A60B4E007F1340393E8030014F0F1
:10199000C5F9F866ACE007F1340393E8030012F0F0
:1019A000BFF9F866A4E0BB681B68FB6307F1180386
:1019B0001A4607F1340393E8030012F003FAF866BD
:1019C000BB681B68002B03D0BB685B681C2B02D96B
:1019D0006FF080038DE0BB685A6807F11803194661
:1019E000F86B1DF0F2FA83E0BB681B687B65BB688F
:1019F0005B683B65BB68043300933B6D7A6D07F110
:101A0000340103C912F016FAF866FB6E002B6CD095
:101A1000BB6800225A6068E0BB681B68FB65BB6856
:101A20005B68BB65BB6804330093BB6DFA6D07F15F
:101A3000340103C912F070FAF866FB6E002B56D021
:101A4000BB6800225A6052E007F1340393E80300B8
:101A500014F090F9F8664BE0BB681B683B6607F131
:101A60001003184601F00CF9BB681B68002B03D06B
:101A7000BB685B68032B02D86FF0800339E007F185
:101A8000100307F1180207F1340103C912F058FBE3
:101A9000F866FB6E002B01D0FB6E2AE03A693B6EC4
:101AA0001A6025E0BB681B687B66BB681B68002B5F
:101AB00003D0BB685B68032B02D86FF0800318E08B
:101AC00007F1340207F118031146184613F0C6FE59
:101AD000F866FB6E002B01D0FB6E0AE07A6B7B6E22
:101AE0001A6005E06FF0850303E000BF00E000BF6F
:101AF000FB6E18467037BD4680BD00BF80B500AF95
:101B00000F22034903481DF060FA024B184680BDBE
:101B1000445300008085002080B500AF4FF402518F
:101B2000044803F09FFD044810F082FE002318468D
:101B300080BD00BF94850020E92C000080B58AB0EC
:101B400002AF78607B681B69082B03D17B689B69B7
:101B5000042B02D06FF080032FE07B68586807F1F8
:101B600010020823002110F0CFFBF861FB69082B5D
:101B700002D06FF0800320E07B68586807F10C0208
:101B80000423022110F0C0FBF861FB69042B02D092
:101B90006FF0800311E07B685B69BB617B685B6809
:101BA000084A13607B689868D7E90423F9680191B3
:101BB000B969009100F002FA034618462037BD4685
:101BC00080BD00BF14A6002090B58FB004AF786030
:101BD0007B681B69082B03D17B685B69042B02D0EF
:101BE0006FF0800334E07B68586807F11002082327
:101BF000002110F089FB78627B6A082B02D06FF01D
:101C0000800325E07B68586807F10802042301215E
:101C100010F07AFB78627B6A042B02D06FF08003AD
:101C200016E07B681B6A3B627B685B680A4A13604C
:101C30007B689C68D7E90423B96807F10C0002901F
:101C4000386A01900091204600F05EFAF861FB6965
:101C500018462C37BD4690BD14A6002080B582B032
:101C600000AF78607B681B68A3F2E933032B1FD8B1
:101C700001A252F823F000BF891C0000931C000051
:101C80009D1C0000A71C00007868FFF757FF034663
:101C900010E07868FFF798FF03460BE0786801F0E2
:101CA000A2F8034606E0786801F0D5F8034601E0A3
:101CB0006FF0850318460837BD4680BD80B582B0F9
:101CC00000AF78603960064B18683B687A6801217C
:101CD00010F01AFB034618460837BD4680BD00BF0A
:101CE00014A6002080B582B000AF78603960054B43
:101CF00018683B687A68002110F01EFB00BF0837A7
:101D0000BD4680BD14A6002080B483B000AF7860CB
:101D10007B68B3F5807F01D1044B00E0044B18468B
:101D20000C37BD465DF8047B704700BF48AE00200D
:101D300030AE002080B584B000AF1C4B9B6A984742
:101D400003461B69042B02D06FF080032AE0174B77
:101D50009B6A984703469B68154A9360134B9B6A9E
:101D6000984703461A7D124B1A763B1D18460BF016
:101D70007BFA0346002B02D06FF0800312E07B68F1
:101D80000B4A53600A4B9B683A7B02FB03F3084AF9
:101D9000D360BA68064BDB68B2FBF3F39AB2044B2C
:101DA0001A82002318461037BD4680BD6417010013
:101DB000202D002080B584B000AF1C4B9B6A984753
:101DC00003461B69042B02D06FF080032AE0174BF7
:101DD0009B6A984703469B68154A9360134B9B6A1E
:101DE000984703461A7D124B1A763B1D18460BF096
:101DF0001FFA0346002B02D06FF0800312E07B68CD
:101E00000B4A53600A4B9B683A7B02FB03F3084A78
:101E1000D360BA68064BDB68B2FBF3F39AB2044BAB
:101E20001A82002318461037BD4680BD6417010092
:101E30003C2D002080B582B000AF00237B60FFF70F
:101E400079FF78607B68002B01D07B6851E02B4ADA
:101E50002B492C4801F054F978607B68002B01D0A5
:101E60007B6846E0274801F076F978607B68002BB4
:101E70000FD025481DF0ACF9224801F097F97860A1
:101E80007B68002B01D07B6833E01E4801F063F9CA
:101E900078607B68002B01D07B682AE0FFF78AFF1F
:101EA00078607B68002B01D07B6822E0134A1749D9
:101EB000174801F025F978607B68002B01D07B681A
:101EC00017E0134801F047F978607B68002B0FD0CA
:101ED00010481DF07DF90E4801F068F978607B68C4
:101EE000002B01D07B6804E0094801F034F97860E8
:101EF0007B6818460837BD4680BD00BFB053000060
:101F0000202D002030AE0020545300003C2D002036
:101F100048AE00207C53000080B584B000AFC7E914
:101F200002017A60D7E90223134302D16FF08603DE
:101F300017E03B1D042219460C481DF046F80C48DA
:101F400007F10803082219461DF03FF87B68184680
:101F5000FFF7DAFE0346074A0449184601F032F952
:101F6000034618461037BD4680BD00BF18A60020A6
:101F70001CA6002024A6002080B588B002AFF8601F
:101F8000B9607A603B607B6A7B61F868FFF7BCFEF2
:101F90007B6901933B6A00933B68074AB96801F08B
:101FA00035F938613B69002B01D03B6900E0002323
:101FB00018461837BD4680BD24A6002080B58AB0DB
:101FC00002AFF860C7E90023D7E90023134302D129
:101FD0006FF0860354E0FB6A072B02D96FF085038C
:101FE0004EE0FA68D7E90001FFF796FFB861BB69D8
:101FF000002B08D1244B9B6803F00103002B08D071
:102000006FF084033CE0BB6913F18C0F01D0BB6916
:1020100036E01D4ABB6A5360FB6A43F440331A4AF8
:1020200093600023FB61BB6AB3F5006F28BF4FF4D8
:1020300000637B6179691548FFF740FE134B0193FC
:10204000FB6900937B69104A1149F868FFF794FF18
:10205000B861BB69002B01D0BB6911E00A4B9B68DA
:1020600023F44033084A9360FA697B691344FB61A7
:10207000BA6A7B69D31ABB62BB6A002BD3D1BB6936
:1020800018462037BD4680BD24A6002030A600207B
:1020900018A6002080B588B002AFF860B9607A60F9
:1020A0003B607B68B3F5006F28BF4FF400637B6132
:1020B000F868FFF729FE124B0093BB687A69114953
:1020C00001F0FEFA38613B69002B04D03B68002226
:1020D0001A603B690FE079690948FFF703FEBA68A7
:1020E0007B691344BB607A687B69D31A7B607B6829
:1020F000002BD6D1002318461837BD4680BD00BF3F
:1021000030A6002018A6002080B586B000AFF86089
:10211000C7E90023D7E90023134302D16FF08603F8
:1021200025E0FA68D7E90001FFF7F6FE78617B69E0
:10213000002B01D07B691AE00F4B1B683A6A9A4268
:1021400002D96FF0860312E00B4B1A683B6AD31A70
:102150007A6A934228BF13467B62BB6A7A6A1A6026
:10216000BB6A7A6A396AF868FFF794FF0346184633
:102170001837BD4680BD00BF24A6002080B586B0BC
:1021800000AFF860C7E90023FA68D7E90001FFF75C
:10219000C3FE78617B69002B01D07B690CE0084BA2
:1021A0001A683B6A1A60064B1A683B6A5A60044B0D
:1021B0009A683B6A9A60002318461837BD4680BD6E
:1021C00024A6002080B586B000AFF860C7E90023E0
:1021D000FA68D7E90001FFF79FFE78617B69002B61
:1021E00001D07B6911E00B4B9B6803F00103002BCE
:1021F00002D06FF0840308E0F868FFF785FD03461E
:102200000549184601F03FFA034618461837BD46FF
:1022100080BD00BF24A6002018A6002080B58CB089
:1022200000AFF860B9607A603B600023BB62FB6876
:102230001B685B68984703463B613B7CC3F34103E3
:10224000DBB21A464A4B53F8223087F8273097F80A
:102250002730BA68B2FBF3F397F8272002FB03F3A9
:102260003B623B68FB623A6ABB689A422FD0FB68CC
:102270001B685B6907F114010122386A9847F8610D
:10228000FB69002B02DA6FF091036CE0BA683B6ADD
:10229000D21A3B681A4497F827309A4206D397F827
:1022A0002720396ABB68CB1A134400E03B68BB6245
:1022B000BA683B6AD31A07F114021344BA6A194682
:1022C00078681CF082FEFA6ABB6AD31AFB62FB6A6A
:1022D000002B2AD097F82730FA6AB2FBF3F3BB61E0
:1022E000BB69002B21D0FB681B685B69B968BA6ABF
:1022F00088187968BA6A1144BA699847F861FB6925
:10230000002B02DA6FF091032DE097F82730BA69BD
:1023100002FB03F3BA6A1344BB6297F82730BA6929
:1023200002FB03F3FA6AD31AFB62FB6A002B19D093
:10233000FB681B685B69B968BA6A881807F1140101
:1023400001229847F861FB69002B02DA6FF09103D4
:1023500009E07A68BB6A134407F11401FA6A184667
:102360001CF033FE002318463037BD4680BD00BF49
:10237000A453000080B588B000AFF860B9607A60FF
:102380003B60FB681B685B68984703463B613B7C8E
:10239000C3F34103DBB21A460F4B53F82230FB77ED
:1023A0003A68B968F86800F083FDB861FB681B689B
:1023B0009B69FA7FB96AB1FBF2F27968B86998470C
:1023C00078617B69002B02DA6FF0910300E0002353
:1023D00018462037BD4680BDA453000080B582B0AA
:1023E00000AF78607B681B68A3F2F233032B1FD821
:1023F00001A252F823F000BF0924000013240000BA
:102400001D24000027240000786802F0DAFB034650
:1024100010E0786802F05BFC03460BE0786802F09D
:10242000C5FB034606E0786802F0C4FC034601E001
:102430006FF0850318460837BD4680BD90B5ADF5F1
:102440005D7D02AF07F55A74A4F55774206007F557
:102450005A70A0F55870016007F55A71A1F55971CD
:102460000A6007F55A72A2F55A72136007F557739E
:10247000184602F078FE07F55A73A3F557731B68E8
:1024800003F1240207F555731146184602F0D0FDFA
:10249000D7F8542307F5537340F20311184600F0A0
:1024A0002DFC07F55A73A3F54473184602F071FD2D
:1024B00007F55A73A3F54B731A4600231360536054
:1024C0009360D36013615361936107F55A73A3F569
:1024D00054731A460023136053609360D3601361F2
:1024E0005361936107F13C0341F20101184602F088
:1024F00012FE07F55A73A3F55A731B68DA0007F149
:102500003C031146184602F015FE07F13C03012179
:10251000184602F0D6FD07F118034FF48041184623
:1025200002F0CFFD07F118034949184602F0E5FD16
:1025300007F118034FF49051184602F0ECFD07F52F
:102540005A73A3F55773196807F55A73A3F55773B0
:102550001B681A6A07F5537307F1180011F010FD94
:10256000C7F86403D7F86433002B50D107F1580340
:102570003749184612F096FFC7F86403D7F864335A
:10258000002B46D107F1580007F553730CCB40F2EE
:10259000011113F02BF8C7F86403D7F86433002B4C
:1025A00039D107F1080207F15800042340F2032152
:1025B00012F0CCFFC7F86403D7F86433002B2CD19A
:1025C00007F5577207F1580107F13C03184612F05E
:1025D00063FEC7F86403D7F86433002B1FD107F5F7
:1025E0005A73A3F55A7307F55A72A2F55972D7F8C0
:1025F000781300911B68126807F5577103C911F031
:1026000019FCC7F86403D7F86433002B08E000BF57
:1026100006E000BF04E000BF02E000BF00E000BF32
:1026200007F15803184612F0C3FD07F5537393E8FA
:10263000030011F075FB07F5577393E8030011F0E1
:102640006FFBD7F86433184607F55B77BD4690BD3E
:102650000901000890B5A5B004AF6FF09603FB67C1
:1026600000233B6607F1600318460FF0E9FE786728
:102670000023BB67A5E03A6EBB6F5B0113441B6987
:10268000564A934240F099803A6EBB6F5B01134407
:10269000D3E90223C7E91A233A6EBB6F5B011344E7
:1026A0001A6807F128030021184600F027FB07F1FC
:1026B0000C0300221A605A609A60DA601A615A614B
:1026C0009A613A6EBB6F5B0113445C693A6EBB6FF3
:1026D0005B011344986907F13C0207F1400107F1DF
:1026E0003203029307F13403019307F13A03009395
:1026F00013462022A04778667B6E002B03D06FF034
:102700009203FB6764E007F10C0007F1280393E8EC
:10271000060002F06BFC7B8F1A4607F10C03114692
:10272000184602F007FD7A6B07F10C0311461846B4
:1027300002F0E3FC7A8E07F10C031146184602F012
:10274000EAFC3A6EBB6F5B0113441A6907F10C0394
:102750001146184602F07EFCBA6E13461B01134464
:102760009B0020331E4A1344043307F10C011C2242
:1027700018461CF02AFCBA6E13461B0113449B003A
:10278000174A1344FA6B07F1400118461CF01DFC70
:10279000F96B1348BA6E13461B0113449B000344A4
:1027A000203319600E49BA6E13461B0113449B0077
:1027B0000B44403301221A6000E000BFBB6F0133BD
:1027C000BB67BA6F7B6F9A42FFF455AF0023FB677C
:1027D000FB6F18468437BD4690BD00BF01010080E5
:1027E00060AE002080B588B000AF07F1080383E831
:1027F00003007A607B68002B03D16FF08603FB61D6
:102800001DE07B6800221A60BB6807F110021146C8
:10281000184602F0B6FCF861FB69002B0ED1D7E92F
:102820000423094913461B0113449B000B44203326
:102830001A687B681A600023FB6100E000BFFB6937
:1028400018462037BD4680BD60AE002080B58CB0F4
:1028500002AFC7E902017A603B60BB68012B03D974
:102860006FF086037B625FE0BA6813461B01134476
:102870009B00304A13443B623B6A1B6C002B03D124
:102880006FF08B037B624FE07B68002B03D16FF00E
:1028900086037B6248E007F114037968184602F06A
:1028A000C7FBB9697A697B68386A02F0B1FC786263
:1028B0007B6A002B37D13B6A1B6A3A6B9A4203D280
:1028C0006FF089037B622FE03B68002B02D07B6BAB
:1028D000002B03D16FF086037B6225E0BB69FB61AF
:1028E000786802F0FEFB034603F48043002B0ED011
:1028F000FB6940F20312934209D07B6B00933B6B60
:102900003A68F969386AFFF799FD78620CE0396A2C
:102910003B6A1B6A1A4638681CF057FB3B6A1A6A06
:102920007B6B1A6000E000BF7B6A18462837BD4603
:1029300080BD00BF60AE002080B582B000AF78607F
:102940007868FDF7CDFC00BF0837BD4680BD80B577
:1029500082B000AF78607868FDF7D6FC0346184671
:102960000837BD4680BDB0B588B000AFF860B9602B
:102970007A603B6000237B610123FB612EE0FB68F2
:10298000FA69043253F8223007F11402114618464E
:10299000FDF7CEFCB861BB69002B03D0FDF704FD49
:1029A000BB694DE0FB6858687969FB68FA690432D5
:1029B00053F82250FB69DB00BA68D4182B460A464C
:1029C000F9690FF0A1FC03466360FB69DB00BA689C
:1029D00013447A691A60FB690133FB61FA697B6809
:1029E0009A42CCD30023FB6125E0FB68FA690832E8
:1029F00053F8223007F1140211461846FDF798FCEF
:102A0000B861BB69002B03D0FDF7CEFCBB6917E0B2
:102A1000FB69DB003A6813447A691A60FB69DB00E2
:102A20003A681344FA68F969083152F821205A606B
:102A3000FB690133FB61FA693B6B9A42D5D30023F2
:102A400018462037BD46B0BD80B5A8B002AF78604B
:102A50000023C7F888300423C7F894300423C7F84C
:102A6000903007F168032022002118461CF0F4FA88
:102A700007F148032022002118461CF0EDFA07F167
:102A800008034022002118461CF0E6FA04E0D7F8BB
:102A90009430013BC7F89430D7F89430002B0ED017
:102AA000D7F894305A1E7B68043253F82230002B3A
:102AB000EDD004E0D7F89030013BC7F89030D7F85C
:102AC0009030002B08D0D7F890305A1E7B6808321F
:102AD00053F82230002BEDD0D7F89430002B02D1E0
:102AE0006FF0830360E07B68586807F108024023B9
:102AF00000210FF009FC0346402B02D06FF0830346
:102B000052E007F10803BB664023FB6607F1480269
:102B100007F16801D7F8903000931346D7F8942056
:102B20007868FFF720FFC7F88800D7F88830002BB7
:102B300002D0D7F8883037E07B689B681846FFF7EB
:102B4000FBFE07F1480207F16800D7F89030D7F88C
:102B50009410FDF747FCC7F888000023C7F88C30B5
:102B600018E07B685868D7F88C30DB0098333B441A
:102B700053F8502CD7F88C30DB0098333B4453F893
:102B80004C3CD7F88C100FF0D7FBD7F88C300133C2
:102B9000C7F88C30D7F88C20D7F890309A42E0D321
:102BA000FDF702FCD7F8883018469837BD4680BD3F
:102BB00080B582B000AF6FF083037B6000233B6081
:102BC000FEF79CFF3860FEF7A7FF78607B68002B5C
:102BD00001D07B6802E012F007FF03461846083771
:102BE000BD4680BD80B500AFFDF7DCFC034618464E
:102BF00080BD80B582B000AFFFF7F4FF78607B68DE
:102C0000002B01D07B6808E0FFF7D2FF78607B687B
:102C1000002B01D07B6800E0002318460837BD4632
:102C200080BD80B582B000AF78607B681B68002BE8
:102C300004D17868FFF708FF034601E06FF08503D1
:102C400018460837BD4680BD80B485B000AFF86037
:102C5000B9607A606FF0850318461437BD465DF899
:102C6000047B704780B485B000AFF860B9607A60CB
:102C70006FF0850318461437BD465DF8047B704736
:102C800080B582B000AF78607B68002200211846D2
:102C900000F034F878680837BD4680BD80B584B050
:102CA00000AF786039603B681B68FB603B685B681D
:102CB000BB60B968F86812F0A3FD034618461037E8
:102CC000BD4680BD80B487B000AFF860B9607A605F
:102CD000FB687A681A60FB68BA685A60F8681C3743
:102CE000BD465DF8047B70470FB480B400AF00238D
:102CF0001846BD465DF8047B04B0704780B584B0CB
:102D000000AFF860B9607A60FB687A68B968184605
:102D1000FFF7D8FFF8681037BD4680BD80B483B098
:102D200000AF786039603B687A689A6100BF0C3701
:102D3000BD465DF8047B704790B589B000AF07F1E0
:102D4000080484E803007A603B6000237B6107F19C
:102D5000140318460FF074FBB8610023FB611CE0FC
:102D60007A69FB695B0113441A68BB689A4211D106
:102D70007A69FB695B0113441A697B681A607A6996
:102D8000FB695B011344D3E902233968C1E90023DD
:102D9000002308E0FB690133FB61FA69BB699A42D1
:102DA000DED36FF08B0318462437BD4690BD80B448
:102DB00085B000AFF860B9607A606FF0850318469F
:102DC0001437BD465DF8047B704780B485B000AF12
:102DD000F860B9607A606FF0850318461437BD4615
:102DE0005DF8047B704780B58CB002AF78607B687B
:102DF0001B69082B03D17B681B6A0C2B02D06FF078
:102E0000800324E07B68586807F11802082300213A
:102E10000FF07AFA78627B6A082B02D06FF0800399
:102E200015E07B689868D7E9062307F10C0100914B
:102E3000FFF7A4F938623B6A002B07D17B6858681A
:102E400007F10C020C2300210FF076FA3B6A1846BA
:102E50002837BD4680BD80B586B000AF78607B68FE
:102E60001B69082B02D06FF0800316E07B6858685E
:102E700007F10802082300210FF046FA78617B6908
:102E8000082B02D06FF0800307E07B689968D7E9D0
:102E900002230846FFF796F9034618461837BD4641
:102EA00080BD80B500AFFEF7C5FF0346184680BD64
:102EB00080B485B000AFF860B9607A60FB685A688A
:102EC000FB68DB68B96801FB03F31A447B681344B1
:102ED00018461437BD465DF8047B704780B584B052
:102EE00000AF78607B681B689B6800209847F8609B
:102EF000FB68002B02D06FF0910300E0002318461E
:102F00001037BD4680BD80B586B000AFF860B960AF
:102F10007A603B603B6A002B01D100230CE03A68E9
:102F2000B968F868FFF7C4FF78613B6A7A68796925
:102F3000F868FFF773F9034618461837BD4680BD99
:102F400080B483B000AF78603960002318460C3736
:102F5000BD465DF8047B704780B586B000AF7860F1
:102F6000396000237B6116E07A6939687868FFF779
:102F70009FFF38617B681B68DB6938699847F86098
:102F8000FB68002B02D06FF091030AE07B689B681E
:102F90007A6913447B617B68DB687A699A42E3D380
:102FA000002318461837BD4680BD80B586B002AFF5
:102FB000F860B9607A603B60FB681B685B8A013B24
:102FC0001A463B681340002B02D06FF086032CE0BA
:102FD000FB681B685B8A1A46BB691344013BFA68AD
:102FE0001268528A52421340BB617B689B683A6800
:102FF0009A4202D96FF0860317E07B68DB68BA69F2
:103000003968184601F092FD0346002B02D06FF09C
:1030100086030AE0FB690193BB6900933B687A6809
:10302000B968F86800F04AFC034618461037BD46F8
:1030300080BD80B483B000AF78607B681B8A022BB0
:1030400001D1012302E07B681B8A023B18460C3742
:10305000BD465DF8047B704780B582B000AF7860F4
:103060007868FFF7E6FF024613465B0013449B00B7
:103070001A467B68DB8A5B0113440833184608371D
:10308000BD4680BDB0B584B000AF78600023FB6062
:103090007B681B8A012B03D97B681B8A032B02D117
:1030A0006FF08603FB607B681B8A022B0ED17B6866
:1030B0009B8A1D467B68DC687868FFF7CDFF034676
:1030C000E31A9D4202D96FF08603FB607B689B8AFE
:1030D0001A467B68DB689A4202D96FF08603FB6070
:1030E0007868FFF7B9FF02467B68DB689A4202D92D
:1030F0006FF08603FB60FB6818461037BD46B0BD15
:1031000080B586B000AFF860B9607A60FB68002BCC
:1031100005D0BB68002B02D07B68002B02D16FF07A
:10312000860314E0B868FFF7ADFF78617B69002B78
:1031300001D07B690BE018220021F8681BF08CFF9E
:10314000FB68BA681A60FB687A685A600023184600
:103150001837BD4680BD80B584B000AF7860786810
:1031600001F0D4F9F860FB68002B01D0FB6819E08E
:1031700007F108031A464FF08071786801F095F95D
:10318000F860FB68002B06D1BB681946786800F030
:10319000ADF9034606E0FB6813F18C0F01D0FB6824
:1031A00000E0002318461037BD4680BD80B582B0D0
:1031B00000AF7860786801F0CFFA03461846083708
:1031C000BD4680BD80B58EB000AFF860B9607A6052
:1031D00007F1100307F13002B968F86801F020F92F
:1031E00078637B6B002B02D06FF08B030AE0FA69E7
:1031F0007B685A60BA697B681A603B6A9AB27B68DE
:103200009A60002318463837BD4680BD80B59AB015
:1032100004AFF860B9607A603B6007F11C032022BC
:10322000002118461BF018FF4FF6FF73BB614FF6E5
:10323000FF737B617B68002B02D16FF0860351E145
:103240007B689B68B3F1807F02D36FF0860349E10E
:103250007B685B68FA681268528A1344013BFA681B
:103260001268528A52421A407B685A6007F11C0366
:1032700007F11802B968F86801F0D2F878657B6D3B
:10328000002B27D17B689B6803F40033002B1ED0F2
:10329000BA6A7B685B689A4207D100237B627B68CD
:1032A0009B68FB62BB697B6123E0FB6A43F0807330
:1032B000FB62BB6907F11C021946F86801F08AFB42
:1032C00078657B6D002B14D06FF083030AE1BB6936
:1032D0007B610EE07B6D13F18C0F08D17B689B68DE
:1032E00003F48033002B04D16FF08B03FAE07B6D85
:1032F000F8E07B694FF6FF7293422ED17B685B68E2
:10330000FA681268928A934202D96FF08603E9E064
:10331000BB694FF6FF72934214BF0123002387F865
:103320004F307B6858687B689B6897F84F1007F1AF
:103330003C02039207F11C02029207F1140201926F
:10334000009303460A46B968F86801F0D9F9786530
:103350007B6D002B0FD07B6DC4E0FB6907F13C0255
:103360001946F86801F081F978657B6D002B02D071
:103370006FF08303B6E03B68002B2BD007F11C02F3
:1033800007F13C017B6E01933B6800933B6EF8684C
:10339000FFF70BFE78657B6D002B02D06FF0830387
:1033A000A0E03A6E3B681A447B6A9A4203D93A6EAF
:1033B0003B6813447B62FB6BBB64FB691946F8688E
:1033C00001F01BF80346FB63FB691A46B96CF86809
:1033D00001F0CCFAFB6907F13C021946F86801F0EC
:1033E000D7FA78657B6D002B02D06FF0830379E00C
:1033F0007B6907F11C021946F86801F0EBFA786561
:103400007B6D002B02D06FF083036BE0BA697B69A0
:10341000934228BF13463B653A6D0021F86800F0DF
:10342000C8FF78657B6D002B02D06FF0830359E0F5
:10343000BB694FF6FF7293421BD0BA697B699A420F
:1034400017D03B6D591CBA697B69934238BF13464C
:103450001A46F86800F0ADFF78657B6D002B02D04E
:103460006FF083033EE0BA697B69934238BF13462D
:103470003B653B6D591CFB681B68DB8A1A46F86884
:1034800000F097FF78657B6D002B02D06FF083030F
:1034900028E0FB69002B02D13B68002B09D1F868BA
:1034A00001F092F878657B6D002B02D06FF08303FA
:1034B00018E0F86801F061F878657B6D002B01D0A9
:1034C0007B6D0FE0BB694FF6FF72934209D0BA697A
:1034D0007B699A4205D0BB691946F86800F006F886
:1034E00078657B6D18465837BD4680BD80B59EB067
:1034F00002AF786039607B681B68DB68BB660023BD
:103500007B6607F134031A463968786801F088F859
:10351000F866FB6E002B01D0FB6EB0E007F13403C0
:103520001433184601F01FFB0346002B02D06FF046
:103530008B03A4E07B6BFB65BB6BBB653B6C7B6566
:1035400007F134032022002118461BF085FD07F106
:1035500034031A463968786801F03CFAF866FB6E65
:10356000002B01D0FB6E8AE000233B6640E03A6E00
:103570003B689A4238D007F134031A46396E7868AE
:1035800001F04EF8F866FB6E002B01D0FB6E76E082
:103590007B6BFA6D9A421AD107F134031433184643
:1035A00001F0E1FA0346002B11D1BB6BBA6D9A42D0
:1035B0000DD2BB6BBA6E9A4201D9BB6BBB66BA6BBC
:1035C0007B6DD31ABB633B6C7A6E13447B6607F149
:1035D00034031A46396E786801F0FCF9F866FB6E20
:1035E000002B02D0FB6E4AE000BF3B6E01333B660E
:1035F0007B681B68DB8A1A463B6E9342B7D37B6DB0
:10360000002B15D107F128031A460021786801F034
:103610002CF8F866FB6E002B01D0FB6E2FE007F153
:1036200028031A460021786801F0B2F9F8660AE02A
:103630007B6E0193BB6D0093BB6E7A6DF96D7868FC
:1036400000F08DF8F866FB6E002B01D0FB6E16E0E3
:103650007B6D002B02D0FB6D002B02D17B6D002B0C
:1036600009D1786800F0B0FFF866FB6E002B02D03D
:103670006FF0830303E0786800F07FFF034618468D
:103680007037BD4680BD80B584B000AF78603960CA
:1036900007F1080200233968786800F0C1FEF8607D
:1036A000FB68002B02D06FF08B0305E0BB68194666
:1036B0007868FFF71BFF034618461037BD4680BDEC
:1036C00080B590B002AFF860B9607A603B6007F1F6
:1036D000100307F13002B968F86800F0A1FE7863C2
:1036E0007B6B002B02D06FF08B031CE0BB697A6808
:1036F0003968184601F01AFA78637B6B002B01D009
:103700007B6B10E007F110013B6C00937B683A681B
:10371000F86800F0A9F878637B6B002B02D06FF09B
:10372000830300E0002318463837BD4680BD80B5CE
:1037300086B000AF7860396007F108031A4639682F
:10374000786800F092FF78617B69002B02D04FF01F
:10375000FF3300E0BB6818461837BD4680BD90B502
:103760008DB002AFF860B9607A603B600023FB6106
:10377000002387F8233007F110031A46B968F86868
:1037800000F073FF78627B6A002B01D07B6A67E0F0
:10379000BA697B681344BB61B968F86800F02DFE14
:1037A000F861FB6B002B14D03A69FB6B01933B680B
:1037B00000931346BA6BF969F86801F027F978624B
:1037C0007B6A002B02D06FF0830349E0012387F866
:1037D00023307B69BA6B9A4217D978693C697B6957
:1037E0007A69B96B8A1A0192009323460246F969F5
:1037F000F86801F00BF978627B6A002B02D06FF059
:1038000083032DE0012387F823303B69BA6819460A
:10381000F86801F0ABF8FB693B6107F110031A4649
:10382000B968F86801F0B4F878627B6A002B06D0BA
:10383000BA68F969F86801F099F87B6A10E0BB682A
:10384000002B0CD097F92330002B08D0FB685B6865
:10385000DB68FA681268F9691046984778627B6AF3
:1038600018462C37BD4690BD90B589B002AFF860C0
:10387000B9607A603B60BB681B681946F868FFF75F
:1038800056FF78617B69B3F1FF3F02D16FF083038C
:1038900010E0BB685B687A6813443B61FB685B6857
:1038A0005C68FB6818683B6800933B69BA6A796991
:1038B000A047034618461C37BD4690BD90B58BB057
:1038C00002AFF860B9607A603B607B681B6819469C
:1038D000F86800F092FDB8617B685B683A68134451
:1038E0007B61BB685868BB681C68BB685B68BA686A
:1038F000526879698A1A0192009323460246B9698F
:10390000F86801F083F8F861FB69002B01D0FB69CE
:103910003FE0FB685B689C68FB6818683B6B009342
:103920007B697A6BB969A047F861FB69002B01D00C
:10393000FB692EE07B685A687B68DB6813447B6117
:10394000FB681B68DA68BB689B68D21A7B69D31A6C
:103950003B61BB681A683B6901937B69009313461E
:103960007A69B969F86801F051F8F861FB69002BD0
:1039700001D0FB690DE07B681B68002B08D0FB6859
:103980005B68DB68FA681268B96910469847F861A5
:10399000FB6918462437BD4690BD80B485B000AFA2
:1039A00078607B681B681B8A022B0FD07B681B68C2
:1039B0001B8A1A467B68FB60FB681B681B8A022B0C
:1039C00001D1002300E00323D31A00E000231846AE
:1039D0001437BD465DF8047B704780B483B000AFF8
:1039E00078607A6813465B0013449B0008331846DE
:1039F0000C37BD465DF8047B704780B584B000AFDE
:103A0000786039607B68FB60F868FFF7C6FF0346A3
:103A10005A1C13465B0013449B001A463B685B012B
:103A20001344083318461037BD4680BD80B485B0B6
:103A300000AF78607B685B69FB607B681A697B68B4
:103A40005A617B68FA681A6100BF1437BD465DF899
:103A5000047B704780B487B000AFF860B9607A60CB
:103A6000BB689B797B757B689B793B75FB681B68A2
:103A70001B7E002B02D10123FB7501E00023FB75A7
:103A80003A7DFB7D9A4207D17A7DFB7D01339A42D4
:103A900002D00123BB7514E07A7DFB7D9A4207D1E9
:103AA0003A7DFB7D01339A4202D00023BB7508E0CA
:103AB0003A7D7B7D9A4202D90123BB7501E0002348
:103AC000BB75BB7D18461C37BD465DF8047B70474F
:103AD00090B585B000AF786039603B681C687B6842
:103AE000BB60B868FFF759FF034601339C4202D31D
:103AF0006FF097033FE03B681433184601F033F84A
:103B00000346002B36D13B68DB687A681268928ADC
:103B1000934202D96FF097032DE03B689A683B68A7
:103B2000DB689A4202D96FF0970324E03B681B6878
:103B3000002B0ED13B685C687B681B68DB8A1946EA
:103B40007868FFF75AFF03469C4202D26FF0970352
:103B500011E07B681B68D8683B6859683B68DB6884
:103B60001A4600F0E3FFF860FB68002B02D06FF00C
:103B7000970300E0002318461437BD4690BD80B57A
:103B800084B000AF786039600023FB603B681B683D
:103B90007A681268128A934202D36FF0970329E081
:103BA0007B681B68D8683B6859683B689B681A4605
:103BB00000F0BCFFB860BB68002B02D06FF0970329
:103BC00018E03B681B68002B03D03B681B68012B87
:103BD00007D17B681B68DB8A19467868FFF70DFF01
:103BE000F8603B685B68FA689A4202D06FF097030E
:103BF00000E0002318461037BD4680BD80B586B072
:103C000000AF7860396000237B613B681B687A688D
:103C10001268128A934202D36FF0970334E07B68F4
:103C20001B68D8683B6859683B689B681A4600F077
:103C30007DFF38613B69002B02D06FF0970323E0D2
:103C40003B681B68002B03D03B681B68012B12D11B
:103C50007B68FB60F868FFF7A0FE03465A1C13461A
:103C60005B0013449B001A467B681B68DB8A5B0180
:103C7000134408337B613B685B687A699A4202D0DF
:103C80006FF0970300E0002318461837BD4680BD4B
:103C9000B0B594B002AFF860B9607A60002387F8DD
:103CA0003F30BB68002B02D0BB68012B02D17B6880
:103CB000002B02D16FF0860374E000237B642BE0BD
:103CC000FB685B685C68FB681D68786CFFF785FEC5
:103CD000034607F114020C210091B9682846A04759
:103CE000B863BB6B002B01D0BB6B5BE000233B6474
:103CF0000CE007F114023B6C13441A7897F83F303C
:103D0000534087F83F303B6C01333B643B6C0B2BDB
:103D1000EFD97B6C01337B64FB687B63786BFFF7C7
:103D20003CFE034601337A6C9A42C9D300237B647C
:103D30002CE0FB685B685C68FB681D68796CF86860
:103D4000FFF75BFE034607F1140220210091B968DA
:103D50002846A047B863BB6B002B01D0BB6B21E0AA
:103D600000233B640CE007F114023B6C13441A7807
:103D700097F83F30534087F83F303B6C01333B644A
:103D80003B6C1F2BEFD97B6C01337B64FB681B689A
:103D9000DB8A1A467B6C9342CBD37B6897F83F2033
:103DA0001A70002318464837BD46B0BD80B586B0AE
:103DB00000AFF860B9607A6007F113031A467968BA
:103DC000F868FFF765FF78617B69002B01D07B699C
:103DD00008E0BB685A79FB7C9A4202D06FF09103ED
:103DE00000E0002318461837BD4680BD80B58CB072
:103DF00000AF78600B46FB700023FB6224E007F104
:103E000008031A46F96A786800F00AFCB862BB6ACF
:103E1000002B02D04FF6FF731FE007F108031433A5
:103E2000184600F0A0FE0346002B0AD0FB7883F072
:103E30000103DBB2002B02D00123FB7001E0FB6A1F
:103E40000BE0FB6A0133FB627B681B68DB8A1A4666
:103E5000FB6A9342D3D34FF6FF7318463037BD4603
:103E600080BD80B584B000AF78607B685B681B69FB
:103E70007A6810687A68526911469847F860FB685A
:103E8000002B01D0FB6813E07B681B681B8A022BA8
:103E90000DD90121786800F0B0FAB8607B685B68E2
:103EA0001B697A681268B96810469847F860FB6821
:103EB00018461037BD4680BD90B589B002AFF86096
:103EC000B9607A60B868FFF788FD7861FB685B6865
:103ED0009C68FB681868FB6859690C2300937B6930
:103EE0007A68A047034618461C37BD4690BD80B58A
:103EF0008CB002AF786039607B685B697B627B68FD
:103F00001B693B623B68002B3BD007F108031A4654
:103F10000021786800F0A9FBF861FB69002B02D052
:103F20006FF0830346E07B6ABB6007F108031A4623
:103F300000217868FFF7C0FFF861FB69002B02D011
:103F40006FF0830336E03B68012B1AD90120FFF79D
:103F500044FDB8613868FFF740FD0246BB69D31ADB
:103F60007B617B690193BB6900933B6ABA69796A9B
:103F7000786800F04BFDF861FB69002B01D0FB690C
:103F800018E03B6801331846FFF727FDB8610021B0
:103F90007868FFF732FD0246BB69D31A7B617B6903
:103FA0000193BB6900933B6ABA69796A786800F04B
:103FB0002DFD034618462837BD4680BD80B58CB020
:103FC00000AFF860B9607A600023BB75BB681B79ED
:103FD00087F82B3007F116037B6297F82B30012B03
:103FE00004D17B6A01221A7000230AE097F82B3073
:103FF000022B04D17B6A00221A70002301E06FF0CB
:104000008303FB62FB6A002B01D0FB6A31E0BB7DBE
:10401000002B11D0BB685A79FB683B621346FB77D3
:104020003B6A1B681B7EFA7F9A4202D16FF08303C2
:1040300000E00023FB621BE0BB689A79FB68BB6170
:104040001346FB75BB691B681B7EFA7D9A4202D141
:104050006FF0830300E00023FB62FB6A002B01D0BA
:10406000FB6A06E07A68B968F868FFF79FFEF862B5
:10407000FB6A18463037BD4680BD90B589B002AFA7
:1040800078607B689B7B0133DAB27B689A737B68CC
:104090009A7B7B683B611346FB733B691B681B7E05
:1040A000FA7B9A4202D16FF0830300E000237B6128
:1040B0007B69002B05D07B689B7B0133DAB27B6880
:1040C0009A737B6859697B680D331A467868FFF7E5
:1040D000DFFD78617B69002B01D07B690EE07B6896
:1040E0005B689C687B6818687B6859697B6803F12A
:1040F0000802082300930023A047034618461C37F4
:10410000BD4690BD90B58FB002AF78600023FB76BE
:104110007B681B7B87F8233007F11B03FB6197F853
:104120002330012B04D1FB6901221A7000230AE01D
:1041300097F82330022B04D1FB6900221A70002368
:1041400001E06FF08303FB62FB6A002B01D0FB6A86
:1041500041E0FB7E83F00103DBB2002B01D00023A2
:1041600039E007F10C031A460021786800F0A1FA43
:10417000F862FB6A002B01D0FB6A2CE07B681B68AD
:10418000DA687B69D31A083BBB627B685C690020F4
:10419000FFF723FC01467B681A69BB6A0193082379
:1041A000009313460A462146786800F02FFCF86217
:1041B000FB6A002B01D0FB6A0DE07B6808337B6251
:1041C0007B6A5A797B689A737B6802221A737868D3
:1041D00000F0D3F9034618463437BD4690BD90B57C
:1041E00087B002AF78607B685B685C687B68186842
:1041F0007B6819697B6803F1080208230093002398
:10420000A047F860FB68002B01D0FB6809E07B68E1
:1042100003F108017B681B691A467868FFF7CEFE38
:10422000034618461437BD4690BD80B588B000AF30
:10423000F860B9607A603B600023FB6136E0FA6A9F
:10424000F969F86800F011FAB861BB69002B02D077
:104250006FF0830336E0FB6A9B687A689A4222D843
:10426000BB6AFA691A60FB681B68DA68FB6A9B68BC
:10427000D21ABB6A5A60BB6A7A68DA60BB6A1433C6
:104280000C22B96818461AF0A0FEBB6A00229A6098
:10429000BB6A3A681A61FB6A9A687B68D21AFB6A41
:1042A0009A6000230EE0FB690133FB61FB687B61D0
:1042B0007869FFF772FB03460133FA699A42BED36D
:1042C0006FF08D0318462037BD4680BD90B58DB088
:1042D00002AF78604FF0FF337B62002387F8233012
:1042E0007B685B685C687B68186807F114020823C8
:1042F000009300230021A047F861FB69002B10D137
:1043000007F11403002219467868FFF757FE0346A9
:10431000002B06D197F82330013387F82330002390
:104320007B627B685B685C687B68186807F10C02DD
:104330000823009300230121A047F861FB69002BAB
:1043400010D107F10C03012219467868FFF736FEF9
:104350000346002B06D197F82330013387F823302A
:1043600001237B6297F82330012B0AD907F10C0255
:1043700007F1140319467868FFF76CFB03467B626C
:1043800006E097F82330002B02D16FF083030CE096
:104390007B687A6A1A617B6A002B0CBF01230023B9
:1043A000DBB21A467B685A61002318462C37BD469B
:1043B00090BD80B588B002AFF860B9607A60B96826
:1043C000F868FFF71AFB78617968F868FFF715FB62
:1043D0003861FB685969FB6818693A697B69D31AC7
:1043E00001937B69009303467A69F86800F00EFB3D
:1043F000034618461837BD4680BD80B483B000AF71
:10440000786039603B68002B02D17B685B6901E012
:104410007B689B6818460C37BD465DF8047B704787
:10442000B0B58EB000AFF860B9607A603B60002331
:104430007B632DE007F110031A46796BF86800F0F2
:10444000EFF838633B6B002B02D06FF0830328E05A
:1044500007F1100314330C22B96818461AF0E0FE75
:104460000346002B11D17B687A6B1A603B68002BE6
:1044700009D03B681D4607F110040FCC0FC594E826
:104480000F0085E80F0000230BE07B6B01337B639B
:10449000FB681B68DB8A1A467B6B9342CAD36FF0BA
:1044A0008B0318463837BD46B0BD80B58EB000AF1F
:1044B000F860B9607A6000237B631AE007F11003AB
:1044C0001A46796BF86800F0ABF838633B6B002B49
:1044D00002D06FF0830315E03A6ABB681340002BEB
:1044E00004D07B687A6B1A6000230BE07B6B01338E
:1044F0007B63FB681B68DB8A1A467B6B9342DDD3C8
:104500006FF08B0318463837BD4680BD80B584B048
:1045100000AF78607B685B681B687A681268104639
:104520009847F860FB68002B01D0FB6821E07868B1
:10453000FFF7CCFEF860FB68002B02D06FF083031E
:1045400017E07868FFF74BFEF860FB68002B02D09D
:104550006FF083030DE07868FFF783FCF860FB6879
:10456000002B02D06FF0830303E07868FFF7CAFDE9
:10457000034618461037BD4680BD80B584B000AFF5
:1045800078607868FFF779FDF860FB68002B01D050
:10459000FB6815E07B685B68DB687A6810687A689E
:1045A000526911469847F860FB68002B01D0FB6800
:1045B00006E07868FFF73AFA7868FFF752FC03469E
:1045C00018461037BD4680BD90B58BB002AF7860FD
:1045D00007F10C031A460021786800F046F8F861EC
:1045E000FB69002B01D0FB6916E07B681B68DA6869
:1045F0003B69D21A7B69D31ABB617B6859693869F8
:104600007B681C693B69BA690192009323460246A4
:10461000786800F0FBF9034618462437BD4690BD84
:1046200090B589B002AFF860B9607A60B968F8688F
:10463000FFF7E3F93861FB685B685C68FB68186842
:10464000FB681969202300933B697A68A047786169
:104650007B69002B04D17968F868FFF739FA786133
:104660007B6918461C37BD4690BD90B589B002AF36
:10467000F860B9607A60B868FFF7AFF93861FB6835
:104680005B685C68FB681868FB6819690C23009319
:104690003B697A68A04778617B69002B04D179680F
:1046A000F868FFF76CFA78617B6918461C37BD46DD
:1046B00090BD90B589B002AFF860B9607A60BA6811
:1046C00013465B0013449B0008333B61FB685B6847
:1046D0005C68FB681868FB6819690C2300933B69E8
:1046E0007A68A04778617B69002B04D17968F86803
:1046F000FFF784FA78617B6918461C37BD4690BD88
:1047000080B588B002AFF860B9603B601346FB71BA
:10471000FB6A0193BB6A00933B6A3A68B968F86820
:10472000FFF783FD7861FB791946F868FFF75EFBB8
:1047300002467B6A1A607B69002B05D17B6A1B6885
:104740004FF6FF72934202D16FF08D0300E0002319
:1047500018461837BD4680BD80B594B000AF78606C
:1047600000237B647868FFF7B1FD0346002B02D17C
:104770007B685B697B647B685B681B697A6812682D
:10478000796C10469847F864FB6C002B01D0FB6CE9
:10479000E8E07B685B681B697A6810687A6C002ABD
:1047A0000CBF01220022D2B211469847F864FB6C7C
:1047B000002B01D0FB6CD5E07B681B681B7E002BB7
:1047C00001D1012200E000227B689A737B683B6480
:1047D0003B6C1B681B8A022B01D1012200E00222E4
:1047E0007B689A607B6802221A737B6801225A6197
:1047F0007B6800221A617B681B68DB8A194678682F
:10480000FFF7FBF803463B637B681B68DA683B6B8A
:10481000D31A7B637B685B69FB6207F12C031A4642
:1048200000217868FFF748FBF864FB6C002B01D08F
:10483000FB6C97E000233B637B681B68DB687B6352
:104840000023BB6419E07B685B681B697A681068A9
:104850007A68FA63FA6B1268128A022A01D100217F
:1048600000E00321BA6C0A44114698470246FB6CEB
:104870001343FB64BB6C0133BB647868FFF78DF8AE
:104880000246BB6C9342DED3FB6C002B02D06FF070
:10489000910367E00023BB641EE07B68BB63BB6BD6
:1048A0001B681B8A022B01D1002200E00322BB6C93
:1048B0001344FB62BB6C013307F12C021946786884
:1048C000FFF7FAFAF864FB6C002B02D06FF0830359
:1048D00048E0BB6C0133BB647868FFF75EF80246C2
:1048E000BB6C9342D9D307F10C0320220021184658
:1048F0001AF0B2FB0023BB6410E007F10C031A4668
:10490000B96C786800F066F8F864FB6C002B02D094
:104910006FF0830326E0BB6C0133BB647B681B68CC
:10492000DB8A1A46BB6C9342E7D37868FFF7A5FB96
:10493000F864FB6C002B02D06FF0830312E07B68FD
:104940005B68DB687A6810687A6852691146984734
:10495000F864FB6C002B01D0FB6C03E07868FFF778
:1049600065F8002318465037BD4680BD80B485B039
:1049700000AFF860B9607A607B68002B02D0FB68FA
:10498000BA689A6000BF1437BD465DF8047B704773
:1049900080B586B000AFF860B9607A60BB68002B64
:1049A00003D1FB685A697B681A607A68B968F8684D
:1049B000FFF782FA78617B69002B02D06FF08303E6
:1049C00004E0B968F868FFF792FA0346184618370A
:1049D000BD4680BD90B589B002AFF860B9607A601D
:1049E000B968F868FFF709F87861FB685B689C684C
:1049F000FB681868FB685969202300937B697A6813
:104A0000A047034618461C37BD4690BDB0B5C8B098
:104A100002AF07F58C74A4F58674206007F58C70DE
:104A2000A0F58870016007F58C71A1F58A710A60A4
:104A300007F58C72A2F58C7213606DE0D7F82C31FB
:104A4000B3F5807F28BF4FF48073C7F8143107F5A2
:104A50008C73A3F586731B685B685C6807F58C73C1
:104A6000A3F586731B68186807F1100207F58C73AD
:104A7000A3F58C71D7F814310093D7F82831096861
:104A8000A047C7F81001D7F81031002B02D0D7F893
:104A9000103146E007F58C73A3F586731B685B68DD
:104AA0009C6807F58C73A3F586731B68186807F577
:104AB0008C73A3F58A7307F1100507F58C72A2F5C4
:104AC0008871D7F8142100921B682A460968A0470C
:104AD000C7F81001D7F81031002B02D0D7F81031E9
:104AE0001FE007F58C73A3F58A7307F58C72A2F5A6
:104AF0008A721168D7F814210A441A60D7F828215D
:104B0000D7F814311344C7F82831D7F82C21D7F837
:104B10001431D31AC7F82C31D7F82C31002B8DD192
:104B20000023184607F58C77BD46B0BD80B485B02C
:104B300000AFF860B9607A60BA68FB689A4202D93F
:104B40006FF0860309E0FA68BB68D31A7A689A4264
:104B500002D96FF0860300E0002318461437BD46E3
:104B60005DF8047B704780B485B000AF78600C239B
:104B7000FB6007E07B685A1C7A601B78002B01D031
:104B8000002306E0FB685A1EFA60002BF2D16FF09A
:104B90008B0318461437BD465DF8047B704780B51B
:104BA00000AF08F0EBFA0023184680BD80B582B054
:104BB00000AF7860FFF7F3FF034618460837BD469D
:104BC00080BD80B588B000AF786043F65C237B6120
:104BD0000423FB610423BB6100233B610023BB6012
:104BE00002E0FB69013BFB61FB69002B0BD0FB6919
:104BF0005A1E7B68043253F82230002BF1D002E0B9
:104C0000BB69013BBB61BB69002B07D0BB695A1E66
:104C10007B68083253F82230002BF1D07B681B6987
:104C2000042B09D17B681B6A042B05D8FB69012B77
:104C300002D1BB69012B01D0012344E07B68586895
:104C40007B681B6907F10C0200210DF05DFB3861E8
:104C50003B69042B01D0012335E07B689B68002B66
:104C60000CDAFB6807F10C021146184608F040FC0C
:104C700078617B69002B01D0022324E07B689B686C
:104C8000F9680022184608F00BFC78617B69002B5C
:104C900001D0012317E0F8687B681B6A07F108025E
:104CA000194608F026FB78617B69002B01D00123AF
:104CB00009E07B6858687B681B6A07F108020021DD
:104CC0000DF03AFB002318462037BD4680BD80B565
:104CD00088B000AF786043F65C237B610423FB61FE
:104CE0000423BB6100233B6102E0FB69013BFB61E4
:104CF000FB69002B0BD0FB695A1E7B68043253F80A
:104D00002230002BF1D002E0BB69013BBB61BB69E3
:104D1000002B07D0BB695A1E7B68083253F822303B
:104D2000002BF1D07B681B69042B05D1FB69012B9B
:104D300002D1BB69002B01D0012337E07B685868A2
:104D40007B681B6907F10C0200210DF0DDFA386168
:104D50003B69042B01D0012328E07B689B68002B72
:104D60000CDAFB6807F10C021146184608F0C0FB8C
:104D700078617B69002B01D0022317E07B689B6878
:104D8000F9680022184608F08BFB78617B69002BDC
:104D900001D001230AE0FB68184608F05EFB786149
:104DA0007B69002B01D0012300E000231846203747
:104DB000BD4680BD80B5AEB000AF78600023C7F8B7
:104DC000B4300023C7F8B03007F1940300221A6012
:104DD0005A6007F18C0300221A605A600023FB64BA
:104DE00007F150033C22002118461AF035F9002340
:104DF000FB6007F110033C22002118461AF02CF941
:104E00000023BB600123C7F8A4300023C7F8A030FB
:104E10000423C7F8AC300423C7F8A83004E0D7F85F
:104E2000AC30013BC7F8AC30D7F8AC30002B0ED01B
:104E3000D7F8AC305A1E7B68043253F82230002B6E
:104E4000EDD004E0D7F8A830013BC7F8A830D7F878
:104E5000A830002B08D0D7F8A8305A1E7B6808323B
:104E600053F82230002BEDD0D7F8AC30002B07D010
:104E7000D7F8AC30022B03D8D7F8A830012B01D9D2
:104E8000012371E07B68586807F1080204230021C0
:104E90000DF03AFA0346C7F8A030D7F8A030042B3B
:104EA00002D06FF080035FE0D7F8AC30012B2BD934
:104EB0007B685B69C7F89C30D7F89C30402B02D9DF
:104EC0006FF0890350E07B6858687B685B6907F185
:104ED0004C0201210DF018FA0346C7F8A030D7F8AC
:104EE000A030D7F89C209A4202D06FF080033BE0BC
:104EF00007F14C03C7F89430D7F89C30C7F89830C6
:104F000007F19403C7F8B430D7F8A830002B12D0BB
:104F10007B681B6A402B02D96FF0800324E007F105
:104F20000C03C7F88C307B681B6AC7F8903007F118
:104F30008C03C7F8B030BB68D7F8B020D7F8B410EE
:104F4000184605F07FF9C7F8A400D7F8B030002B59
:104F500008D07B685868D7F88C20D7F890300021AB
:104F60000DF0EAF9D7F8A4301846B837BD4680BD31
:104F700080B582B000AF08F093F978607B68002BB1
:104F800002D06FF0920300E0002318460837BD46B8
:104F900080BD80B5ADF53E7D00AF07F53E73A3F54E
:104FA0003D73186007F53E73A3F53C7318464FF444
:104FB0003C731A4600211AF04FF807F53E73A3F52B
:104FC0003D731A6807F53E73A3F53C731046194606
:104FD0004FF43C731A4619F0F8FF07F53E73A3F53A
:104FE0003D73186807F53E77BD4680BD80B487B035
:104FF00000AFF8603B1D83E80600FB685B687B61DF
:10500000FB6814333A1D92E8030083E803007B69D0
:10501000DBB2002B06D17B6923F0FF0343F00102D2
:10502000FB685A6000BF1C37BD465DF8047B7047C3
:1050300080B483B000AF786039607A683B6814331D
:1050400093E8030082E8030078680C37BD465DF8FA
:10505000047B704780B483B000AF786039607B68B0
:105060003A685A603B68DBB2002B02D17B680022B1
:105070005A6100BF0C37BD465DF8047B704780B4B1
:1050800083B000AF78607B681B6803F48053002B0B
:1050900005D07B681B6843F480627B681A607B687C
:1050A0001B6803F40053002B05D07B681B6843F496
:1050B00000627B681A6000BF0C37BD465DF8047B58
:1050C000704780B582B000AF786039603B461846C3
:1050D000FFF7D5FF3A687B689A6000BF0837BD4686
:1050E00080BD80B483B000AF78607B689B68184651
:1050F0000C37BD465DF8047B704780B483B000AFC9
:10510000786039607B683A68DA6000BF0C37BD466A
:105110005DF8047B704780B483B000AF78600B46C5
:105120007B807B687A881A8000BF0C37BD465DF8AB
:10513000047B704780B483B000AF786039603B680F
:105140004FF6F872934204D97B684FF6FF725A808B
:1051500003E03B689AB27B685A8000BF0C37BD46BB
:105160005DF8047B704780B582B000AF78607B68E3
:10517000002200211846FDF7C1FD78680837BD46BA
:1051800080BD80B588B000AF786039600023FB60D7
:1051900007F10C0318460DF053F938614FF0020285
:1051A0004FF00003C7E9062300237B6113E0FA6890
:1051B0007B695B0113441B687A689A4208D1FA68DC
:1051C0007B695B011344D3E90223C7E9062306E0A8
:1051D0007B6901337B617A693B699A42E7D3D7E9FE
:1051E0000623911E0B4309D139684FF002024FF09C
:1051F0000003C1E900236FF08B0305E03968D7E9AC
:105200000623C1E90023002318462037BD4680BD90
:1052100080B58EB000AFF860B9607A603B60002363
:105220007B6300237B6107F1140318460DF0F8F847
:10523000B86200233B634EE079693A6B13465B002A
:1052400013449B000B441B687A689A4240D17969E9
:105250003A6B13465B0013449B000B445B68002BC6
:1052600009D179693A6B13465B0013449B000B44E8
:105270009B687B6333E079693A6B13465B001344A8
:105280009B000B445B687B6279693A6B13465B0059
:1052900013449B000B449B683B620023FB6212E0BB
:1052A000FB6ADB003A6A13441B68BA689A4207D16A
:1052B000FB6ADB003A6A13445B687B6300BF0EE065
:1052C000FB6A0133FB62FA6A7B6A9A42E8D306E022
:1052D0003B6B01333B633A6BBB6A9A42ACD3FB68CE
:1052E00024331C221946386819F06FFE07F11803A1
:1052F0007A68B9681846FDF701FD07F1180393E8CD
:1053000006003868FFF772FE796B3868FFF7D9FE40
:10531000002318463837BD4680BD00005B45525219
:105320005D5B43727970746F5D20556E737570703C
:105330006F727465642072657175657374210D0AEE
:10534000000000004D62656420544C5320332E361B
:105350002E3500004372656174696E6720616E20AE
:10536000656D7074792049545320666C61736820B0
:105370006C61796F75742E0D0A00000043726561CF
:1053800074696E6720616E20656D7074792050536A
:1053900020666C617368206C61796F75742E0D0ADC
:1053A00000000000010000000200000004000000F6
:1053B000DD2E0000072F000075230000412F0000A4
:1053C000592F00000F4B02689A4206D1C269A3F11F
:1053D0001023A3F1EF139A4201D001207047836894
:1053E000012BFAD8C36813B102699342F5D043691F
:1053F0002BB18069C01AB0FA80F040097047184696
:10540000704700BF55AA00FFF8B5164B996829B13F
:105410000846FFF7D7FF08B9CB680BB10120F8BDEC
:105420000B69002BFBD0104DDFF840C01A68AA4270
:10543000F4D1DA696245F1D19A68012AEED8DC68C4
:10544000002CEBD01A699442E8D05F6917B19E69CD
:10545000B742E3D08C42E1D11946002ADFD013468F
:10546000E4E700BFE8AE002055AA00FF669911EE00
:10547000002865D070B5374D2B68002B54D0AA6832
:10548000002A51D08342014661D86A681344984289
:105490005DD2A0F120063046FFF794FF002856D1D8
:1054A00051F8183C012B52D151F8144C41F8180C0A
:1054B00051F8100C002C38D0A368002B35D151F8CE
:1054C0001C2C6368203213442061636000B1C46007
:1054D00020220021304619F0BFFD2069F0B1836819
:1054E000E3B9264642687368134402692033736047
:1054F0003261D6E9051331B38B6103B1596141695A
:1055000083697161B361E1B18E61B36903B15E61B9
:1055100002B1D6602022002119F09EFD2B699B0765
:1055200002D5FFF771FF90B970BD10B18368002BF1
:10553000D8D0EB6841F8083C03B15E61EE60EDE75E
:105540007047EE60E2E7002BD9D0EB60D6E7012090
:1055500019F00EFCE8AE00202DE9F84F3E4D2B6807
:10556000EC68002B40D0AB68002B3DD000283BD02E
:10557000002939D001FB00F6B6FBF0F0884233D1A8
:10558000301D31D8B10733D026F00301043114B9EE
:105590002BE0A4694CB363688B42FAD3D4F808C0FB
:1055A000BCF1000F55D1A0695B1A232B81466769B6
:1055B00020D80123A360002F47D0B861A06900B1B3
:1055C000476100232A696361D207A36103D5FFF70E
:1055D0001BFF00283DD1203432460021204619F01F
:1055E0003BFD2046BDE8F88F00242046BDE8F88F3B
:1055F0003146CCE7D4F8108001F1200EDFF85CB022
:10560000DFF85CA004EB0E02203BC2E9013CC2E9DA
:10561000034844F80EB0C2F81CA0B8F1000F01D046
:10562000C8F80C20C2F81890576187B1BA61906928
:1056300000B1426100236160296922610122C4E94D
:105640000533CB07A260C6D5C1E7E860B7E7EA60DB
:10565000EEE7012019F08CFBE8AE002055AA00FF10
:10566000669911EE38B50D46142200210446114802
:1056700019F0F2FC104911480DF0CCF8232D18D97F
:1056800014F0030304D0043DC3F104021D44144488
:105690002A460021204619F0DFFC064B084A09483B
:1056A000A5F12001C3E901541C60E061C4E90021B7
:1056B000DC6038BDE8AE0020715400005955000090
:1056C00055AA00FF669911EE0000000000000000DE
:1056D00000000000000000000000000000000000CA
:1056E00080B582B000AF164B7B604FF4CC720021C6
:1056F000134819F0B1FC7B684FF480729A617968A5
:105700000DA3D3E90023C1E904230D4B012283F843
:1057100090210B4B002283F891217B68012283F8B2
:105720002820786800F0D2FB034618460837BD46AB
:1057300080BD00BFAFF3008000BD40DFE143E14E1C
:105740006824002000000000B0B592B002AF78607D
:10575000714B3B6100237B6100233B7600237B760A
:105760000023FB6100233B627B687B6107F1100330
:105770007B637B6B1B6807F10802019200934FF477
:10578000C87300224FF001004FF0000112F088FEB4
:1057900038633B6B002B02D07B6B01221A727B6B50
:1057A0005B6807F10802019200934FF4C87300226E
:1057B0004FF002004FF0000112F072FE38633B6BB5
:1057C000002B02D07B6B01225A7200BF0023FB63C7
:1057D00016E0FB6B9B0040333B4453F8303C4FF4E6
:1057E00080729A61FB6B9B0040333B4453F8301C42
:1057F00047A3D3E90023C1E90423FB6B0133FB6317
:10580000FB6B012BE5D907F11003FB62FB6A0C333C
:105810001946002001F035FCB862BB6A002B01D0AC
:10582000BB6A30E007F10C031946012001F029FCA6
:10583000B862BB6A002B01D0BB6A24E0FB6A10335C
:105840001946022001F01DFCB862BB6A002B01D092
:10585000BB6A18E0FB6A1A69FB689A4202D0FB6ACD
:1058600000221A61FB6A1B7A012B03D0F96A00201F
:1058700001F00DFAFB6A5B7A012B03D0F96A012073
:1058800001F005FA0023BB63BB6B002B01D0BB6B9F
:1058900039E007F110037B627B6A1B6893F82830BC
:1058A000012B02D07B6A01221A727B6A5B6893F833
:1058B0002830012B02D07B6A01225A7200BF07F107
:1058C0001003184600F0BAFBB863BB6B002B01D085
:1058D000BB6B18E0104B93F891310133DA171C467B
:1058E00015462046294612F04BFEB863BB6B002BD1
:1058F00005D0BB6B13F18C0F01D0BB6B03E00648E6
:1059000000F026FE002318464037BD46B0BD00BF5C
:1059100000BD40DFE143E14E6824002080B582B045
:1059200000AF78601A4A7B6813607B681B68A3F23B
:10593000E933042B25D801A252F823F05159000075
:105940005B590000655900006F590000795900004B
:10595000786800F0BDFF034615E0786800F0F9FFB5
:10596000034610E0786801F037F803460BE07868EA
:1059700001F06CF8034606E0786801F08FF8034602
:1059800001E06FF0800318460837BD4680BD00BFB8
:10599000002D002080B584B000AF7860396000230E
:1059A000FB600A4B1B6858683B687A6801210CF061
:1059B000ABFCF860FA683B689A4202D06FF0800353
:1059C00000E0002318461037BD4680BD002D0020A2
:1059D00080B582B000AF78603960064B1B685868AC
:1059E0003B687A6800210CF0A7FC00BF0837BD4671
:1059F00080BD00BF002D002080B582B000AF0D4BF0
:105A000019460D4819F0E4FB00F054F878607B6803
:105A1000002B0AD001F0EFF878607B68002B01D0F2
:105A20007B6803E000F046F878607B68184608372A
:105A3000BD4680BD00025005F8700000B0B586B0CC
:105A400000AFC7E902017A600D4B7A68D7E902011D
:105A500000F0FAFB78617B69002B03D100F0D2FCE7
:105A6000786108E0064B1B6800221C46154620465C
:105A7000294612F085FD7B6918461837BD46B0BD32
:105A8000042D002080B586B000AFC7E902017A601E
:105A90003B60064B1B680649184601F0C9FA78615D
:105AA0007B6918461837BD4680BD00BF042D002015
:105AB000201C002080B582B000AF0648FFF744FEEE
:105AC0007860054B054A5A607B6818460837BD4622
:105AD00080BD00BF581C0020042D0020201C002089
