:020000025000AC
:1000000088030420396A050055CF0700256A0500DA
:10001000256A0500256A0500256A0500256A050090
:10002000000000000000000000000000296C050036
:10003000256A050000000000856B0500256A0500A3
:10004000496E0500496E0500496E0500496E0500C0
:10005000496E0500496E0500496E0500496E0500B0
:10006000496E0500496E0500496E0500496E0500A0
:10007000496E0500496E0500496E0500496E050090
:10008000496E0500496E0500496E0500496E050080
:10009000496E0500496E0500496E0500496E050070
:1000A000496E0500496E0500496E0500496E050060
:1000B000496E0500496E0500496E0500496E050050
:1000C000496E0500496E0500496E0500496E050040
:1000D000496E0500496E0500496E0500496E050030
:1000E000496E0500496E0500496E0500496E050020
:1000F000496E0500496E0500496E0500496E050010
:10010000496E0500496E0500496E0500496E0500FF
:10011000496E0500496E0500496E0500496E0500EF
:10012000496E0500496E0500496E0500496E0500DF
:10013000496E0500496E0500496E0500496E0500CF
:10014000496E0500496E0500496E0500496E0500BF
:04015000496E0500EF
:100158007BB972B90029BEBF00204FF0004106E00C
:1001680008BF00281CBF6FF000414FF0FF3000F0BF
:1001780057B8ADF1080C6DE904CE002909DB002B56
:100188001ADB00F069F8DDF804E0DDE9022304B0C9
:100198007047404261EB4101002B1BDB00F05CF82B
:1001A800DDF804E0DDE9022304B0404261EB4101DF
:1001B800524263EB43037047524263EB430300F040
:1001C8004BF8DDF804E0DDE9022304B0404261EBBE
:1001D80041017047524263EB430300F03DF8DDF8FC
:1001E80004E0DDE9022304B0524263EB43037047A5
:1001F80053B94AB9002908BF00281CBF4FF0FF3186
:100208004FF0FF3000F00CB8ADF1080C6DE904CEEA
:1002180000F022F8DDF804E0DDE9022304B07047BD
:10022800704700BF10F8012B11F8013B012A28BFC5
:100238009A42F7D0D01A7047034611F8012B03F8F9
:10024800012B002AF9D17047034613F8012B002A25
:10025800FBD1181A013870472DE9F04786468C46BD
:100268000846089E154674461946002B40F0C18082
:100278008542B2FA82F245D94AB1C2F1200300FAA6
:1002880002FC954094402EFA03F343EA0C0C4FEA23
:10029800154EA8B2230CBCFBFEF80EFB18CC08FBCD
:1002A80000F943EA0C43994528D9EB1808F1FF37C0
:1002B80004D2994502D9A8F102072B44A3EB0903FC
:1002C800A4B2B3FBFEFC0EFB1C330CFB00F044EAAB
:1002D8000344A04214D92C190CF1FF3304D2A042D4
:1002E80002D9ACF102032C44241A43EA07401EB198
:1002F800D440002334607360BDE8F0874746DDE7EB
:100308006346F1E792BB431B01214FEA154EAFB29A
:10031800200CB3FBFEFC0EFB1C330CFB07F840EA79
:100328000343984561D9EB180CF1FF3004D2984586
:1003380002D9ACF102002B44A3EB0803A4B2B3FB2F
:10034800FEFC0EFB1C330CFB07F744EA0344A742F0
:100358004DD92C190CF1FF3304D2A74202D9ACF1C4
:1003680002032C44E41B43EA0040C0E7C2F1200327
:100378009540944020FA03F12EFA03F34FEA154E04
:100388009040AFB20343B1FBFEFC0EFB1C10190CEE
:100398000CFB07F841EA0041884522D969180CF19D
:1003A800FF3004D2884502D9ACF102002944A1EB00
:1003B80008019BB2B1FBFEFC0EFB1C110CFB07F7FE
:1003C80043EA01439F420ED9EB180CF1FF3104D2E6
:1003D8009F4202D9ACF102012B44DB1B41EA0041E8
:1003E80093E76046E3E76146F7E76046A4E76346BC
:1003F800B8E7834206D916B9002108467CE7C6E962
:1004080000E0F9E7B3FA83F78FB9834201D3724565
:1004180008D8BEEB020460EB030301209C461EB91A
:10042800002169E73846FAE7C6E9004CF8E7C7F162
:10043800200CBB400EFA07F522FA0CF42EFA0CF148
:10044800BA401C4320FA0CF3B8404FEA1449014360
:100458001FFA84FEB3FBF9F809FB18300B0C08FBF4
:100468000EFA43EA00439A4540D9E31808F1FF30F1
:1004780004D29A4502D9A8F102002344A3EB0A0347
:1004880089B2B3FBF9F809FB183308FB0EFE41EA01
:1004980003418E452CD9611808F1FF3304D28E45EB
:1004A80002D9A8F10203214443EA0040A1EB0E015E
:1004B800A0FB02984145CE46434602D306D14D459E
:1004C80004D20138B9EB020E68EB0403002EA7D062
:1004D800B5EB0E0261EB030101FA0CFC22FA07F3FB
:1004E800F9404CEA0303C6E9003199E74046C5E7FD
:1004F8004346D9E7000000002DE9F04F8DB0099080
:100508000D46174632F082FA4B0143EAD0634401A4
:10051800241A63EB01039B0043EA9473A400241894
:1005280043EB0101C90041EA5471C4F3103444EAB1
:1005380041444FEAD139012D65D07D6829463C48B0
:10054800FFF770FE28B129463A48FFF76BFE0028EE
:1005580061D135A3D3E9002320464946FFF7F8FDCA
:1005680080460A9130A3D3E9002320464946FFF785
:10057800EFFD15461C46304A002328462146FFF762
:10058800E7FD06460F462C4A002328462146FFF77A
:10059800DFFD15461C464EF66022002328462146FC
:1005A800FFF7D6FD81460B914EF6602200232846C0
:1005B8002146FFF7CDFD15461C464FF47A720023FD
:1005C80028462146FFF7C4FD83468A464FF47A72CF
:1005D800002328462146FFF7BBFDCDE90623CDF8C9
:1005E80010B0CDF814A0CDF808900B9A039200969D
:1005F800019742460A9B114909982BF004FD0020F7
:100608000DB0BDE8F08F22464B460D4909982BF0F6
:10061800FAFC0020F4E72A460A4909982BF011FD54
:100628006FF00400ECE700BF005C26050000000046
:10063800446409004864090080EE36006C640900CF
:10064800306409005464090030B589B004460C9D33
:100658000020C4F80C01C4F8100104F58A70C4F82D
:100668001401C4F8180104F58E70C4F81C01C4F80C
:1006780020012DB3287928BB0120C4F824019FED5F
:10068800147B8DED067B002004900393029001906B
:100698000094114B204631F031FF55B1296811B152
:1006A80020460FF037FB6B791BB1237B43F0010326
:1006B8002373204610F036F9C4F8084109B030BD5C
:1006C8000120DAE740F20110D7E700BFAFF300805E
:1006D800FFFFFFFFFFFFFFFF09FB05000000000011
:1006E800F0B585B004460E4615461F461EA3D3E94D
:1006F8000023FFF77DFD1E4BA3424FF00003B341DB
:100708001AD303941B4903A836F0F6FD04464EF6A7
:10071800602103A836F0F0FD06464FF47A7103A86D
:1007280036F0EAFD0090334622461349284636F053
:100738005CFC7FB905B0F0BD02461049284636F08A
:1007480054FC09A3D3E9002320463146FFF750FDA6
:100758001446D6E7BDF80C200949284636F045FC72
:10076800E8E700BFAFF30080005C2605000000004A
:10077800FF5B260580EE360080B6090078B60900D2
:1007880090B60900084010F0020F00D1704708B574
:100798000249034831F00AFE08BD00BF7078032003
:1007A800A804032008B5312804D0322810D03028F6
:1007B80007D008BD01202EF0B7FB0A4B01221A70A2
:1007C800F7E701202EF0B5FB064B00221A70F0E780
:1007D800044B1978B1FA81F149091970012009F01F
:1007E800B9FCE6E76EBF032010B5054C217801205F
:1007F80009F0B0FC2378B3FA83F35B09237010BDCA
:10080800A00203200B4B1B6803F00703022B00D840
:10081800704700B585B00390074B02930020019004
:10082800009003460322034928F01AFE05B05DF83C
:1008380004FB00BF00030320985C090000B585B0E5
:100848000F4832F05EF90F4832F05BF900F0B4FA65
:1008580010B905B05DF804FB00F0A8FA0A4B1B6854
:1008680003F00703022BF4D9084B029300200190F0
:10087800009003460322044928F0F2FDE9E700BF8F
:10088800700403203804032000030320B05C09002F
:1008980000B585B000F084FA40F6CD420023CDE9DA
:1008A8000023104810F002FC00220023CDE90023A9
:1008B8004FF4203200230C4810F0F8FB0B4B1B6858
:1008C80003F00703022B02D805B05DF804FB084BC0
:1008D800029300200190009003460322034928F068
:1008E800BFFDF1E770040320380403200003032050
:1008F800CC5C090010B584B0394B1B6803F00703C2
:10090800022B28D8374A3849384832F0EEF8002206
:100918003749384832F0E9F8374C204631F06CFD59
:100928000023009305234FF4006234492046FFF763
:100938008BFE3349334831F0EBFC334A33493448B2
:1009480000F040FAE8B1264B1B6813F0070F0DD1F1
:10095800002004B010BD2F4B02930020019000909E
:10096800034603221E4928F07BFDCBE72A4B02935E
:1009780000200190009003460122194928F070FDDB
:10098800E6E709F0B9FB80B1154A126812F0070FC3
:10099800DED00390214B0293002001900090034683
:1009A80001220F4928F05CFDD2E71D4809F0B0FA92
:1009B80080B10B4A126812F0070FC9D00390194B87
:1009C800029300200190009003460122044928F078
:1009D80047FDBDE714480AF011FA0AF07FFAB7E7B5
:1009E800000303205F940700F1070500700403204B
:1009F800B394070038040320A804032088BF032009
:100A080099080500707803200D080500AD0705005A
:100A180045080500E45C0900005D0900285D09003F
:100A28008D070500505D0900000003200A4B1B6874
:100A380003F00703022B00D8704700B585B0074BB9
:100A4800029300200190009003460322024928F0F7
:100A580030FD05B05DF804FB2C0303207C5D090024
:100A680010B58CB00C46084632F0E5FE012811D0CE
:100A7800284B1B6813F0070F01D10CB010BD264B93
:100A8800029300200190009003460122214928F09A
:100A980010FDF2E7204632F0D5FE03280FD01D4B9B
:100AA8001B6813F0070FE8D01C4B0293002001903D
:100AB800009003460122174928F0FBFCDDE7204699
:100AC80033F0DCFA01461F2304AA204633F0DBFA90
:100AD800044600F130036B44002203F8202C0D4B30
:100AE8001B6803F00703022B07D80D4BDB68002BAC
:100AF800C3D0214604A89847BFE704AB0393094B2A
:100B0800029310460192009213460322014928F0ED
:100B1800D0FCEAE72C030320C05D0900F05D090062
:100B280080780320185E090010B586B00C46084688
:100B380032F081FE012811D02E4B1B6813F0070FED
:100B480001D106B010BD2C4B0293002001900090FB
:100B580003460122274928F0ACFCF2E7204632F090
:100B680071FE03280FD0234B1B6813F0070FE8D042
:100B7800224B0293002001900090034601221D4958
:100B880028F097FCDDE7204633F078FA0146012388
:100B98000DF11702204633F076FA01280FD0154BD5
:100BA8001B6813F0070FCCD0154B0293002001905F
:100BB8000090034601220F4928F07BFCC1E70D4B4A
:100BC8001B6803F00703022B05D80E4B9B689DF8A2
:100BD80017009847B5E79DF8173003930A4B02931F
:100BE80000200190009003460322024928F061FC8E
:100BF800EBE700BF2C030320385E0900645E0900A0
:100C08008C5E090080780320B45E0900F0B585B0D9
:100C180005460E4600212A4B186832F02FFE04467E
:100C280000284AD04522012132F05AFE284632F0E7
:100C380015FE0746284632F00AFE02463946204687
:100C480032F0E5FD054630B114B1204633F000FA24
:100C5800284605B0F0BD204632F0E9FD05460028DB
:100C6800F2D1174B186833F010FC074610220146E2
:100C7800204633F0F3F905460028E5D10023324633
:100C880021460F48006814F04BFB05460D4B1B68C6
:100C980003F00703022B02D8002DD9D0D4E70A4B62
:100CA80003930A4B029300200190102300933B46C4
:100CB8000322044928F0FDFBEEE70325C4E700BF43
:100CC800807803202C030320D05E090044AC09007F
:100CD80070B58EB02E4B1B7973B10D4614462D4B53
:100CE8001B6803F00703022B16D8284632F0A3FD31
:100CF80001281CD00EB070BD264B1B6813F0060FE0
:100D0800F8D0254B02930020019000900346022260
:100D1800204928F0CEFBEDE7204B029300200190FC
:100D28000090034603221B4928F0C3FBDDE7284651
:100D380032F088FD0128DDD1A44604AE2034B64641
:100D4800DCF80000DCF80410DCF80820DCF80C30D3
:100D5800AEE80F000CF1100C7646A445EFD1DCF894
:100D68000000CEF80000BCF80430AEF804300023D0
:100D7800049305930693079304A92846FFF746FFB3
:100D88000028B7D1024C2369984700232371B1E7A3
:100D9800807803202C030320EC5E0900285F0900FB
:100DA800014B01221A71704780780320014B002201
:100DB8001A71704780780320014B1879704700BF7B
:100DC80080780320F0B585B02A4C00232371206178
:100DD800A160E26009F0E0FF206040B3264EB060F9
:100DE800264B7360264FB860264B7B60264DA86063
:100DF800264B6B600022264932F064FD1D4C3946B3
:100E0800206832F09EFD3146206832F09AFD29466E
:100E1800206832F096FD41F23361206832F03DFDE2
:100E28000446A8B9201E18BF012005B0F0BD194B13
:100E38001B6813F0070F01D10124F3E7164B029347
:100E48000190009003460122124928F032FBF3E793
:100E5800104B1B6813F0070FE4D003900F4B02935D
:100E6800002001900090034601220A4928F021FB46
:100E7800D8E700BF807803202C000320D90C050098
:100E88001C000320310B05000C000320690A050033
:100E9800350A05002C030320485F0900705F09002C
:100EA8002DE9F04F91B005920293134602F0040227
:100EB8000092C3F3C20310F00302019240F02A82A9
:100EC80080468A460133041D00284ED0B8F1000F31
:100ED80005D0A4EB08020432524500F21E82029AA1
:100EE800551E019A04920692039200264FF0FF3B8A
:100EF8000427B946B8F1000F01D0029A22605A1EA1
:100F08000792002B40F35C81059B13F0020228D066
:100F18000120A4EB08018B081AB1B1F5007F80F01D
:100F2800028203990F2900F20182B8F1000F00F044
:100F38005F81DBB201F140026A4402F8103C02F81A
:100F480020BC002800F0508163F07F0301F14002CB
:100F58006A4402F8103C049B01330493039B013359
:100F680003930434002140463DE001F0070A54444D
:100F7800CAF1080AAAE7002634E0002632E0002673
:100F880030E00827B9462DE0252B2BD10BF1010BBA
:100F980001260427B94625E0472BEED82A2B14D37F
:100FA8002A3BDBB24FF0010C0CFA03F34FF6DA7C64
:100FB80013EA0C0F16D113F0625F40F0C18013F0F2
:100FC800010F40F08D8000260CE0252B03D10BF19A
:100FD800FF3B002606E001D9002603E0202B01D0C4
:100FE800232BCCD115466A1C6B78002B00F0198195
:100FF800002EC9D07A2BBED84C2BCDD34C3B2E2BF0
:1010080062D80FF2080C5CF823F000BFED0F050062
:10101800D1100500D1100500D1100500D110050030
:10102800D1100500D1100500D1100500D110050020
:10103800D1100500D1100500D1100500E110050000
:10104800D1100500D1100500D1100500D110050000
:10105800D1100500D1100500D1100500D1100500F0
:1010680049110500D1100500E1100500E110050047
:10107800491105004911050049110500ED0F05004A
:10108800E11005008B0F0500D1100500ED0F0500DC
:10109800D1100500A5110500E1100500A5110500F6
:1010A800D1100500D1100500AD110500DB100500B9
:1010B800E1100500D1100500D1100500E110050070
:1010C800D1100500D510050000268BE70427B94686
:1010D80088E70427B94685E72B786C2B24D00026AF
:1010E8003C44013CB4FBF7F407FB04F420B1231A99
:1010F8004B44534500F21481002958D1B9F1040F2B
:1011080000F08780B9F1080F40F013811A9B07336C
:1011180023F0070303F108051A9593ED007B08B146
:1011280084ED007B08345DE712F8023C6C2B03D099
:1011380000260427B946D3E700260827B946CFE793
:101148002B784C2B1AD01A9B073323F0070303F193
:1011580008061A96D3E90067073424F0070440B15B
:10116800231A0833534513D82B784C2B13D0C4E9D2
:101178000067083400260827B94633E71A9B073367
:1011880023F0070303F108061A96D3E90067E3E79B
:101198006FF01B00BBE0C4E90067EAE700260427FC
:1011A800B9469DE7314600260427B94698E78046A8
:1011B8001A9B191D1A911B680293079B154699E6FD
:1011C800624B029A9A4204D3614B9A420AD3002393
:1011D80000E00023002B7FF497AE059B03F002028A
:1011E800002096E60123F5E7069B01330693B5E652
:1011F80010B10AF1010AB1E6009B13B10AF1020A23
:10120800ACE60298FFF720F80AEB000303F1020AA4
:10121800A4E61A9B1D1D1A951B6800B123600434AF
:10122800E0E68046231AB3F5806F80F0858090B1A0
:10123800002202609B080370009B83B1069BC37069
:10124800049B88F802301BBB019DDDF80C90DDF88B
:1012580010B0029F3DE05344A3F1080057E0069BFD
:101268004370EDE701339842EED903F140026A4436
:1012780012F8101C12F9102C002AF3DA01F07F0181
:10128800A4EB08020132524559D804F8011BE9E7DA
:10129800019B0398E7E7009B43B305F140036B44C8
:1012A80013F8203C04F8013B019EA4EB08033344E7
:1012B8000133534546D805F140036B4413F8103CFD
:1012C80004F8013B32463946204643F0CAFC344410
:1012D8000135A94519D9BBF1000FDCD005F1400350
:1012E8006B4413F9103C002BD5DAF1E705F1400304
:1012F8006B4413F8103C58F82370002248F8232058
:101308003846FEF7A1FF461CCFE7A4EB080011B052
:10131800BDE8F08F6FF00D00F9E76FF01B00F6E7FE
:101328006FF01B00F3E76FF01500F0E76FF01500A2
:10133800EDE76FF01500EAE76FF01500E7E76FF0EB
:101348001B00E4E76FF01B00E1E700BF3C51090018
:10135800A4BB090010B4C40B44EA4144C90BC0F350
:101368000E00064BA0FB030CC00B40EA4C40146077
:10137800516090605DF8044B704700BF00CA9A3B0B
:1013880000B584460023EFF3118E202282F31288E1
:10139800BFF36F8F08E0064B0FCB8CE80F008EF37E
:1013A8001188BFF36F8F0123002BF4D05DF804FB85
:1013B800D005032030B585B005460C4628F0C3FBA0
:1013C80008B3012D18D131F021FB2246FFF7C2FFE7
:1013D8006846FFF7D5FF6946204628F0BEFB80F037
:1013E800010010F0FF0F02D1002005B030BD074BFF
:1013F8000FCB84E80F00F7E731F008FB2246FFF730
:10140800A9FF0020F1E76FF01500EEE73059090059
:1014180001282BD110B584B00C468A68164B9A4225
:1014280027D831F0F3FA6A46FFF794FF684628F0A8
:10143800CDFB2146684628F090FB0023EFF3118C82
:10144800202282F31288BFF36F8F0AE00B4C04ABA3
:1014580013E90F0084E80F008CF31188BFF36F8F36
:101468000123002BF2D0002004B010BD6FF015004E
:1014780070476FF01500F7E7FFC99A3BD0050320C6
:10148800014B1860704700BF3C00032080B505463B
:101498000E46174698460FF069FA034643F040FE99
:1014A8000446DFF8189049F800304246394630467D
:1014B800A84754F8090005F047FB00BF08000000E2
:1014C80008B50446EFF31183202383F31288BFF392
:1014D8006F8F08F079FB20462BF0A3FD024828F017
:1014E80090FB2BF0E2FDFCE7DC5F090070B5964647
:1014F800022A8CBF00220122801A61F10001002912
:1015080078DBCC1704F02105C0F3130C020D42EA76
:101518000132C2F313029444C1F3132294440CEB36
:10152800117CAC44554AA2FB0C52D20802EB820251
:1015380002EB8202ACEB020C24F01704A444B0EBDB
:101548000C0261EBEC714E4C4E4D02FB05F504FBB1
:101558000155A2FB042129448C460029C0F287804A
:10156800120942EA0C714FEA2C1C474A02FB01009F
:10157800BEF1020F7FD96FF00202724402EBC20281
:1015880002EB02120232414CA4FB024203EB92022C
:10159800830840F26D1404FB0033384CA4FB004070
:1015A800A3EB501083184FEACC0040EA5170CA00F0
:1015B80052184CEB0000000140EA12701201521858
:1015C8004CEB0000000140EA12701201521A60EB65
:1015D8000C00810141EA92614FEA821CBCEB0202D5
:1015E80061EB0001D01841F10001294BC01861F1ED
:1015F800000170BD6FF4C772821861F10001CD1748
:1016080005F0210CC2F31304160D46EA0136C6F3A1
:1016180013063444C1F31326344404EB11746444B0
:10162800164EA6FB046C4FEADC0C0CEB8C0C0CEB96
:101638008C0CA4EB0C0425F017052C44121B61EB51
:10164800E4710F4C0F4D02FB05F504FB0151A2FBA1
:1016580004240C44A446002C05DB120942EA0C7150
:101668004FEA2C1C81E70F3244F1000CF5E70F32EA
:1016780041F1000C74E709227FE700BF1F85EB5199
:10168800295C8FC2F5285C8F70FEFFFFCDCCCCCCD7
:101698009405F5FF10B528F0E3FA02460B4643F02F
:1016A8003FFD0349002444501046194610BD00BFB1
:1016B8000C00000030B483682E4A93422FDD2E4977
:1016C80081FB0321DA17C2EB2172002B33DB294996
:1016D8008B4213DD04684168012C71F100050DDBB4
:1016E800E443C1F1FF4101F5FF0101F5FF417F31FD
:1016F8004FEAE27C94426446A14139DB1D498B42A2
:1017080025DD01684468511844EBE27401604460C7
:101718001A4901FB02338360012030BC7047002B5B
:1017280001DB0022D1E7134AD21A520A1449A1FB5D
:101738000212D209C9E7056841680029C7DA01F130
:101748000041D4179542A141C1DA0020E5E7002BFA
:1017580001DB0120E1E701684468891A64EBE2745F
:1017680001604460074901FB023383600120D4E72C
:101778000020D2E7FFC99A3BA12FB844003665C4C0
:10178800834B040000CA9A3B08B500F0D7F8012241
:101798000260426000238360C360036106494161BF
:1017A80006490A6006490A60064A1360064A136039
:1017B800064A136008BD00BF686709005C00032083
:1017C800580003209C7803209878032094780320FD
:1017D8002DE9F04106460F46154600F0AFF80446DD
:1017E800C3681BB943691A78002A54D10023E360FF
:1017F800616857F821306361B14231DA5A1C62617D
:101808001A782D2A2CD19A1C62615A78A2602D2A46
:101818002ED04AB9394B63612D21284643F06FFA1F
:10182800002832D02D23A360D4F8088041462846EA
:1018380043F065FAB8F13A0F32D0002830D0437837
:101848003A2B38D00023236163691B7813B9636886
:1018580001336360204600F053F8A068BDE8F081CA
:10186800264B6361204600F04BF84FF0FF30F5E758
:101878009B78002BCDD101316160204B63612046FC
:1018880000F03EF84FF0FF30E8E7204600F038F867
:101898004FF0FF30E2E75A1C42611B788360C3E7D0
:1018A80063691B7813B9636801336360204600F0ED
:1018B80027F83F20D2E763691A7832B123610F4BCA
:1018C8006361636801336360C4E76368013363601D
:1018D800B34203DA57F823302361F0E7074B63611B
:1018E8002B783A2B04D0204600F00AF83F20B5E7C1
:1018F800204600F005F83A20B0E700BF6867090005
:1019080008B50168084A11604168084A1160816891
:10191800074A1160C168074A11600269064B1A60DC
:1019280005F0ECFF08BD00BF5C0003205800032051
:101938009C78032098780320947803200048704707
:10194800400003202DE9F04383B0044608461546BD
:10195800A38B13F0080F05D103F0070600230093AB
:10196800019354E0012909D043F02003A38385F3B0
:101978001188BFF36F8F03B0BDE8F08343F0100305
:10198800A383F4E7204628F0EAF942E0D4F8189057
:101998004A466946204628F0FBF94FF00008A38B19
:1019A80003F00707B74269D0A268002A66D001226F
:1019B80043F00803A38385F31188BFF36F8F002AD0
:1019C80064D1009B2BB14B463A466946204628F025
:1019D80058FAB8F1000F02D034492046C047EFF357
:1019E8001185202383F31288BFF36F8FA38B23F015
:1019F8000803A383A38B13F0100F4DD023F010031B
:101A0800A3830120A68B06F007060028AFD0022882
:101A1800B8D00028ABD0013804282BD801A353F83C
:101A280020F000BF951905007D1A0500411A050030
:101A3800551A0500691A05002369D3F800800621A4
:101A4800204628F062F94FF00009A8E72369D3F887
:101A580004800421204628F058F94FF000099EE739
:101A68002369D3F808800521204628F04EF94FF065
:101A7800000994E74FF00008C14690E7009A0AB1C0
:101A8800002295E7B8F1000F92D1B3E74A463946EC
:101A9800204628F042F994E713F0200F04D023F0F1
:101AA8002003A3830220ADE70020ABE7B99E07001F
:101AB8002DE9F0438BB0044600230793C36A5F798E
:101AC80000F114094FF0FF324FF0FF3348460DF094
:101AD800F1FDE36A1E68012E06D9F31D76421E4009
:101AE8004FF00008454603E00826F9E70135ADB296
:101AF800238AAB421CD9E168891B89B201EB0541F5
:101B0800079108233A46204628F074FB0028EDD0B8
:101B180008F101081FFA88F807A9204628F0A7FB52
:101B280008233A460799204628F064FB0028DDD1AF
:101B3800238A434500F01281AB420DD007A9204605
:101B480028F0FBFB0546002840F0ED80079B63600A
:101B58001B0C1B04A36010E008233A460799891B55
:101B6800204628F047FB0028E8D107A9204628F09E
:101B78007EFBE3E763689B1B63606168A368994227
:101B88002DD308AA204628F030FB0546002840F04F
:101B9800C980394608A828F05EFB00B308A920468A
:101BA80028F0AFFB0028E5D0BDF81E301A04A2606B
:101BB800BDF82230BDF824000344E16A0968012910
:101BC80003D90B44013B49420B401344A3606268AC
:101BD8009342CFD10028CDD06FF01C05A3E0E38855
:101BE8001B04079307A9204628F041FBE3683A46FF
:101BF8000799204628F0FEFA051EC0F29480002DB1
:101C080078D063683344079302E0079B3344079313
:101C180007998AB2E3689B1B9A4218D205AA204604
:101C280028F0E3FA054600287CD105A9204628F0CB
:101C380068FB0028E9D0BDF814204FF6FF739A42DC
:101C4800E3D1BDF81830002BDFD1012300E00023D9
:101C580013BB4A4B1B6803F00703022B3AD8616891
:101C6800204628F020FB054600285CD1E1880904BD
:101C78006160E368A3EB4603194461600B0C1B0425
:101C8800A3600023B3F5007F2FD203F10C0244F8C0
:101C9800221001339BB2F5E7384B1B6803F00703AA
:101CA800022B0CD8E3881B04079307A9204628F0C9
:101CB800DEFA0799204628F0F6FA054632E0304B5E
:101CC8000293002001900090034603222B4928F03C
:101CD800DBFAE7E72B4B02930020019000900346C4
:101CE8000322264928F0D0FAB9E7204628F09DFCBF
:101CF800054617E06368A1688B420DD95B1A3A461E
:101D0800204628F077FA051E0CDB2DB1A368E26A9D
:101D180012681344A360EDE7616801EB4602E368CB
:101D28009A4207D0ADB148460DF044FD28460BB0A5
:101D3800BDE8F083A2680B0C1B049A42F2D020463F
:101D480028F0B1FA05460028EDD1E3881B04A3600A
:101D5800E8E7204628F06DFD054601E06FF02C0508
:101D6800002DE0D1A288E368A3EB46039A42DAD1BA
:101D7800204628F042FC0546D5E700BF10030320A3
:101D8800146009002C60090030B58BB0044614308B
:101D980030F03AF9A06A8368DB689847E062002867
:101DA8003FD0A06A8368DB6898470368013B1F2B14
:101DB80049D8E368B3F5803F58D8A06A216807AAD4
:101DC8002BF0F7FC002868D1E368002B78D0089A3C
:101DD800B3FBF2F102FB1133002B71D1238A012BE3
:101DE80040F281802046FFF763FE0546B0B9012323
:101DF800A3745D4B1B6803F00703022B00F2868077
:101E0800594B1B6803F00703022B00F28D80564BD9
:101E18001B6803F00703022B00F2968028460BB0DC
:101E280030BD514B1B6813F0070F02D16FF0150539
:101E3800F4E74E4B029301900090034601224A4971
:101E480028F022FAF2E7484B1B6813F0070F02D17B
:101E58006FF01505E2E7464B0293002001900090D1
:101E680003460122404928F00FFAF1E73E4A12687A
:101E780012F0070F02D16FF01505CFE74FF480324B
:101E8800049203933B4B0293002001900090034679
:101E98000122354928F0F8F9EDE7334B1B6813F0B8
:101EA800070F02D16FF01505B8E7334B02930020F6
:101EB80001900090034601222B4928F0E5F9F1E74B
:101EC800294B1B6813F0070F02D16FF01505A5E722
:101ED8002A4B0293002001900090034601222249D8
:101EE80028F0D2F9F1E7204B1B6813F0070F02D155
:101EF8006FF0150592E7224B0293002001900090A5
:101F080003460122184928F0BFF9F1E7238AE2685D
:101F1800049203931B4B0293019000900346032203
:101F2800114928F0B1F96BE763689AB204921B0C67
:101F38000393154B0293002001900090034603225F
:101F4800094928F0A1F962E7A3689AB204921B0C28
:101F580003930E4B02930020019000900346032246
:101F6800014928F091F959E7100303206860090036
:101F78008C600900AC600900D8600900F0600900B5
:101F880004610900286109004061090054610900E1
:101F98002DE9F04F8BB0059290F812B0BBF1000F0D
:101FA80062D004460E469946C36A1B68012B6ED957
:101FB80003F1070A5A420AEA020A012B6AD909EB15
:101FC800030808F1FF385B4208EA0308E368A3EB5B
:101FD8008A034B45C0F0AC80B9F1000F03D0059BD4
:101FE800002B00F0A880C6F38033C6F30D0243EA45
:101FF80042035A42C3F30803C2F3080258BF5342CC
:102008000C3354F823300793B3F1FF3F48D1B9F1AB
:10201800000F00F09380B8F1000F73D01FFA8AFA0E
:102028001AFA88F81FFA88F804F1140A4FF0FF32F8
:102038004FF0FF3350460DF03DFB0027238A9F42A7
:102048006DD06268A36843449A425ED2204628F065
:10205800BFFB0546002864D1204628F0E6FA05466D
:1020680000285ED10137E9E7354B1B6813F0070FED
:1020780002D16FF00C0557E0324B0293002001901B
:102088000090034601222E4928F0FEF8F1E74FF0B0
:10209800080A92E7C84699E76268079B9A4213D0F4
:1020A800079F08AA07A9204628F0A3F90546002893
:1020B8003AD1BDF82030B342EED108A9204628F025
:1020C80020F90028E8D001E04FF0000BBBF1000F29
:1020D8009DD03F0C3F04BDF822103944B9F1000FE0
:1020E80004D1BDF82430002B95D11DE0BDF8243073
:1020F8004B4590D14B46059A204628F0DAFB051E41
:1021080089DC11E04FF000088EE74B46059A31460E
:10211800204628F03FFB054618B94D4601E06FF010
:102128001B0550460DF046FB28460BB0BDE8F08F66
:102138006FF01505F8E76FF01505F5E70025F3E7EB
:1021480010030320546009002DE9F04788B0994630
:10215800BDF84080837C23B304460F469246C36A89
:102168001B68012B30D9DA1D5B421A40E368A3EBE8
:1021780042034B4569D3C7F38033C7F30D0243EAE3
:1021880042035A42C3F30803C2F3080258BF53423A
:102198000C3354F823500795B5F1FF3F58D000266B
:1021A80018E0304B1B6813F0070F02D16FF00C03D7
:1021B80040E02D4B0293002001900090034601223D
:1021C800284928F061F8F1E70822CFE76268079B01
:1021D8009A4216D0464514D8079D05AA07A9204655
:1021E80028F007F9034628BBBDF81430BB42EDD1EF
:1021F80005A9204628F085F80028E7D00136B6B2B0
:10220800E4E76268079B9A4218D0BDF8183013B308
:10221800464523D32D0C2D04BDF816104B4528BF79
:102228004B4652462944204627F0D1FF034608B9B9
:10223800BDF81830184608B0BDE8F087BDF814306E
:10224800BB42E2D06FF00103F4E76FF01503F1E74A
:102258006FF00103EEE76FF00103EBE76FF00103A6
:10226800E8E700BF100303205460090000B585B0FB
:1022780038B18368BBB11B6843B3984705B05DF8B4
:1022880004FB134B1B6813F0070F02D16FF0150006
:10229800F4E7104B029301900090034601220C4989
:1022A80028F041FBF2E70A4B1B6813F0070F02D135
:1022B8006FF00400E2E7084B0293002001900090C1
:1022C80003460122024928F02EFBF1E70020D5E75A
:1022D80014030320706109008461090010B584B0FB
:1022E80068B1034659B152B18068D8B10469CCB11C
:1022F80041F8043B04691846A04704B010BD134BCD
:102308001B6813F0070F02D16FF01500F5E7104BAB
:102318000293002001900090034601220B4928F007
:1023280002FBF1E7094B1B6813F0070F02D16FF0AE
:102338000400E2E7074B0293002001900090034657
:102348000122024928F0EFFAF1E700BF1403032045
:10235800A46109008461090010B584B068B113460E
:1023680084460068D8B182685AB394684CB30A4668
:10237800DCF80410A04704B010BD1B4B1B6813F019
:10238800070F02D16FF01500F5E7184B0293019083
:10239800009003460122144928F0C5FAF2E7124BCF
:1023A8001B6813F0070F02D16FF00100E3E7104B31
:1023B800029301900090034601220B4928F0B3FADA
:1023C800F2E7094B1B6813F0070F02D16FF0040006
:1023D800D1E7084B029300200190009003460122A8
:1023E800014928F0A0FAF1E714030320D06109009D
:1023F800E46109008461090050B100B583B00B465F
:102408000092826A416A0CF065FC03B05DF804FB37
:10241800004870472DF8FFFF006900F57D73D3E889
:10242800AF3F022B11D110B50C4689B10A4900F50E
:102438002E702FF0C5FF20462FF0A8F97822002132
:10244800204642F035FC002010BD6FF00F007047A9
:102458006FF00100F8E700BFA07803200023002BED
:1024680001DD00207047054A12680AB10133F6E71A
:10247800024A526800211160F8E700BF600003209B
:1024880008B5024928F044FB08BD00BF6867090089
:1024980030B585B004460D460B490291D0F8CC11F1
:1024A800019100934FF0FF3300F1F00128460CF042
:1024B80033FC38B9012385F86C30D4F8C8310BB136
:1024C8002846984705B030BD11AB070060B100B58C
:1024D80083B00B46012101910092826A416A0CF097
:1024E800D7FB03B05DF804FB004870472DF8FFFFE9
:1024F80008B58446084611461A46DCF8103003F53C
:102508007D73D3E8AF3F022B07D14AB158B1FFF72B
:10251800DDFF084B984209D008BD6FF00F00FBE7BC
:102528006FF04C00F8E76FF00100F5E76FF00B0073
:10253800F2E700BF2EF8FFFF10B504460022044959
:10254800FFF7C4FF236F1B680BB1606F984710BD7E
:1025580068670900F0B58FB04468056900230B93DC
:102568000C930D9303680B93E369012B29D0276A19
:1025780005F5327630462FF03FFF606A0BAB0093CB
:102588003B464FF48062134901EB80213046FEF749
:102598005BF8636A104A202103A825F0B1FC03A95F
:1025A80030460DF0B7FB0D4905F52E702FF0B0FE43
:1025B8002A460B4904F1140028F0C4F920B10FB0E1
:1025C800F0BD276A103FD3E70122A169606928F0AE
:1025D800D2F9F4E788C703200C6209008DAE070022
:1025E8007DAE07002DE9F04385B0044646680569CD
:1025F80005F57D790123D9E8EF2F002A03D1C9E831
:10260800E13F0029F7D152D105F5F478314640462B
:1026180028F0FEFB074650B10023D9E8EF2FC9E8A0
:10262800E13F0029F9D1384605B0BDE8F083214BD8
:10263800C5F8B032C5F8AC623168404600F01AF906
:1026480007460028E8D12046FFF784FF0746002800
:10265800E2D1194BC5F8C831184BC5F8CC31B26A6C
:10266800D5F83432D5F8F01315480390D5F8380268
:1026780002900193CDF8008005F50F73284600F00D
:1026880081F807460028C7D105F1F0000CF0DCFB03
:10269800C5F8F803002807DB0223D9E8EF2FC9E8BB
:1026A800E13F0029BFD0F8E76FF01507B4E76FF0F6
:1026B8007707B8E7D5A9070041250500F5AC07005D
:1026C800E9AB07002DE9F04385B007460E46914671
:1026D800D0F8BC80002400E00134012C28D8A8F5EB
:1026E800DE71C4EB041501EBC505C4EB0413DB0074
:1026F800483319443046FDF795FD0028ECD10E4BC0
:102708000293D8F810300193CDF800904FF0FF33C2
:102718003246394628460CF0FFFA48B9012185F8B7
:102728006C10D8F80C30002BD6D028469847D3E741
:1027380005B0BDE8F08300BFABAE0700C8B110B567
:1027480084B014460346BAB1F030012902D0002003
:1027580004B010BD0A4A0292D3F8CC3101934FF06D
:10276800FF33009304F14802014620460CF0D4FAE6
:10277800EEE76FF0150070476FF01500E8E700BF4F
:10278800ABAE07002DE9F04186B01E460D9B0F9CAD
:1027980048B3054653B3D4B1D9B903AF03910491F3
:1027A80005910392049205F5DE780E9A1946404683
:1027B8002FF003FB0197CDF80080334622460C9991
:1027C80005F1F0000CF0D8FB06B0BDE8F081094C2B
:1027D800E2E700230093334622460C9905F1F00006
:1027E8000CF018FDF0E76FF01500EDE76FF015003D
:1027F800EAE700BFCD26050070B504460D46806C9B
:1028080028F08DFBC4F8BC0060B3A06C28F087FBEF
:10281800C4F8C00048B304F15401C4F8A010236CF4
:10282800C4F89030B4F84820A4F898200423C4F8D9
:102838009430D4F8BC60C4F88C60C4F8B810616CEB
:10284800C4F8A810A4F8B020C4F8AC30C4F8A400A8
:10285800A5610223E362064B236204F18C03236320
:10286800002070BD6FF00B00FBE76FF00B00F8E77E
:102878005C62090030B587B003460D46114A92E8FC
:10288800030006AA02E90300CBB11C4604A80CF019
:10289800C9F808B107B030BDE16C224642F8381FCC
:1028A800029001904FF0FF330093236D04F1540020
:1028B8002EF024FB29462046FFF79EFFEAE76FF03B
:1028C8001500E7E7505909002DE9F041074605468C
:1028D8000AE007EA0807144B03EB06135B680422B7
:1028E8001968204628F041FCD5B195FAA5F6B6FA44
:1028F80086F60D4C04EB06140123B3406FEA030877
:1029080025EA0305237B002BEED03301064AD35872
:102918001B69002BDDD0204698470028E4D1D8E772
:102928003846BDE8F08100BF485709002DE9F0415D
:1029380080460F461D4BD3E8EF5F6A1CC3E8E12FC2
:102948000029F8D16DBB1A4C002607E06368042201
:102958001968204628F009FC01361034154B9C42B2
:1029680011D2237B002BF7D0204628F01AFB2368CE
:102978001B69002BEAD0204698470028E6D001239F
:10298800B3401D43E8E7B8F1000F0BD055B1284616
:10299800FFF79AFF0546002FF8D00A2028F011FB10
:1029A800F4E700252846BDE8F08100BFCC78032075
:1029B800485709005857090038B505460B4C00E040
:1029C80010340B4B9C420FD263685B79002BF7D015
:1029D8002946204628F012FB0028F1D023681B68FE
:1029E800294620469847EBE738BD00BF48570900FD
:1029F8005857090048B108B5054A1060054B1960D9
:102A0800084600F01BFB002008BD6FF0150070475A
:102A18008C000320C078032008B500230C4A1370EB
:102A28000C4A13600C4A13604FF400410B48FFF73F
:102A3800E1FF00F097F80A4A06E0094BD31A1B1188
:102A4800013351680B711032064B9A42F5D308BD19
:102A580070BF0320C4780320C8780320C3AF0700E1
:102A680048570900585709000D4B1B7803B17047A8
:102A780010B500210120FFF759FF0A4C00E010347F
:102A8800094B9C4208D263685B79002BF7D0236816
:102A98009B6820469847F2E7014B01221A7010BD47
:102AA80070BF03204857090058570900014B0122FD
:102AB8001A7070476FBF0320094BD3E8EF1F01312D
:102AC800C3E8E21F002AF8D100B97047054BD3E8E4
:102AD800EF1F0139C3E8E21F002AF6D0F7E700BF6D
:102AE800C4780320C878032010B50446044B1B683B
:102AF8009847A0602146034828F0A2FA10BD00BFFD
:102B08008C000320B8020320014800EB81007047C5
:102B1800F80203200248034BC01AC008704700BFE0
:102B2800485709008056090010B50C46FFF7F2FF18
:102B3800A04203D9024B53F8340010BD0020FCE733
:102B48008056090010B50C46FFF7E4FFA04204D9EF
:102B5800034B03EBC403187910BD0020FCE700BF4A
:102B68008056090010B500240EE021460020FFF72A
:102B7800E9FF094A52F8243023F0070300F0070060
:102B8800184342F824000134044B054A9B1AB4EB5D
:102B9800D30FEAD310BD00BFF8020320485709003D
:102BA800805609002DE9F8430D4616469846002838
:102BB80012DBC4B20023204628F088FA074610B179
:102BC800404500D947463B463246E9B2204628F000
:102BD8005FFA3846BDE8F8830C4B0D4AA3EB0209AF
:102BE8004FEA1919002427460DE0094B03EB04139B
:102BF80058684346324629460079FFF7D3FF874293
:102C080038BF074601344C45EFD3E2E7585709006F
:102C1800485709002DE9F04F87B004AF81460D46AB
:102C280090461E46D7F830B0D7F838A0BAF1000F52
:102C38001ED0FB6B7B60009353467A6B10210020FB
:102C4800FEF72EF9B0F5006F13D3224B1B6813F073
:102C5800060F3AD040F2FF7303931F4B02930020F4
:102C680001900090034602221A4928F0BDFA2CE090
:102C78000020014600EB0B03173300246FF3000418
:102C88006FF341046FF3820469F3C50468F3881491
:102C980060F353246BF31F5423F00703ADEB030DCC
:102CA8000DF110086B4613F1200008D0BAF1000F9F
:102CB80005D0FB6B009353467A6BFEF7F1F8334669
:102CC80022462946404628F078FA0C37BD46BDE82A
:102CD800F08F00BF1803032098620900406820B1F4
:102CE800034BC01A40F38F0070474FF0FF30704716
:102CF800F80203200EB400B582B0014603AB53F8C6
:102D0800042B0193034804F0A3FA02B05DF804EB26
:102D180003B070473DB2070010B584B011F0440FFE
:102D280005D01A4B1B6833B9002004B010BD1849F0
:102D3800FFF7E0FFF9E717490968B2FBF1F2B2FBC8
:102D4800F3FC03FB1C224FF47A7E0EFB02F2B2FB6B
:102D5800F3F403FB14210EFB01F1B1FBF3F10E4A6E
:102D6800A2FB0C32D20A4FF4616303FB12CC0B4B6B
:102D7800A3FB0CE35B0902910194C3EB0311ACEBD9
:102D8800810100910649FFF7B5FFCEE7D47803200B
:102D9800D0620900D0780320C5B3A29189888888B9
:102DA800DC62090061B108B52AB1064A52F823204D
:102DB80012B9054A00E0044A0449FFF79BFF08BD21
:102DC800704700BF4C630900F862090044AC090071
:102DD8002DE9F04105461746069EDDF81C8081B9AD
:102DE80000242EB1324611492846FFF783FF0444D8
:102DF800B8F1000F14D06FB1099B042B13D00C4904
:102E080009E00C4B099A53F822200B49FFF772FF8F
:102E18000446E6E7064942462846FFF76BFF0444A6
:102E28002046BDE8F0810549F5E700BF14630900B5
:102E380004630900606309000C630900006309006A
:102E48002DE9F04F87B005460C46049205939DF88E
:102E58004C7001F0020B01F0010AC1F3C00801F443
:102E6800807928F001F918B3024616492846FFF779
:102E780041FF0646BBF1000F1CD13A465146284691
:102E880028F0F6F9B9F1000F01D000231193039748
:102E9800129B0293119B0193109B00930023049AA9
:102EA80041462846FFF794FF304407B0BDE8F08F4D
:102EB8000026DFE7059A21462846FFF72DFF06443E
:102EC800DBE700BF1863090011F0100F0BD108B53C
:102ED80011F0200F03D00449FFF70CFF08BD034988
:102EE800FFF708FFFAE77047A89209001C6309007A
:102EF8002DE9F04105460F46164698460699FFF714
:102F0800E3FF0024444505DA24492846FFF7F2FE8A
:102F18000134F7E7002409E020492846FFF7EAFED4
:102F28000BE01F492846FFF7E5FE01340F2C0CDCA7
:102F3800002C02DD14F0070FEED0B442F1D23A5D56
:102F480018492846FFF7D6FEEFE717492846FFF746
:102F5800D1FE002409E011492846FFF7CBFE0BE01B
:102F680012492846FFF7C6FE01340F2C13DC002C4B
:102F780002DD14F0070FEED0B44207D23A5D0C4BD5
:102F88009B5C13F0970FEBD12E22E9E70349284603
:102F9800FFF7B0FEE8E7BDE8F08100BF4C980900F4
:102FA8002863090020630900A49A0900CC5E09007F
:102FB80095BA09002DE9F04184B004469DF82C50DB
:102FC8000C9F0E9E95B9012B1ED019484FF0000892
:102FD80027B13B462246174926F085FDC6B905BBF1
:102FE800204628F010F904B0BDE8F08103950A984E
:102FF8000290019300920B4600220F992046FFF79A
:103008001FFF80460C48E3E70B484FF00008DFE756
:103018000F9B0093434632460D99204628F040F90D
:10302800DDE72A460F99204628F02EF9D8E700BF99
:103038005BB20700597205003DB20700074B012239
:103048001A6004E04008054A13685B001360044BEB
:103058009842F7D8034B1860704700BFD078032018
:1030680040420F00D4780320014B036000207047D2
:10307800746309008446002300E00133074A12689C
:103088009A4208DD1A010649096801EB03108A5CB7
:103098006245F2D100E00020704700BF887D09003A
:1030A800CC00032038B50C4B1B685BB10C46FFF70E
:1030B800E1FF054648B1C0682EF0E7FE40B1256043
:1030C800002038BD6FF00C00FBE76FF00100F8E757
:1030D8006FF01200F5E700BFCC00032010B588B0F0
:1030E8000C46436802938368039304920023059374
:1030F8000A680692079301AA0549C0682AF05FFB8F
:10310800079B0BB9059B2360079808B010BD00BF4B
:1031180085B307002DE9F0410C4B1E6896B10746B0
:103128000C46154600F0FEF87368D3F810802B465D
:10313800224639463046C047044600F0FFF820468C
:10314800BDE8F0816FF00104F9E700BFD8780320EB
:1031580000230360054B5B681BB11860034B586084
:103168007047024B58601860704700BFDC78032036
:10317800014B1860704700BFD878032010B584B0A1
:1031880001900291039200F0CDF80A4B1C6864B1DB
:1031980063681B6801A92046984723462468002CC9
:1031A800F5D0002BF3D11C46F1E700F0C7F800205A
:1031B80004B010BDDC780320024B00221A605A606C
:1031C800704700BFDC78032008B5034B00221A6063
:1031D8005A60FFF7F1FF08BDE4780320F0B583B02B
:1031E80006460F4609B100230B60274C002504E072
:1031F8000FB1019B3B6025461834244B9C4216D2E4
:1032080001AA2168304628F009F90028F4D0002DD9
:10321800EED000222968206828F000F90028EBD0B9
:103228001FB1019B3B602546E6E72546E4E7184BBE
:103238001C683CB1183C05E014F1180317D0A469C8
:1032480004B1183CE4B101AA2168304628F0E6F838
:103258000028F1D06DB100222968206828F0DEF836
:103268000028ECD057B1019B3B602546E7E71C4698
:10327800E8E70FB1019B3B602546E0E72546DEE71E
:10328800284603B0F0BD00BF9C5709009C570900B1
:10329800E47803202DE9F04389B004460E469046B1
:1032A8001F46109D0790A5B1296819B107AA28F0F3
:1032B800B5F858B1D5F80490B9F1000F09D0AB684A
:1032C80000933B46424631460798C84709B0BDE8D7
:1032D800F08307A92046FFF781FFE8B1C5683B46A0
:1032E800424631460798A8470028EFD00B4B1B6889
:1032F80013F0070F01D10020E8E704900394084B6E
:103308000293002401940094234601220349204695
:1033180028F075F82046D9E70020D7E730030320C6
:103328007463090008B54FF0FF324FF0FF330248CD
:103338000CF0C0F908BD00BFDC03032008B5024843
:103348000CF038FA08BD00BFDC03032010B5FFF706
:10335800E9FF094B1B7823B10024FFF7EFFF204654
:1033680010BDFFF731FF00F08DF804460028F4D1B6
:10337800014B01221A70F0E771BF03202DE9F047D5
:1033880098B080468946B0F838480134A4B24FF066
:10339800000A0EE0002842DD2946384627F0B5FA33
:1033A8002146384627F0B1FAB8F83838AB4246D04B
:1033B8002C46651EADB2B5F5004F2CD008F10807B4
:1033C8004A2303AA2946384627F0A5FA064604F5F3
:1033D8007F543F34A4B201230DF10B022146384635
:1033E80027F099FA002ED5DD0028D5DD06F1600317
:1033F8000DEB0306002306F8543C1697ADF85C4025
:10340800CDF8009016AB144A014603A8FFF742FF17
:1034180082460028CCD0504618B0BDE8F087B8F8EE
:103428003838AB42C4D1013BA8F83838022308F633
:1034380038024FF400413846FEF7AAFDB8E7013BD1
:10344800A8F83838022308F638024FF40041384605
:10345800FEF79EFDACE700BF7FB4070008B5034B3D
:103468004360FFF775FE002008BD00BF90000320F1
:1034780008B5034B4360FFF77BFE002008BD00BF83
:103488009000032010B584B00123009303A9052000
:10349800FFF708FE034610B1184604B010BD01AA94
:1034A8006946052027F088FF034610B110F10C0F7C
:1034B800F2D1029CB4F5803F24D200221346072B98
:1034C80007D8224403998968914202D301339BB2F9
:1034D800F5E70E4844610383039B5A688260DB6802
:1034E800C0F83C3828F078F803460028D4D10748BB
:1034F800FFF7B4FF03460028CED10448FFF7B8FF12
:103508000346C9E76FF02003C6E700BFEC78032045
:1035180010B504462BF072FC02460349204628F0F9
:1035280072FD002010BD00BFD463090030B583B020
:10353800054613460022019201AA0A21586801F0A3
:103548006BFF019C24B928F06FF8204603B030BD0A
:1035580022460349284628F074FD019CF5E700BF80
:103568000464090008B5034A034928F04CFD00200B
:1035780008BD00BF046509000C6509002DE9F0418C
:1035880082B0054616460023019301AA0A21B068B5
:1035980001F042FF04465FFA80F81849284628F0EF
:1035A80041FD019F8FB9B8F1040F15D8706827F055
:1035B800A5FD00281ADB02B2E3B20021084627F075
:1035C800B7FD384602B0BDE8F0813A460C492846B6
:1035D80028F037FD019FF4E7E2B20A49284628F0AF
:1035E80030FD284628F06BFD0127EAE77268064996
:1035F800284628F026FD6FF01507E2E73865090030
:10360800A0650900C8650900E065090000B583B038
:10361800009000238DF80430694604482FF07DF9A6
:103628009DF8040003B05DF804FB00BF6DB6070009
:1036380010B5044606F0BEFA02460749204628F0AF
:10364800E2FC0649204628F0DEFC214604482FF01B
:103658006EF9002010BD00BFBC660900DC660900D9
:103668006D36050070B58EB004460D46D0F8A860DA
:103678002EF036FF034641F053FD214A125894427A
:1036880029D0204A4BB3009323461F49284628F0E7
:10369800BAFCD4E90A23CDE9002394F90E30227B41
:1036A8001A49284628F0AFFC202205A920460CF02C
:1036B80043FB0246236F1649284628F0A4FC0DA9AF
:1036C80020462EF04FFF024648B11249284628F0FE
:1036D8009AFC0EB070BD104AD4E7104BD3E70D9B8F
:1036E800F11A642201FB02F2B2FBF6F20292019691
:1036F800009132460A49284628F085FCE9E700BFD0
:10370800080000004C980900EC660900F8660900FA
:10371800246709003C6709006C800900E866090015
:103728006C67090070B590B00546002408940994A8
:103738000A940B940C940D940E940F944FF020332C
:10374800089309930A930B930C930D93ADF83830B3
:10375800014614482FF0EBF814B1002010B070BDEA
:10376800114E06EBC42607AA4FF4006130462EF02E
:10377800E7FE079AC2F50061642301FB03F3DB0A45
:1037880005934FF40063049303910292019308ABED
:103798000093234632460549284628F034FC013474
:1037A800DAE700BFB937050048EA0320C467090013
:1037B800F0B589B004460D46D0F8A86007A92EF0E8
:1037C800D1FEB8B920462EF08BFE0799771A6422ED
:1037D80007FB02F2B2FBF6F2034688B104920396A5
:1037E80002970191009622460649284628F00BFCCC
:1037F80009B0F0BD02460449284628F004FCF7E762
:10380800024BEBE7106809003C670900E86609000D
:1038180038B50546134610220021586824F012FCDA
:103828000446FFF7F3FE78B141F07AFC0E4B1B58C3
:103838009C4211D020460CF041FD22460B492846F7
:1038480028F0E1FB002038BD22460949284628F027
:10385800F8FB6FF01500F6E70649284628F0F1FB5B
:103868006FF01500EFE700BF08000000BC68090012
:10387800786809009468090038B50546134610228F
:103888000021586824F0DEFB0446FFF7BFFE78B13C
:1038980041F046FC0E4B1B589C4211D020460CF0C0
:1038A800F5FE22460B49284628F0ADFB002038BD1E
:1038B80022460949284628F0C4FB6FF01500F6E7B0
:1038C8000649284628F0BDFB6FF01500EFE700BF5A
:1038D80008000000286909007868090000690900E3
:1038E80038B50546134610220021586824F0AAFB73
:1038F8000446FFF78BFE78B141F012FC0E4B1B58C3
:103908009C4211D0204603F01FF922460B49284655
:1039180028F079FB002038BD22460949284628F0BE
:1039280090FB6FF01500F6E70649284628F089FB5A
:103938006FF01500EFE700BF08000000906909006C
:10394800786809006869090010B50C46002128F05C
:1039580046FD034600B1036823600023E360024A82
:103968006260A36010BD00BFCC69090010B50C46A9
:10397800002128F03AFD034600B1036823600023C4
:10398800E360024A6260A36010BD00BFCC69090011
:1039980070B505461446506828F02DFD78B10646E6
:1039A8002EF073FA98B930462EF063FA0646B0B195
:1039B800034662680D49284628F043FB0DE062681B
:1039C8000B49284628F03DFB6FF0120605E06268B7
:1039D8000849284628F008FB0026304670BD626872
:1039E8000549284628F000FBF7E700BF106A0900E0
:1039F800D4690900EC690900406A090010B503465A
:103A08000C461146006808B1027822B9024A2046DD
:103A180024F076FA204610BD646A09002DE9F047C3
:103A28008EB00646884691460DA80BF009FC0D9FFE
:103A380007EB4017284A0821304628F0C7FA0D9CA2
:103A480016E02B46254A0821304628F0BFFA2046C2
:103A58002EF01BFAF0B1224B224A0821304628F0FA
:103A6800B5FAE3691BB11D680DB12B68A3B9203401
:103A7800BC422CD2302201A92046FFF7BFFF0546E1
:103A8800B8F1020FDDD1D9F8041041F073F900281C
:103A9800D7D1ECE7144BDFE7144A0821304628F069
:103AA80095FA4FF0000A2B6853450AD905EB8A03AB
:103AB8005B680F4A0821304628F088FA0AF1010AA3
:103AC800F1E70C4A0821304628F080FACFE70020B9
:103AD8000EB0BDE8F08700BF806A09008C6A090053
:103AE8006C6A0900946A0900746A09009C6A0900F2
:103AF8000CAC0900A892090010B584B04A690B699A
:103B08000C6803944C6802948C680194C96800910D
:103B1800013302F26C72024928F075FA04B010BD44
:103B2800906B09002DE9F04182B080460E4614469C
:103B38000A2201A9204624F00FFA019BA34239D09A
:103B480007461A782D2A38D15C1C0A2201A920467A
:103B580024F002FA0546019BA34231D01A782D2A97
:103B680031D1421E0B2A17D85C1C0A2201A9204613
:103B780024F0F2F9019BA34228D01B784BBB431ECB
:103B88001E2B10D8A7F26C777761013D3561F06084
:103B9800002002B0BDE8F0810F49404628F051FAF4
:103BA8006FF01500F5E70D49404628F04AFA6FF026
:103BB8001500EEE76FF01500EBE76FF01500E8E78A
:103BC8006FF01500E5E76FF01500E2E76FF01500FC
:103BD800DFE76FF01500DCE7B46B0900C46B090080
:103BE80070B582B006460D46144613783A2B15D1A7
:103BF800013423783A2B28D101340A2201A920461E
:103C080024F0AAF92860019BA34248D01B78002B16
:103C180048D13C2830D8002002B070BD0A2201A942
:103C2800204624F099F9A860019BA3422BD01A786A
:103C38003A2A2BD1172801D85C1CDAE71B493046F1
:103C480028F0FFF96FF01500E6E70A2201A92046DF
:103C580024F082F96860019BA3421AD01A783A2AA4
:103C68001AD13B2801D85C1CC7E71149304628F017
:103C7800E8F96FF01500CFE70E49304628F0E1F972
:103C88006FF01500C8E76FF01500C5E76FF0150075
:103C9800C2E76FF01500BFE76FF01500BCE76FF0E3
:103CA8001500B9E76FF01500B6E700BFD46B09003F
:103CB800E46B0900F46B090070B58EB004460D463C
:103CC80016460AA90120FDF775FB01A90AA824F0E8
:103CD80073F8032D21D0022D3ED1726801A9204628
:103CE800FFF77EFF90BB01A8FDF7D4FC0A900B916B
:103CF800B1F1FF3F08BFB0F1FF3F33D000230C9371
:103D08000AA90120FDF784FB054690BB01A92046BE
:103D1800FFF7F2FE28460EB070BD726801A9204672
:103D2800FFF700FF60B9B26801A92046FFF758FF06
:103D38000028D8D0204628F0C2F96FF01505E9E729
:103D4800204628F0BCF96FF01505E3E7204628F077
:103D5800B6F96FF01505DDE7204628F0B0F96FF0E9
:103D68001505D7E70749204628F06BF96FF01505C8
:103D7800D0E702460449204628F063F96FF015059C
:103D8800C8E700BF046C0900306C090008B5102AA8
:103D980010D0202A12D0082A05D00A4928F033F971
:103DA8006FF0150005E00A780023074928F02BF981
:103DB800002008BD0A8892B20023F6E70A680023AB
:103DC800F3E700BFD06C0900E86C090008B5029B56
:103DD800102A0DD0202A0FD0082A05D0084928F02B
:103DE80012F96FF0150002E0DBB20B70002008BD7D
:103DF8009BB20B800020FAE70B600020F7E700BFBA
:103E0800D06C09002DE9F04182B004460D461646F3
:103E180010220021706824F015F90746022D1FD8DA
:103E28004FF0200842461549204628F0ECF8032DAB
:103E38001ED910220021F06824F06AF906460D46C2
:103E480002460B460E49204628F0DDF800960195FB
:103E5800424639462046FFF7B9FF02B0BDE8F08177
:103E68000A220021B06824F0EDF85FFA80F8D9E75B
:103E7800424639462046FFF789FFEEE7FC6C090009
:103E8800146D090038B504460D4611B10E4B1B7868
:103E980063B90D4A137883F00103137063B90022E4
:103EA8002946204628F025F9002038BD074928F082
:103EB800C8F86FF00F00F8E70549204628F0A3F886
:103EC800014B01221A70EAE772BF03202C6D09002A
:103ED800686D0900F8B507460E4615460023244AC2
:103EE8001370244A1360244A13600CE000231C4416
:103EF80002222249204640F00FFF98B91C4B0122AC
:103F08001A700435013E012E1DD96C6802221C4925
:103F1800204640F001FF0028E8D1A378002BE6D026
:103F28000123E4E716492046FCF77CF950B12378D1
:103F38002D2B08D1637833B122461249384628F030
:103F480062F8DEE7043500221146686824F07AF842
:103F58000D4B186000221146686824F073F80B4B6B
:103F680018600B493846FFF78DFF0020F8BD00BFE9
:103F780074BF03203081032034810320986D090029
:103F8800946D09009C6D09003C8103203881032051
:103F98009D3F05002DE9F04180460E461746002456
:103FA80020E0335D112B23D100244B4B1C704B4B6D
:103FB8001A684B49404628F026F821464046FFF744
:103FC80061FF484B1B78002B4BD0BDE8F081464A77
:103FD800156846494B5501351560434B1B68022B44
:103FE80019D00134BC42F0D23B4B1B78182BD8D0E7
:103FF800335D394A1370A3F13005EDB2092DE6D9C6
:10400800A3F16102D2B2052AE1D9A3F14102D2B2E9
:10401800052AE2D8DBE710220021344824F012F800
:10402800334A136803F8010B13602C4A13680133F1
:1040380013602D4B00221A60D3E72E4D2A681068B2
:10404800030A03F47F4343EA1063040204F47F0481
:10405800234343EA006342F8043B2A6004391F4BB8
:1040680019601E4B19680429E7DC11F0030F0FD102
:10407800204B18680268130A03F47F4343EA12636B
:10408800110201F47F010B4343EA026303609CE7DA
:104098004B4201F0030103F0030358BF59420229C0
:1040A8000FD0032991D1134B19680B68C3F307424A
:1040B80003F47F4002431B0403F47F0313430B60A4
:1040C80083E70C4B19680B68C3F307221B029BB2EA
:1040D80013430B6079E700BF73BF032034810320CB
:1040E800B46D090074BF0320308103202C810320A4
:1040F8003C810320388103202DE9F04385B08046B8
:104108000F4615461C46DE08002D4FD04FF0000C18
:1041180008E01CF807200CF110010DEB010C0CF85D
:10412800102C9C46B54232D30CEB0603102B2ED82C
:10413800102C0CD0202C18D0082CEAD01C49404652
:1041480027F061FF6FF0150005B0BDE8F0833CF87B
:10415800072092B20DEB0C010CF110000DEB000CD6
:104168000CF8102C120A4A70DBE75CF807200DEBFC
:104178000C010CF110000DEB000C0CF8102CC2F324
:1041880007204870100C8870120ECA70C9E7A9463B
:10419800102D28BF4FF010094B466A463946404655
:1041A80000F0C8FE1037A5EB0905ADE70020CBE706
:1041B800D06C09002DE9F04383B081460D461446C2
:1041C80000230193384B01221A60FDF7DDFA4FF006
:1041D800FF364FF020083746344A21462846FDF777
:1041E800F7FAB0F1FF3F43D073281BD077282CD0C3
:1041F800612804D06FF0150003B0BDE8F08301AA70
:1042080010212B4B186801F007F90646019B002B7B
:10421800E2D0274B1A682749484627F012FF6FF06B
:104228001500E9E701AA0021214B186801F0F4F80C
:104238000746019B002BCFD01D4B1A681E494846E4
:1042480027F0FFFE6FF01500D6E701AA0021184BF2
:10425800186801F0E1F88046019B002BBCD0144B94
:104268001A681649484627F0ECFE6FF01500C3E7B8
:10427800B6F1FF3F0AD0B7F1FF3F0ED05FFA88F3DF
:104288003A4631464846FFF737FFB5E70C494846F6
:1042980027F0D7FE6FF01500AEE70A49484627F029
:1042A800D0FE6FF01500A7E7580003200C6E090038
:1042B80094780320D06D0900E46D0900F86D0900B9
:1042C800146E0900346E090010B50246034653F80F
:1042D800404B402141634362002383854385038526
:1042E80043860386C38500F13801082010621161F6
:1042F8001383D3829382D38393835383C2F8B830D2
:104308000349204627F0D7F9204627F0EEF910BDDB
:10431800D7B807002DE9F04387B080460D464FF027
:1043280000090DE06FF057044FF00109224605F12E
:104338002801304625F0D4FE002C37D0BC4235D1B8
:1043480005F124066A6B05A9304627F053FA07469B
:1043580070B10599D8F808301B69002BE2D00246E5
:104368004046984704460028E0D04FF00109DDE7B1
:10437800134B1B6813F0060F0AD1D8F808301B69D5
:104388008BB101220DF11301404698470446D3E74B
:104398000C4B02930020019000900346022208492A
:1043A80027F04DFAE9E76FF05704C7E7B9F1000FB6
:1043B80003D06B68A9680020984707B0BDE8F08370
:1043C800380303200070090000B583B009482DF0B8
:1043D8005CFD60B1042300930123074A1268054974
:1043E800064800F03FFE002003B05DF804FB6FF0C4
:1043F8001200F9E78C520900187009009C5709004F
:10440800004870479C57090083681975022900D035
:10441800704710B5044683689B6C03B110BD27F044
:1044280070FAA368D3F8BC3313F4805F03D1204635
:1044380028F022FAF2E7054B054A0321204628F026
:104448007DF90021204627F0F9FAF0E7C470090049
:1044580044AC090010B5044627F0D3FAA3685B6C96
:1044680013B1014620469847A3680022C3F8E02309
:1044780040F056FE014B185802F066FB0800000099
:1044880008B58368D3F8B83313F0200F00D108BDFE
:104498000249406927F0D4FBF9E700BF58590900E1
:1044A80010B504468168183101F012FBA168034A6F
:1044B8001831204628F0F7FA10BD00BF087109002E
:1044C80009B10020704710B5044683689B69054A06
:1044D800012128F033F92046FFF7E2FF6FF01500BD
:1044E80010BD00BF18710900F8B50446164680686B
:1044F800426A72B10D4690F8282092B390F829309C
:10450800FF2B25D0AA4226D81344AB4242D2002121
:1045180022E0ABB15A68002A3ED0C1698A420AD06B
:1045280000F1180E9C46BCE80F00AEE80F00DCF85E
:104538000030CEF800302046FFF7B2FF012727E011
:10454800174A0121204628F0F9F86FF007071FE005
:104558004FF6FF73D6E700212046FFF7B1FF074665
:10456800B0B90121204627F0B1FAA06800F57470AF
:104578000BF0B0F9A3685B6A324629462046984793
:104588000746204627F00DFB0021204627F09EFA1B
:104598003846F8BD0121DFE76FF00707F8E700BFED
:1045A8003471090091B110B504460846D36803B9BF
:1045B80010BD204628F01FF8204601F027F8044ACD
:1045C8000121204628F0BAF80020F1E701207047C1
:1045D800547109002DE9F047ACB006466C22002161
:1045E8000CA840F065FB00230693059304934FF055
:1045F800FF330393B36803F15A0A304627F0FBFFF1
:10460800304627F08AFFC8B1B36800279F61DF6191
:104618001F625F629F62304627F0D3FEB168B1F82F
:1046280054205A31304627F022FB304628F018FC37
:104638000897B8460CACB9463D465BE06C497069D2
:1046480027F0FEFAE0E700286AD00346694A01210C
:10465800304628F073F86FF00700A1E0206801F0F9
:104668006BFA00285FD0089B5BB1B468183407ADBB
:104678000FCD0FC42B6823603046FFF711FF0120D0
:104688008EE05D4A0121304628F058F86FF00700A7
:1046980086E022682946304628F007FC022868D0C0
:1046A800032843D0069B013306934FF0010921E00C
:1046B80027AA2168384627F02FFE054639E0069BD1
:1046C80093B9B368DB6A23B1DB6813B14FF0010813
:1046D80048E04A4B00930C9B494A0121304628F098
:1046E8002DF84FF001083DE04FF001083AE0069B35
:1046F80001330693049B012B3BD0069B192B38D81A
:10470800039B002B35D002235246214604A800F013
:10471800E3FDD4F804A0049B002B63D0012B92D0B6
:10472800069B002B9AD1069B002BB2D1B8F1000F43
:10473800BED00434039B013B0393002DBFD02A460F
:1047480049463046FFF72EFF00284ED0B16803AB2C
:10475800019305AB009306AB07AA1831284627F04A
:10476800EFF82F46039B002BC1D1049B022BC1D12C
:10477800BDE7069B192B02D9049B022B13D0B9F174
:10478800000F19D117B17B7CFE2B20D0059907AB00
:104798000CAA02EB81020698411A3046FFF7A4FEE4
:1047A8002CB0BDE8F087174B174A0121304627F097
:1047B800C5FF6FF00700F3E7304628F089FBB268C1
:1047C8001A235A320CA906A800F086FDDAE7069BE0
:1047D8002CAA02EB830252F8802C002AD6D001338F
:1047E8000693D3E76FF00700DAE76FF00700D7E723
:1047F800A89209008471090034710900A0710900A8
:1048080098710900B471090068640900F0B583B0B3
:10481800044616461D468068B0F8542040F29F139F
:104828009A4248D00F46B0F8562000F15A0100F5D8
:10483800FD7040F016FAA368B3F85620134400221E
:1048480083F8FA21A2681A2302F5FD723168284616
:1048580000F042FD2B681A2B30D83268002142F84C
:104868002310A368B3F85620D2B1013A134493F841
:104878005A30144AD35C03F008032C6894B113B976
:10488800012C0FD0013C00200190099B0093089B4C
:104898003268214627F063FD386048B101200BE0FB
:1048A8000023EAE70023089A13603B60012003E035
:1048B80034B9012000E0002003B0F0BD0020FBE780
:1048C8000020F9E795BA0900F8B504460E461F46D8
:1048D80072B31046FBF7B8FC85B2A26818323946A5
:1048E800304600F01FFD066826B33046FBF7ACFCE7
:1048F80080B2A84220D1A268B2F85630134493F887
:104908005A301649CB5C13F0080F21D1D2F8B833CE
:1049180013F0010F17D00021204627F007F92021B6
:10492800204627F057FF0121204627F0FFF8F8BD61
:104938000025D2E70020DCE7421B92B2711920461D
:1049480027F064FFD7E72021204627F043FFEEE752
:104958000121204627F0FCFDE9E700BF95BA0900D0
:104968002DE9F04182B0064649B30F46023294B2AF
:10497800D0F80880B8F83A50023D95FBF4F5ADB28E
:104988000846FBF761FC80B2241AA4B2B8F840309C
:104998005A1CA8F84020B3FBF5F205FB12339BB272
:1049A80093B900970C4B0D4A0621304627F0C6FEF6
:1049B8002146304600F0E6FD02B0BDE8F08183688C
:1049C8000022A3F84020F7E73B46054A0621304677
:1049D80027F0B4FEECE700BF50920900D871090037
:1049E80044AC09002DE9F84F074689461D460A9E42
:1049F800BDF82CB0904652B11046FBF725FC1FFAC3
:104A080080FA5A4600213846FFF7AAFF08E04FF01F
:104A1800000AF6E75A4621683846FFF7A1FF013E2B
:104A2800A6B1BA6818322946484600F07BFC04460D
:104A38000135B8F1000FEDD000680028EAD05246E1
:104A4800414640F069F90028E4D0E9E7044978696B
:104A580027F0F6F8384627F00FFFBDE8F88F00BFBB
:104A6800A892090010B50446013916290FD8DFE8C5
:104A780001F00C0F1226292C0E0E0E0E2F320E4CA2
:104A88000E500E0E0E54570E640027F0ABFD10BDED
:104A980027F0BCFDFBE727F0AEFD204627F03DFDE3
:104AA80040B10121204627F029F802212046FFF7CE
:104AB800ABFCECE72449606927F0C2F8F1E727F07E
:104AC800A9FEE4E727F097FDE1E727F0AAFDDEE776
:104AD80027F0B4FDDBE78368D3F8B83313F0200F71
:104AE80009D1A368D3F8B83313F0200F08D12046B2
:104AF80027F0C2FECBE71549406927F0A1F8F0E797
:104B08001349606927F09CF8F1E7002127F0ACF918
:104B1800BDE7012127F0A8F9B9E727F07FF8B6E744
:104B280027F060FD204626F0ECFE0121204626F005
:104B3800E5FF2046FFF7A4FCA9E700F00FFE0121DE
:104B4800204626F0DBFFA2E7A89209006059090079
:104B580068590900F0B587B00446002305930CE1B5
:104B6800606803681D6905AB01220DF11301A847B0
:104B7800059B002B00F02D819DF813109DF9133033
:104B8800002BC0F2FA80A268537D032B00F2238128
:104B9800DFE813F004008A009C00EE00204626F0AF
:104BA800F9FEA8B99DF813101B2927D81B2962D82C
:104BB800DFE801F0E0616161616161614E3F61615F
:104BC8006161616161616161616161616161613BF3
:104BD800A568B5F854305BB9204627F03FF87F49FF
:104BE800606927F02DF802212046FFF70DFCC4E08C
:104BF8002046FFF7EFFCC5F8E403F4E77F293AD134
:104C0800A368D3F8B83313F0020F00F0B380012182
:104C1800204626F073FFA368D3F8B83313F0080FC3
:104C280025D0204627F015FEA4E0A36801225A7576
:104C3800A0E0A368D3F8B83313F0020F00F09A800D
:104C48000121204626F05AFF204627F0B5F891E0CA
:104C5800A368D3F8B83313F0020F00F08B8001215A
:104C6800204626F04BFF204627F0F3FD82E0204641
:104C780027F0D0FD7EE05A4B5B5C13F0970F09D10B
:104C8800A368D3F8B83313F0020F73D02046FFF7A8
:104C9800E9FE6FE00121204626F030FF9DF8131051
:104CA800204627F097FD65E05B2908D0D2F8B83395
:104CB80013F0020F06D1A36800225A755AE00223A6
:104CC800537557E0204627F0C0F8F4E700235375E2
:104CD800A368D3F8B82312F0020F4ED031391B293C
:104CE80048D8DFE801F0262C39204747474747478F
:104CF8004747474747470E13181C47224728474747
:104D0800472E0121204627F0AFF833E00021204646
:104D180027F0AAF82EE0204627F083FC2AE0204658
:104D280027F074FC26E003225A75204627F063FC1E
:104D380020E003225A75204627F054FC1AE003228B
:104D48005A75A368D3F8B81301F0010181F0010185
:104D5800204626F0EBFE0DE003225A75A368D3F82F
:104D6800B83313F0020F05D0204627F053FD01E0B9
:104D780000235375606927F0C6F9A3689D6CDE6C43
:104D8800002D3FF4EDAE606803681F6905AB102283
:104D98006946B847059BE3B10121204626F096FEF7
:104DA800A06800F574700AF095FD3346059A6946C7
:104DB8002046A847204626F0F4FE0021204626F08B
:104DC80085FEA3689B6C002BD7D102212046FFF7F4
:104DD8001BFB07B0F0BD00235375CBE7A892090071
:104DE80095BA090083681A7D012A31D110B50446A5
:104DF800D3F8BC2312F4804F04D0D3F8B82312F0B0
:104E0800040F1CD04FF480420023204626F0D4FE25
:104E1800D8B10821204600F077FC0F49606926F0D8
:104E28000FFF02212046FFF7EFFA204627F036FD54
:104E3800A06800F574700AF04DFD002010BD1A6DD1
:104E48000146C06927F0F7FDDCE76FF00F00F5E7D2
:104E58006FF08500704700BFA892090030B583B095
:104E680004461546003918BF012126F0FFFDA36846
:104E78001D65606803689B680021984708B103B006
:104E880030BD2046FFF7AEFF30B1F8E79847A0687D
:104E980000F574700AF01EFDA06800F570704FF000
:104EA800FF324FF0FF33CDE90023002207212DF018
:104EB800C4FE204626F075FE0A4A0421204626F044
:104EC80085FE094A0121204626F080FE074A022174
:104ED800204626F07BFE606803685B69002BD5D10D
:104EE800D5E700BF5D44050023BF0700E3B907000D
:104EF80010B504460A4927F086F80A49204627F0E3
:104F080082F80949204627F07EF80849204627F00C
:104F18007AF8074A0021204627F0C5FD002010BD79
:104F2800E07109002072090080720900D47209003A
:104F380070730900F8B5054617461E460A46244907
:104F480027F061F8002409E02249284627F05BF899
:104F58000BE02149284627F056F801340F2C0CDCC9
:104F6800002C02DD14F0070FEED0B442F1D23A5D06
:104F78001A49284627F047F8EFE71949284627F045
:104F880042F8002409E01349284627F03CF80BE0D2
:104F98001449284627F037F801340F2C13DC002C6D
:104FA80002DD14F0070FEED0B44207D23A5D0E4B83
:104FB8009B5C13F0970FEBD12E22E9E705492846B1
:104FC80027F021F8E8E70949284627F01CF8F8BD3A
:104FD800887309004C9809002863090020630900B8
:104FE800A49A0900CC5E090095BA090090730900DB
:104FF800F8B504460E4615464FF47A7200218068CB
:105008003FF056FEA06800F570702DF005FEA06810
:1050180000F57470012211462DF0BCF8A369002731
:105028001F600121204626F039FDA36850225A87C7
:10503800A36818221A872168204627F011F867F319
:105048008205A368C3F8B853606803681D682346DF
:10505800034A3146A84710B9A36801221A75F8BD5A
:10506800FDBB070070B588B004468068D0F8E0033F
:1050780010BB1D462046FFF7BBFF064610B1304661
:1050880008B070BDA06AE16A00220023CDE90623BA
:10509800002304930E2303930C9B02930195009421
:1050A800074B4FF446622DF029FAA368C3F8E003D2
:1050B800616A0AF02FFEE2E76FF07706DFE700BFCC
:1050C800654E050010B5044613460A4601460548D4
:1050D80002F0BEF823691B7903B910BD204627F0FA
:1050E80012F8FAE727C1070070B50C46037873B1C8
:1050F8002388C21812F8012C11498A5C12F0080F93
:1051080006D0013B9BB22380002BF1D1037070BD08
:105118000022C25413461D4601339BB24119425D19
:10512800074EB25C12F0080FF5D1002DEFD022889F
:10513800521B01323FF0A2FD23885B1B2380E6E768
:1051480095BA09002DE9F8430746056800269CE052
:105158006C1C4DB12846FBF777F882B221462846E9
:105168003FF08CFD254690E00022F7E76E1C4DB11C
:105178002846FBF769F882B2314628463FF07EFDA3
:10518800264682E00022F7E76C1C4DB12846FBF763
:105198005BF882B2214628463FF070FD002674E095
:1051A8000022F7E76C1C2846FBF74EF882B221462E
:1051B80028463FF063FD254667E04FF000080224CB
:1051C800042C0CD82B5DA3F13002D2B2072A06D8E2
:1051D80042EAC8025FFA82F80134E4B2F0E7022C2E
:1051E8006DD904F1FF39A94465B12846FBF72CF8BD
:1051F80082B2023C121B494628463FF03FFD05F8A3
:10520800018B42E00022F4E7A3F16102D2B2052A41
:1052180014D8573BDBB243EA08135FFA83F801342A
:10522800E4B2032C16D82B5DA3F13002D2B2092ABE
:10523800EAD842EA08125FFA82F8F0E7A3F14102DD
:10524800D2B2052A06D8373BDBB243EA08135FFA25
:1052580083F8E4E7022C17D904F1FF39A94465B1B2
:105268002846FAF7F1FF82B2023C121B494628464B
:105278003FF004FD05F8018B07E00022F4E7154B29
:105288001B5D13F0080F20D101352C78ECB146B91D
:10529800272C3FF46BAF5C2C3FF45AAF222C3FF421
:1052A80065AFA6423FF470AF002EE8D05C2CEBD17E
:1052B8006B789E423FF476AF302B3FF47EAF782B6D
:1052C800E2D14FF000080224ABE73D603046BDE86C
:1052D800F88300BF95BA090070B582B004460E463F
:1052E80001921D460020206007E0531C0193002313
:1052F800137002E001A8FFF725FF019A117869B140
:10530800074B5B5C13F0080FEFD123685A1C22602F
:10531800019A46F823202368AB42EBD102B070BD56
:1053280095BA09008C46034688B110B514468068C2
:1053380020B3154B984214D3144B984211D20368EA
:105348001146604698472068C0B1204616E01049CB
:10535800104A521ABCEB920F01D251F82C30184661
:1053680070470D4B984202D30C4B984207D3006804
:105378000CEB8C0C00EB8C0003681BB110BD0CF11E
:10538800010CF5E71846F9E72859090030590900D2
:10539800CC570900FC570900FC5709002859090097
:1053A800002835D0F8B50646FAF74EFF85B275B332
:1053B8000024274606E00137BFB2013292B20EE060
:1053C8000134A4B2AC466B1E9C4220DA2046335D01
:1053D800104AD35C13F0080FF2D0621C92B29542C7
:1053E800EED906EB020EB35C0A49CB5C13F0080F4A
:1053F800E1D1002FE4D00130ACEB0202013271465A
:1054080030443FF03BFCEF1BBDB20027D8E7F8BDA6
:10541800704700BF95BA0900F0B583B01646037807
:105428002D2B19D004463FF07BFE0546104F002374
:10543800C3510A4601A9204622F004FEEB59222B4B
:1054480010D023B9019BA34201D01B7843B16FF060
:1054580015033360002003E06FF01503136000208C
:1054680003B0F0BD6FF0210333600020F8E700BF00
:105478000C00000070B484460020064605E0002BAE
:105488000DDD15E00126013080B213FB00F411FA9E
:1054980084F4A4B20CB9002B0ADB9442EFD01CF8B8
:1054A8000440044D2C5D14F0070FEBD1002EEAD018
:1054B80070BC704795BA090008B58368D3F8B8334B
:1054C80013F0200F00D108BD0249406926F0C2FF41
:1054D800F9E700BF7059090008B58368D3F8B833F5
:1054E80013F0200F00D108BD0249406926F0B2FF31
:1054F800F9E700BF7459090008B58368D3F8B833D1
:1055080013F0200F00D108BD0249406926F0A2FF20
:10551800F9E700BF7C590900082915D814D008B547
:10552800836893F83F208A4207D083F83F10836846
:10553800D3F8B83313F0200F00D108BD0A46034949
:10554800406926F087FFF8E7704700BFCC73090071
:1055580008B50A1E09DD4123002A0ADB8168D1F853
:10556800B81311F0200F06D108BD002AFCD0422341
:10557800F2E75242F2E70249406926F06BFFF3E78F
:10558800D873090008B50A1E09DD4323002A0ADB7F
:105598008168D1F8B81311F0200F06D108BD002A90
:1055A800FCD04423F2E75242F2E70249406926F070
:1055B80051FFF3E7D873090010B504460A4683681B
:1055C800B3F85610481CA3F856000B4483F85A2029
:1055D800A368D3F8B81311F0020F0DD0D3F8B8337D
:1055E80013F0040F00D02A220649606926F032FF22
:1055F800204626F092FF00B910BD0349606926F0E5
:1056080029FFF9E7CC5E0900A892090010B5044605
:1056180026F083FF18B9204626F02AFF18B1024960
:10562800606926F017FF10BDA8920900F8B5054675
:105638008468B4F85420B4F8561004F1300026F009
:1056480025FEA78EE68E284626F012FF70B9B742CF
:1056580011D0E18EA38EC91A2846FFF779FF218E53
:10566800638EC91A2846FFF78DFFF8BD054968699A
:1056780026F0F0FEEBE7218E638EC91A2846FFF765
:1056880081FFF2E7A89209002DE9F84305468468EE
:1056980014F15A0006D0FAF7D7FD86B294F83C7098
:1056A80000231BE00026F9E71C44224492F85A9094
:1056B8004FF0000882F85A80AA6858331A44023218
:1056C8000F49686926F0C6FEAB68234483F85A90F0
:1056D800AB685B8FDB1BF61A23464746AA68548FD4
:1056E800E41BB442E0DB002E01DCBDE8F88358334C
:1056F8001A4402320349686926F0ACFEF5E700BF98
:105708006864090044AC0900082921D808B58368F1
:1057180093F83E208A4209D083F83E1008290CD01D
:105728008368D3F8B83313F0200F00D108BD0A46B8
:105738000849406926F08EFEF8E78368D3F8B83345
:1057480013F0200FF2D00449406926F083FEEDE7FC
:10575800704700BFE0730900805909008168B1F8FB
:105768005420002A46D070B50546B1F85630002BB3
:105778003FD057330B44023301F15A0C002402E0A6
:105788000134A4B2013B634502D319782029F7D02C
:10579800634506D31978202903D00134A4B2013B0C
:1057A800F6E75E1C611C121B194430463FF066FA8E
:1057B800AA68B2F854301B1BA2F85430AB68B3F88F
:1057C80054201344002283F85A20614209B2284623
:1057D80026F0BEFE2846FFF76FFE3346064A08212C
:1057E800284626F0ABFF2846FFF776FE2846FFF747
:1057F80083FE70BD704700BF44AC09002DE9F04737
:1058080004460E46904672B9D4F80890D9F8B833D1
:1058180013F0040F2AD0B9F8560058304844023023
:10582800FAF712FD07E0FFF757FEEDE72F49606929
:1058380026F010FE2846451E0028F7D1A368B3F8C5
:105848005420A3F85620204626F012FE38B1B8F1AD
:10585800000F00D01EB12649606926F0FBFD714299
:1058680009B2204626F074FEBDE8F087B9F85470F6
:10587800B9F1000F19D04846FAF7E6FC83B21F4485
:10588800B9F856502B44B9F83A2093FBF2F197FB3C
:10589800F2F2914218D1583509EB05030233154A43
:1058A8000821204626F04AFFC8E70023E7E7A36857
:1058B80005F1010A2B4493F85A300F4A0821204673
:1058C80026F03CFF55464B46BB42B7DA03F10109C7
:1058D800A268528F93FBF2F102FB1133002BE6D141
:1058E8000349606926F0B6FDE1E700BF6C80090056
:1058F800A892090044AC0900CC5E090008B5836889
:10590800024A022126F01AFF08BD00BF44AC090074
:10591800002977D02DE9F843804617460E460BB983
:10592800002404E01146FFF72DFEF9E70134335D4A
:10593800354AD35C13F0080FF8D115E0002339E09D
:10594800D8F8140026F0DFFB2A463119404626F025
:10595800A0FE09F101042D49D8F8140027F095F8A4
:1059680039464046FFF70EFE3046FAF76DFC83B223
:105978001B1BD8F80820508FC51B9D42DED300257D
:105988009D4207D204EB050916F809200A2AD7D048
:105998000135F5E73119D8F8140027F076F81B49D6
:1059A800D8F8140027F071F8BDE8F883DA199042A6
:1059B8000CD90133E218B25C1349895C11F0080F65
:1059C800F4D00A2A01D01D46F0E71D46D8F8140085
:1059D80026F099FB2A463119404626F05AFE2C44F7
:1059E800335D094AD35C13F0080F01D00134F7E79F
:1059F8000649D8F8140027F048F839464046FFF71A
:105A0800C1FDB1E7704700BF95BA0900A892090027
:105A1800F8B505460F4614461E46516819B10023CD
:105A28003246FFF775FFA3687BB131462846FFF77A
:105A3800A9FD3B46054A0821284626F07FFE00239B
:105A4800F21DA1682846FFF763FFF8BD0874090036
:105A5800002932D0F0B583B005461C46931D9EB28E
:105A68000F460B780BB903B0F0BD01910092134BB0
:105A7800134A082126F062FE9CB1104B114A0821F6
:105A8800284626F05BFE14F0030F03D122680E4B64
:105A98009A420BD00023324621462846FFF738FFAA
:105AA800E1E70A49686926F0F0FFDCE73346224659
:105AB80039462846FFF7ACFFD5E77047347409002C
:105AC8001474090004630900C40BD286A892090063
