:020000040000FA
:10000000907101204D9E00005DFF0300399E0000AD
:10001000399E0000399E0000399E0000399E000084
:1000200000000000000000000000000019A0000017
:10003000399E000000000000759F0000399E0000FE
:1000400039A2000039A2000039A2000039A2000044
:1000500039A2000039A2000039A2000039A2000034
:1000600039A2000039A2000039A2000039A2000024
:1000700039A2000039A2000039A2000039A2000014
:1002500039A200000777040039A2000039A200008B
:1002600039A2000039A200003377040039A200004F
:1002700039A2000039A2000039A2000039A2000012
:1002800039A2000039A2000039A2000039A2000002
:1002900039A2000039A2000039A2000039A20000F2
:1002A00039A2000039A2000039A2000039A20000E2
:1002B00039A2000039A2000039A2000039A20000D2
:1002C00039A2000039A2000039A2000039A20000C2
:1002D00039A2000039A2000039A2000039A20000B2
:1002E00039A2000039A2000039A2000039A20000A2
:1002F00039A2000039A2000039A2000039A2000092
:1003000039A2000039A2000039A2000039A2000081
:1003100039A2000039A2000039A2000039A2000071
:1003200039A2000039A2000039A2000039A2000061
:1003300039A2000039A2000039A2000039A2000051
:1003400039A2000039A2000039A2000039A2000041
:1003500039A2000039A2000039A2000039A2000031
:1003600039A2000039A2000039A2000039A2000021
:1003700039A2000039A2000039A2000039A2000011
:1003800039A2000039A2000039A2000039A2000001
:1003900039A2000039A2000039A2000039A20000F1
:1003A00039A2000039A2000039A2000039A20000E1
:1003B00039A2000039A2000039A2000039A20000D1
:1003C00039A2000039A2000039A2000039A20000C1
:1003D00039A200001D77040039A2000039A20000F4
:1003E00039A2000039A2000039A2000039A20000A1
:1003F00039A2000039A2000039A2000039A2000091
:1004000039A2000039A2000039A2000039A2000080
:1004100039A2000039A2000039A2000039A2000070
:1004200039A2000039A2000039A2000039A2000060
:1004300039A2000039A2000039A2000039A2000050
:1004400039A2000039A2000039A2000039A2000040
:1004500039A2000039A2000039A2000039A2000030
:1004600039A2000039A2000039A2000039A2000020
:0C04700039A2000039A2000039A20000EF
:10048000014B1B681B68184760000020014B1B686C
:100490005B68184760000020014B1B689B68184789
:1004A00060000020014B1B681B691847600000209A
:1004B000014B1B685B69184760000020014B1B68FB
:1004C0009B69184760000020014B1B68DB691847D7
:1004D00060000020014B1B681B6A18476000002069
:1004E000014B1B689B6A184760000020014B1B688A
:1004F000DB6A184760000020014B1B681B6B184724
:1005000060000020014B1B68DB6B18476000002077
:1005100030B4044C9DF8085024680295E468A44661
:1005200030BC604760000020A32D0000A92D000012
:10053000AB2D0000D12D0000AF2D0000DB2D000001
:10054000B52D0000E52D0000BB2D0000F12D0000B1
:10055000C72D0000CB2D0000BD2D0000C32D0000D5
:10056000E12D0000EB2D0000042810B511D883B157
:1005700004280CBF10242824A1420AD2064C54F8A7
:10058000200018B141568A42A8BF0A4600201A70BE
:1005900010BD6FF01500FBE720140020072803466C
:1005A00011DC10F12D0F10DB094A101890F82E0005
:1005B00002EBC00292F93C209A4207D0002918BFF2
:1005C0000130C0B270471B2070470020704700BF49
:1005D0004C4D0600072808B507DC0021FFF7DEFFB9
:1005E000034B03EBC003986B08BD3F20FCE700BF43
:1005F0004C4D0600072808B507DCFFF7CFFF044B7A
:1006000003EBC00393F93C0008BD0820FCE700BFE2
:100610004C4D0600C0B208B520B9044B01229A60C7
:100620001A6008BD4D21B52001F032FF00E01050E6
:1006300010F0FF0008B513D10B4B01225A60DA60AD
:100640000A4AC3F800011070D3F8082412F001021E
:1006500005D1C3F81021C3F81821C3F8142108BD2F
:100660007C21B52001F014FF00E01050351400206B
:10067000014B01221A7070473514002008B540B9AB
:10068000064BD3F8103113B9054B187808BD01207B
:10069000FCE7C221B52001F0FBFE00BF00E01050D6
:1006A00035140020024BD3F8080400F00100704715
:1006B00000E01050024BD3F8480400F001007047EE
:1006C00000E01050024BD3F84004C0B2704700BFA6
:1006D00000E0105007490246D1F84C04D1F84C1400
:1006E00010F4803005D0D0B201F003031B1A584239
:1006F0005841704700E0105038B51A4BD3F80C340D
:10070000DA0304D440F27D116D2001F0C1FE164AD7
:100710000124164B106A536620F03F009464546421
:10072000136CDB03FCD4136A116C03F03F03C1F3B9
:100730000A01C1F5806181EAE1750B29A5EBE1753C
:1007400009DD3F2B04D0013303431362172DE6DC90
:100750000023936438BD0B31F8DA002BF8D0013B4D
:10076000F2E700BF00E010500008125001000080C6
:1007700038B50B4C23781BB100232370FFF7BCFF67
:10078000EFF3108572B6637803F0FF000BB9FFF743
:100790004FFF05B962B6034B00225A6638BD00BF51
:1007A0003814002000081250F8B5104E01270446F6
:1007B0000D463318DF7002F01DFB60B934B90C4BE5
:1007C00011227771B560C3F80423F8BD40F22911F6
:1007D0006D2001F05DFE002DF7D01CB90220A84766
:1007E000B460F2E74FF4A271F2E700BF38140020C2
:1007F00000E01050044B0022191803EB80034A71EB
:100800009A60CA70704700BF38140020014B1882EC
:10081000704700BF38140020014B188A704700BF92
:100820003814002010B5EFF3108472B6064B034461
:100830005A780132D2B25A705B78012B01D1FFF79E
:10084000E9FE04B962B610BD38140020034610B5A5
:10085000EFF3108472B611490B445A7822B940F272
:100860005B216D2001F014FE5A78013AD2B25A7021
:100870005B7883B90B7D43B1094BD3F80C34DB03B0
:1008800006D44B7803F0FF002BB9FFF7D1FE02E04E
:10089000487D01F0EBFE04B962B610BD38140020AB
:1008A00000E0105010B502F0A8FA0C4C02F0A2FAC9
:1008B00060B1A37D3BB90A4B01229A610423E37521
:1008C0000023237610BD02F09BFAF9E703230122EF
:1008D000E375034BC3F80423F2E700BF381400208C
:1008E00000E01050014B01221A62704700E01050E6
:1008F000044B587E28B1044BD3F81001B0FA80F0B5
:10090000400970473814002000E0105038B50C4BF7
:100910005D7E5DB901245C7602F06FFA094B10220E
:10092000C3F81051C3F80423DC6138BDFFF7E0FFC2
:100930000028FAD040F297216D2001F0A9FD00BFF8
:100940003814002000E01050024BD87D003818BF4A
:10095000012070473814002038B5174C237D23B987
:1009600040F20A316D2001F093FD01232370A37D35
:10097000C3B9A37EB3B1227E013B9A4212DA02F0E0
:1009800039FA054601F01CFEA37E012B82BF237EAF
:100990000133237655B1E369C31A0133022B09D918
:1009A00035B1E061BDE83840FFF77CBF236AF3E76B
:1009B0002062F7E738BD00BF3814002037B5184C67
:1009C000A37D63B9606A00F00300FFF783FE30B1D6
:1009D000EFF3108372B6E27D1AB103B962B603B0C9
:1009E00030BD0122E27503B962B608230D4DC5F88A
:1009F00008334FF42073ADF80630BDF806309BB2D3
:100A00005A1E92B2ADF80620002BF6D1C5F80C3173
:100A100084F82830FFF746FF0823C5F80433DEE7E3
:100A20003814002000E010502DE9F74F4E4C237D84
:100A3000002B00F096800323ADF804304B4BD3F825
:100A40000051D3F80891D3F8142112B9D3F8182122
:100A50006AB10026C3F81461C3F81861C3F81061C5
:100A6000637E0BB102F0CCF9667602F076FA3F4B6A
:100A7000D3F81031002B59D0637E1BB102F0C0F9BE
:100A800000236376637913B102238DF80430003DAF
:100A900018BF012545F01005354E0DF1040A334B02
:100AA0004FF00008F71EC3F808531AF8010B03288B
:100AB0000AD03B7843B14FF0000B336887F800B0A1
:100AC00013B19847C6F800B008F1010304360137A6
:100AD0004FF00108022BE8D1B9F1000F08D0234BE9
:100AE0000022C3F808210422C3F80823FFF766FF99
:100AF00094F82860EA071D4BF6B2D3F80C7108D5BC
:100B0000E27D032A05D1A27DA2B90422E275012269
:100B10009A61C7B1154B0022C3F80C21E37D042B69
:100B20000DD040F26D316D2001F0B2FC002DD3D01C
:100B30000125B1E702F064F90223E375E9E7022336
:100B4000E37502F05DF966B1002384F82830E37D97
:100B5000022B01D1FFF7A6FE03B0BDE8F04F02F073
:100B60004FB903B0BDE8F08F3814002000E01050FA
:100B70004014002010B5054C606A00F00300FFF738
:100B8000A9FD0028F8D0002010BD00BF38140020B7
:100B9000F8B5054650B10278022A07D8437842B921
:100BA000013B1F2B02D88378212B07D96FF015004A
:100BB00088E0002BFAD18378002BF7D1634B2022F9
:100BC000C3F8A020BFF34F8FBFF36F8F604EC3F801
:100BD000A0217D235F4CC6F808330023C6F80031FE
:100BE000C6F80831C6F80C316370A370AB88638215
:100BF000FFF758FD10B10123E3706370D6F80C04C1
:100C000040F2563310F4803023821BD0FFF730FDC2
:100C1000514801F011FD4E4E602360750022C6F868
:100C200004332B78A978012B62766262A375A176D2
:100C3000227620D0022B17D0F3B140F222516D2042
:100C400001F026FCC6F81001FFF7E4FC404AD2F898
:100C50001031002BFBD0FFF74FFD0020FFF7E8FC21
:100C60003E4B00225A66D3E702F0C7F8D6F80C34A0
:100C7000D903FBD502236362FFF71CFD40B3FFF7E6
:100C800021FD636A03F00303984221D1AB79D3B904
:100C9000FFF770FFA37E63B12B7853B902F0AAF877
:100CA000054601F08DFC6FF00043002D4BD0C4E9E8
:100CB00007030123202200202375244BE075C3F88D
:100CC000A0211A62F8BD224B0422C3F80423E1E7F5
:100CD0001F4B012200215A61C3F8081194F8241017
:100CE000C3F840141A610422C3F80423AA79002A25
:100CF000D0D1D3F80423520702D440F2D5419EE765
:100D0000174A1769116907F0100741F010011161C6
:100D1000D3F808310BB902F006FB0D4ED6F80831B6
:100D200073B1FFF727FF27B90D4A136923F01003AA
:100D300013610423C6F808330023C6F80831A9E775
:100D400002F0EFFAEAE7C4E90730B2E700E100E0B9
:100D500000E0105038140020710700000008125005
:100D600000ED00E038B50C4B0C46197919B1832120
:100D70006F2001F08DFB60B95D790DB1002038BDA9
:100D800001225A71FFF74EFD21462846FFF70CFD60
:100D9000F4E76FF01500F2E76414002038B50B4D4E
:100DA00004462B791BB19A216F2001F071FB50B9D9
:100DB0006B790BB9002038BDFFF71CFD20466C7124
:100DC000FFF744FDF6E76FF01500F4E76414002028
:100DD000014B9B68184700BF64140020014BDB687F
:100DE000184700BF64140020014B1B69184700BF5F
:100DF0006414002008B5064B1B7923B140F237116B
:100E00006F2001F045FBBDE80840FFF7A5BD00BF1E
:100E100064140020034B1A790AB9FFF7FDBC988AC5
:100E2000704700BF64140020024B1B790BB9FFF719
:100E3000C5BD704764140020014B9B69184700BF73
:100E40006414002038B51D4C237933B3FFF7CCFF71
:100E500050B91B4DC5F81001FFF7BAFFD5F8103196
:100E6000002BFBD0FFF7BAFF154B6022C3F8042319
:100E7000636A9847002806DB94F82E3023B10123DB
:100E8000002084F8303038BDFFF7D6FF0028F6DAAE
:100E900040F28D116F2001F0FBFA0A4BA3610A4B5F
:100EA000E3610A4B23620A4BA3600A4BE3600A4BDF
:100EB0002361FFF76DFE0028E1D0E4E76414002011
:100EC00000E01050750B00000D2E000049090000D5
:100ED000FB2D0000012E0000072E000038B5084B46
:100EE00004461D7925B140F2E1116F2001F0D0FADE
:100EF00000F0D0FD2046FFF789FC284638BD00BF32
:100F00006414002008B5074800F0B2FD054800F061
:100F100019F801F08DF800F0AFFF00F035FA01206C
:100F200008BD00BF9814002008B5054B1A781AB107
:100F30002721032001F0ACFA5860197008BD00BFEA
:100F4000A0140020024B986000221A705A6070476B
:100F5000A0140020F7B51E4C2378012BDAB204D080
:100F6000022A2ED0012003B0F0BD0DF10701606808
:100F700000F026FA65686B7DDB071CD5AB7F042B80
:100F800019D000F009FE0646A8B100F00BFE2B694F
:100F9000D5E900279A18B36847F100070A332CBF38
:100FA000012500251B1845EB01059342BD4102D3E5
:100FB000606800F0ADFA0023636023709DF80700BD
:100FC000D1E70DF10701606800F006FAF3E700BF12
:100FD000A014002073B505460C4600F0DDFD064662
:100FE000AB7F012B1AD021462B4604F1180251F891
:100FF000040B914243F8040BF9D101230DF10701D1
:101000002846AB7700F0DCF916B1012002B070BDC4
:10101000034B0421986802F047F9F6E70020F5E752
:10102000A0140020024B0621986802F03DB900BFD1
:10103000A0140020042300F1180283770023037614
:1010400043768376C376044B196811B91A605A60E7
:10105000704759680A60FAE7AC1400202DE9F8439C
:10106000174E002407468846B368204633B928B394
:10107000144B1878BDE8F84301F0F8BA53E90615A7
:1010800053F8082CD3F80090521845F10005BA42E5
:1010900075EB080510D24CB1226812682260A3F1EA
:1010A0001800FFF7C7FF01204B46DFE7B268002AB0
:1010B000F5D01268B260F2E71C46F5E7BDE8F883A8
:1010C000AC1400206400002000232DE9F0471360D9
:1010D0000646324B986800285DD0A0F1180550E90B
:1010E000063CB3427CEB01040AD250F8084CE318EA
:1010F0004CF1000C9E4271EB0C043CBF33468C4615
:1011000050F8104C00270A3447F10000E3184CEB6C
:10111000000C2846D5F81890B9F1000F3BD059E9DA
:1011200006E89E4578EB0C0435D290F814A019F827
:10113000044CA24526D08CBF01240024F4B105F153
:101140001803B645136078EB01030CD259F8083C3C
:1011500013EB0E0348F100089E429E4671EB080314
:101160003CBFB646884659F8103CA9F118000A332E
:1011700047F1000C13EB0E0348EB0C0CAD6955B1B5
:10118000183DC7E7B9F80440B0F81CA0A4EB0A0466
:10119000C4F3C034D2E7BDE8F08700BFAC14002030
:1011A0002DE9F04F85B082834F4A04460091D2F872
:1011B00008C094F81580D0E90030BCF1000F40D091
:1011C000ACF11801002708F00109D1E9002693428B
:1011D00070EB06056ED3B9F1000F2CD0277D0D7D85
:1011E000AF4228D38D68AD1846F1000615F10A0A02
:1011F00046F1000E534570EB0E0219D22269D21847
:1012000040F1000792457EEB070B01D2524677462C
:10121000AA42B7410FD220460024FFF70BFF334B01
:10122000187801F023FA009B1C7005B0BDE8F08F20
:101230001A460746ECE78A690F4622B1A2F1180167
:10124000C3E76246674618F0010F38D0A168C91895
:1012500040F1000B019192B3019DD2E9001615F106
:101260000A0E4BF10005714576EB050527D294F87F
:1012700014E0157DAE4519D395686D1846F100064A
:1012800015F10A0946F100084B4570EB080113D22D
:101290002169C91840F1000E894578EB0E0A01D288
:1012A0004946C646A9427EEB060EB4D3926932B1D6
:1012B000183AD1E70A46C6E719468646F2E704F12E
:1012C00018035FB1BA69A261BB6103AA00200021C3
:1012D000FFF7FAFE231A5C425C41A4E7024AC4F815
:1012E00018C09360F1E700BFAC1400206400002038
:1012F000F8B5244C0023E360EFF3108272B6216846
:101300006360E160236002B962B60026E36803B956
:10131000F8BD9A79A3F11800032A07D11A680121B0
:101320009E7153F80C3CE2609847EFE7196851B1A1
:10133000A1F11803074600229D7F042D09D09B7F51
:10134000032B02D1B2B9E16017E063219F2001F0C5
:101350009FF8B0F81CC09D8BA5EB0C052D049D6972
:1013600044BF07F118021846002DEBD01F46A5F127
:101370001803E1E713681B681360C36802218677CE
:10138000D2E700BFAC14002010B50A4C2378FF2B25
:1013900004D04FF483719F2001F07AF8064801F0E1
:1013A0004BF9064B002220709A601A605A601A822C
:1013B00010BD00BF64000020F1120000AC1400203A
:1013C000044B1A8A10B4541C1C825DF8044BFFF7BE
:1013D000E7BE00BFAC14002037B504460D4601AA95
:1013E00000210020FFF770FE231A04F11801584273
:1013F00058412870044801F07DFF10B100230120FE
:10140000A37703B030BD00BFB414002037B5054644
:101410000C46FFF723FE01AA28462146FFF754FE9B
:1014200028B100F11803034A536103B030BD0346ED
:10143000F9E700BFAC14002010B5064C616904F157
:10144000080001F057FF18B1606900231838636184
:1014500010BD00BFAC1400209C46144BF0B59D6835
:10146000FDB115F8043C183D834218D812F10A0466
:10147000D5E900364CF10001A34276EB01070BD20F
:101480002F69FF1846F10006A7428E4107D3B4F139
:101490000A0041F1FF31F0BD1C463146F7E7AD6966
:1014A000DEE74FF0FF300146F5E700BFAC14002047
:1014B00008B5837F022B1CD1437D13F0020302D0B9
:1014C0000023837708BD0322037643768376C376B1
:1014D0000D4B827700F11802196839B91A605A6009
:1014E0000A4B1878BDE8084001F0C0B859680A6096
:1014F000F5E7837F012BE5D0837F042BE2D04FF407
:10150000FA719F2000F0C4FFAC140020640000209A
:1015100010B500F118010446084801F0EBFE20B9AF
:101520004FF4FF719F2000F0B3FF2046FFF782FDCC
:10153000034BBDE81040187801F098B8B4140020AF
:1015400064000020034B187800F0FD00431E584251
:1015500058417047C8140020024B0521586801F01B
:10156000A3BE00BFC814002038B5FFF765FF0025F3
:1015700080B1094CC4E90205256100F09BFCA0681C
:10158000022329468377C3689847D4E9060101F00E
:10159000C1FC012038BD00BFC8140020064B98686C
:1015A00010B520B94FF42471B02000F071FFC3686A
:1015B0000521BDE810401847C81400202DE9F74F59
:1015C0002F4C814694F82430266A002B3AD1FFF73D
:1015D000B9FF804618B1E38C9E4238BF1E4600F02A
:1015E00065FD83190F46054641F100011846CDE916
:1015F0000013FFF70BFF40B3019B0099D0E900AB4C
:10160000534571EB0B0205D2BAEB0605534659461A
:101610006BF1000728461B4AC4E90631002339460E
:10162000C4E90A57236300F015FD5046594601F0FE
:1016300090FCB8F1000F02D0E38C9E421DD0022333
:10164000114A13E04FF00008C9E794F8243033B191
:101650002378023B012B02D8636B012098470025B9
:1016600084F8245001F076FC2B46084A84F8383080
:10167000C9F8002003B0BDE8F08F0123E0E700BF08
:10168000C814002059150000BD170000192F0000D4
:101690002DE9F04780460F469146444C002B6FD011
:1016A0004FF0000AD3E90065C4F830A0864275EB1C
:1016B00001033CBF0D46064629463046C4E906658F
:1016C00001F047FCE38CB6EB080803F1640365EB1B
:1016D000070743455346BB410FDA94F824304BB11A
:1016E0002378023B012B02D8636B0120984700232B
:1016F00084F82430FFF726FF8246236A03F5E1735E
:10170000984577F100071CDABAF1000F10D0E08C91
:10171000274A301A65F10001C4E90A0100F09AFC79
:101720000623244A84F83830C9F80020BDE8F08741
:101730001F4A30462946C4E90A6500F08BFC0523A0
:10174000EFE701F009FCFFF749FBE08C236ABAF1EF
:10175000000F0BD0984209D9301A154A65F10001E3
:10176000C4E90A0100F076FC0123DAE7F01A104A16
:1017700065F10001C4E90A0100F06CFC0223D0E726
:1017800094F8243033B12378023B012B02D8636BE9
:1017900001209847002584F8245001F0DDFBFFF775
:1017A0001DFB01F0D7FB2B46034ABBE7C814002002
:1017B00059150000BD170000192F0000023970B53F
:1017C0000546032900F20D81DFE801F0060208401A
:1017D000854B002283F83920002024E0824C94F8C5
:1017E0003830042B09D8022B28D8013B012B1BD9F8
:1017F00040F27911B02000F04BFE053B012BF7D8E9
:10180000FFF7A8FB0028E7D000F040FC00F04EFCFA
:1018100006460C46FFF7FAFD2A46034621463046A7
:10182000FFF736FF022070BDFFF794FB0028D3D0EE
:1018300000F02CFC2846FFF7C1FEF3E7FFF78AFB18
:101840000028C9D0012384F83930C5E7664C94F8E4
:101850003830013B052B00F2C180DFE803F003299B
:1018600056788097FFF76EFE10B194F8240010B1FF
:1018700040F28311BEE7636B9847012384F824305C
:1018800000F014FCA36A594AC01A236B9842ACBFFB
:101890002063236304F118000BC8C01A61F1000132
:1018A000C4E90A0100F0D6FB022384F8383093E73C
:1018B00001F051FBFFF78CFA00F0F8FBA36AC21AA3
:1018C000236B9A42B8BF1A462263FFF73BFED4E966
:1018D000063168B194F8240050B9E28C981A434A52
:1018E00061F10001C4E90A0100F0B4FB0323DCE765
:1018F000323B41F1FF31981841EBE2713B4AC4E9B8
:101900000A0100F0A7FB0423CFE7FFF71BFE10B18D
:1019100094F8245015B14FF4DA716BE700F0C6FB70
:10192000A36AC01A236B9842ACBF20632363284686
:10193000636B98470123D4E9060184F824303238D8
:10194000236B41F1FF31C01841EBE371D6E700F0A2
:10195000E1FA78B194F83930002B7FF457AFFFF7F4
:1019600003FE00283FF452AF002384F83830204BA8
:101970002B6057E700200021FFF748FD08B1FFF773
:10198000C7FD01F0E9FAFFF729FA53E7FFF7DAFD9F
:1019900010B194F8245015B14FF4FD712AE700F00E
:1019A00085FBA36AC01A236B9842ACBF20632363F4
:1019B0002846636B984701230C4A84F82430236B34
:1019C000D4E90601323841F1FF31C01841EBE3712F
:1019D000C4E90A0100F03EFB052366E74FF40471F9
:1019E00008E740F2152105E7C8140020591500004A
:1019F000F519000002392DE9F041064604292FD8D7
:101A0000DFE801F0030A0C2E0F00184A1378003BA0
:101A100018BF012382F8243000201FE0FFF79AFA54
:101A2000FAE7DFF8488000F055FA00F03FFB0C467B
:101A30000546FFF7EBFC0746D8F80800FFF738FD2E
:101A4000002300222846C8F8083000232146C8E9B0
:101A500006233B463246FFF71BFE0220BDE8F0811D
:101A600040F23B21B02000F013FD00BFC81400205D
:101A7000064A002310B5064C0260606084F83830D6
:101A80002370FFF7C7F93230206210BD192F000014
:101A9000C814002008B5074B5A681168064A9142DD
:101AA00004D040F27521B02000F0F2FC3230186210
:101AB00008BD00BFC8140020192F000010B5EFF3B7
:101AC000108472B6034B0421586801F0EDFB04B991
:101AD00062B610BDC814002008B5094B9A6822B937
:101AE00040F29621B02000F0D3FCD3E90621BDE8F6
:101AF00008408018034A41F1000100F0ABBA00BF72
:101B0000C81400209D15000008B5064B9B6823B93A
:101B10004FF42771B02000F0BBFCBDE8084000F096
:101B2000B5BA00BFC814002008B5054B9A6822B9A1
:101B300040F2A221B02000F0ABFCD86008BD00BF8D
:101B4000C814002008B5054B9A6822B94FF42A71D1
:101B5000B02000F09DFC186108BD00BFC814002033
:101B6000054B1B6910B523B940F2AE21B02000F03F
:101B70008FFCBDE810401847C8140020054BDB68F7
:101B800010B523B94FF42D71B02000F081FCBDE8F1
:101B900010401847C8140020014B9868704700BFD8
:101BA000C814002008B5054B9A6822B940F2BF213D
:101BB000B02000F06DFCD3E9060108BDC814002078
:101BC0000028ADBF00F1604000F00F00044B00F5AD
:101BD0006140B4BF185C90F800034009704700BF33
:101BE00014ED00E02DE9F04105460E46E1B9114F34
:101BF0003B681BB18621452000F04AFC38600E4846
:101C0000FFF792FF0D48FFF79DFF01F07FF96B7D15
:101C100004465B0708D501F006F90A34241A7C60F3
:101C200000F056FA0028FBD02B6A3146686ABDE8FE
:101C3000F041184708150020611C0000411C0000FD
:101C4000064B1B6810B51BB97221452000F020FC23
:101C50001A6A0421586ABDE8104010470815002090
:101C6000064B1B6810B51BB96C21452000F010FC19
:101C70001A6A0321586ABDE8104010470815002071
:101C8000024B00221A601A81704700BF081500201D
:101C900008B5074B1A681AB9B921452000F0F8FBBE
:101CA0000449D16000221A60BDE80840FFF7BAB9C4
:101CB00008150020E51B000030B587B00C4618223F
:101CC00000210546684601F030FB637A4FF00002C0
:101CD0006168C3F38003029183F0010363F382021E
:101CE000237A8DF81430224B8DF815200393237836
:101CF0005BBB9DF81500D4E904324007CDE9003202
:101D000007D50A3B01F10A0142F1FF320291CDE908
:101D10000032637A69469DF81520C3F3400322F030
:101D200003025B0043F0010313438DF81530114BA0
:101D30005868C0F30800B8B11038FFF741FF98B9F0
:101D40002846FFF747F907B030BD2369049301F037
:101D500064F89DF815305B0744BF029B0A33CDE958
:101D6000000148BF0293D4E7284601F060F8EAE793
:101D7000E51B000000ED00E008B50A4B1B6823B925
:101D80004FF4EE71452000F083FB5B7D5B0703D4CD
:101D9000BDE8084001F0BAB801F0B8F80A3041F1E6
:101DA000000108BD081500207FB501F036F80023BA
:101DB00005930B4B039340F21E2302934FF0FF3326
:101DC000CDE90001694607480493FFF703F918B904
:101DD000B021432000F05CFB07B05DF804FB00BFBE
:101DE0000D1E00004015002010B5074C94F820305F
:101DF0004BB9FEF7F9FF30B9012384F82030BDE874
:101E00001040FFF7D1BF10BD4015002008B50529CF
:101E10002DD8DFE801F0032E282C2C0D00F0F9FF5F
:101E2000144801F075F81E38BDE8084000F0F7BF0F
:101E3000FEF7DAFF38B10F4B002283F82020BDE80F
:101E40000840FFF7EFB800F0E6FF08B900F0E1FF47
:101E500000214FF4007001F02BF80028E0D1CE21D2
:101E6000432000F015FBBDE80840FFF79DBFDA21D5
:101E7000F6E708BD401500204FF000430B4A002153
:101E8000C2F88030A2F58022C2F88031012302F529
:101E90007832C2F80435A2F58022C2F80435202237
:101EA000034B184683F8201001F03FBA00400C5055
:101EB0004015002008B510F06FFD054AD2F85837DC
:101EC00043F00103C2F85837BDE80840FFF78CBF64
:101ED00000200E5008B510F06FFD0B4AD2F85837AD
:101EE00023F00103C2F858370122084B5A604FF023
:101EF000FF32C3F808232022054BC3F89021BDE828
:101F0000084000F0C3B800BF00200E500050085039
:101F100000E100E008B5FEF767FFB0B90D4BD3F85C
:101F200000314BB90C4A536A0133312B53620BD940
:101F30008121432000F0ACFA00F06DFF08B185214B
:101F4000F7E700F064FF012008BD034B00225A624E
:101F5000F9E700BF00E010504015002040F20251A8
:101F6000014808B500F08AFA3CCC06001848202247
:101F700008B5C0F89020BFF34F8FBFF36F8F154B9C
:101F8000C0F89021D3F8041521F00301C3F804151B
:101F9000D3F8081541F00301C3F8081592FAA2F12D
:101FA000B1FA81F1092904DD40F29F310A4800F0BD
:101FB00065FAC3F8101501215960D9604FF000414E
:101FC000C3F880104FF0FF31C3F80813026108BD59
:101FD00000E100E0005008503CCC0600124B4FF4EA
:101FE000E062C3F838230022C3F8AC25C3F8BC254F
:101FF000C3F8CC25C3F82021C3F82421C3F8282135
:1020000020220A4BC3F89C21C3F89C20BFF34F8FBA
:10201000BFF36F8FC3F89020BFF34F8FBFF36F8F65
:10202000C3F89021704700BF00200E5000E100E08F
:1020300008B5FFF7D3FF054B4FF4A062C3F8342374
:102040002022034BC3F89C21DA6108BD00200E500A
:1020500000E100E00B4B10B51C681CB14B210420C3
:1020600000F016FAB1F5801F1A6001D3FFF776FF72
:10207000054B0122C3F8A005C3F8A415C3F8AC258D
:1020800010BD00BF6815002000200E50054A1368DF
:1020900033B100230449C1F8AC35C1F820311360D5
:1020A000704700BF6815002000200E5030B54FF07B
:1020B000FF30064C6FF04041D4E90023904271EBB1
:1020C0000305F9D31046C3F3130130BD40270E506A
:1020D00008B5FFF7EBFF044BD3E902239042994187
:1020E0002CBF0120002008BD6815002008B5FFF7AF
:1020F0003DFF024B01221A6008BD00BF005008508E
:1021000010B5FFF733FF0F4C0023C4F8BC35C4F8FB
:102110002431FFF7CBFF0A3041F10001B1F5801FF8
:1021200001D1FFF71BFF4FF00043C4F8B005C4F81E
:10213000B415C4F8A4310123C4F8BC35024BC3E97B
:10214000020110BD00200E5068150020144BD3F87A
:10215000342312F4A06F10B503D1FA21042000F04B
:1021600097F9D3F8202162B100220E49C3F8AC25BB
:10217000C3F820210B6813B94FF48171EEE70A60B0
:102180009847074BD3F828214AB10022C3F8CC2541
:10219000C3F82821034BBDE810401B69184710BD48
:1021A00000200E5068150020034610B3007888B94F
:1021B0001A79012A1ED85A79012A1BD89A680E4921
:1021C000643A8A4216D8D8680C4B98422CBF00203B
:1021D0000120704701280CD11A79012A09D85A79AF
:1021E000012A06D8DA680449643A8A4201D8986814
:1021F000EAE70020704700BF3C8601000040420F24
:1022000070B5044600F009FE40F2F966656AD4E94B
:102210000632963342F100025B1905F5DF6542F1A3
:102220000002B5FBF6F55B1942F1000283428A41D8
:102230000ED294F82A30052B03D0B3216A2000F087
:1022400027F90A21236A94F858009847B621F5E740
:10225000044C236813B1984700232360BDE8704005
:10226000FFF716BD7C15002070B504460D4639B940
:10227000012380F85930FFF7C3FF0226304670BDB6
:102280000E78032E70D801A353F826F07B220000AD
:102290009D22000007230000BF2200004868C728D5
:1022A00001D80026EAE7042100F002FE0028F8D059
:1022B00000F0B7FD6968204600F061FEDEE790F8A7
:1022C000286006BB4D682846FFF76EFF00284BD0FC
:1022D0002B78D3B9012121702B796A79003B18BF83
:1022E0000123002A14BF0422022243F004032272B5
:1022F000AA68A5326260EA6863720323226184F8E7
:102300002A3084F829102046B5E794F82A30052BA6
:1023100004D040F293116A2000F0BAF8267004F15C
:1023200030002B796A79003B18BF0123002A14BFC3
:102330000422022243F004032272EA686372A53287
:10234000A9686260D4E906325B1842EBE17221466B
:10235000C4E90432042384F82A30FFF7ADFC0028D6
:10236000D1D140F29511D6E7012384F85930CAE75C
:102370002DE9F8438846074658B300F02FF84FF090
:10238000000904465FFA89F6B44203D86FF00B00E7
:10239000BDE8F883304609F1010900F025F890F80E
:1023A0002A50002DEED1304600F01EF80A490446AE
:1023B000058580F82A50024680F85860303000F0D9
:1023C000C2FD01232762284684F82A3088F800607D
:1023D000DEE76FF01500DBE78D2F0000014B187969
:1023E000704700BF80150020044B1A79824283BFDA
:1023F0001B68602202FB003000207047801500201F
:102400000A4610F0030110B50AD1074C2271206072
:1024100008B9002010BD60235A4300F086FFF8E79A
:102420006FF00D00F6E700BF80150020BFF34F8F5F
:102430000549064BCA6802F4E0621343CB60BFF360
:102440004F8F00BFFDE700BF00ED00E00400FA057C
:10245000084B01225A604FF0FF32C3F80823802254
:10246000054BC3F88820BFF34F8FBFF36F8FC3F8BE
:10247000882170470070045000E100E008B572B692
:10248000024B5B6803B19847FFF7D0FF8815002027
:102490001FB572B6144B5C6894B9FFF7C7FFB2FB67
:1024A000F6F22B465D1C002AF9D1DBB203F11005D0
:1024B0006D4405F80C2C0A2233B901A8A047ECE7BB
:1024C000024600230A26EDE7013BDBB203F11005CB
:1024D0000DEB0506B0FBF2F502FB1500303006F8F7
:1024E0000C0C2846E8E700BF88150020F8B5234FFC
:1024F00005460C4616463B78002B3CD100F079FC93
:102500007E601F4B01263C814FF48062C3F8A460BB
:102510001C4BC3F89020BFF34F8FBFF36F8FC3F8EE
:102520009021FFF795FF184B002D14BF2846184641
:10253000FEF788FC0546E0B9FFF7A2FBFEF774FC46
:1025400000F001FEFEF7DEFC18B9B8211120FFF7FC
:102550009FFF002C0BDB04F01F036409A4009E40C6
:1025600004F1604404F56144C4F8806126600123ED
:102570003B702846F8BD4FF0FF35FAE7881500207C
:1025800000A0085000E100E0644E0600074BB3F9DC
:102590000830002B09DB5A09012103F01F03994081
:1025A00002F14003024A42F82310704788150020C8
:1025B00000E100E0014B1878704700BF881500204B
:1025C0001A4B4FF4000270B5C3F89820BFF34F8F39
:1025D000BFF36F8F164C0021164DC4F80011C3F8DD
:1025E00098212E692B6906F0100643F010032B6129
:1025F0000123C4F804332360D4F800319BB11EB921
:102600002B6923F010032B610123D4F808054FF444
:1026100000026360C4F808330023C4F80031034BA0
:10262000C3F8982170BD00F07CFEE5E700E100E012
:1026300000700D5000ED00E038B50B49042301EBAC
:10264000C302157905F0FF042DB1013BF7D24021FB
:102650006920FFF71DFF41F8330001215471D8B202
:102660009471117138BD00BFB8150020042808B559
:1026700003D950216920FFF70BFF094B03EBC00082
:102680000379012B01D05121F4E743798279013399
:10269000DBB29A4218BF4371BDE80840FFF776BF2E
:1026A000B815002038B505240F4D95F8281005EB16
:1026B000C1031A79012A09D158799A79904205D033
:1026C0005A79D2B29A7155F83130984795F8283036
:1026D000013C0133DBB2052B28BF002314F0FF04BB
:1026E00085F82830E1D138BDB8150020014B1B68B2
:1026F0001B68184768000020014B1B685B6818477F
:1027000068000020014B1B689B6818476800002088
:10271000014B1B681B691847680000206D330000DF
:10272000793300007D3300008533000089330000D9
:1027300038B5174C042000F091FB0421236898421F
:1027400028BF1846054600F0B3FBD0B100F069FB86
:102750002368E068AB4207D100F061FBE2682368C0
:1027600022611344E36038BD054460890123281ABF
:10277000E560237500F053FB6289E3689B1A2361CF
:10278000F1E70123E06823756389C01AF2E700BF0F
:10279000E815002008B50C4B1A7802F0FF0312B1BF
:1027A0005A1E1A4203D0F8216B20FFF771FE19B1AF
:1027B000034208D1FD21F7E723EA00039B0602D17B
:1027C00040F20111F0E708BD6C000020124802221F
:1027D00008B5012300F11801383000F8203C04232B
:1027E00000F8183C10F8083C83F0010300F8173C8F
:1027F00050F8383C40F81C3C50F8343C40F8103C51
:10280000064B1A70FFF758FA20B940F21F116B20DF
:10281000FFF73EFE08BD00BFE81500206C00002059
:1028200070B5EFF3108572B6264C002394F8606003
:1028300084F86030012E06D0022E1DD0002E3BD130
:1028400085F3108870BD85F3108894F8613003F02B
:10285000FF0123B140F25D116B20FFF719FE142038
:10286000FFF798FF184B84F861601B78012BE9D1C2
:10287000BDE87040FFF7AABF94F8612012B94FF489
:10288000B771E9E7104984F861300B78023BDBB29D
:102890001E2B0ED8012202FA03F30C4A1342CFD1A9
:1028A00044F20402134204D020230B70FFF7F0F926
:1028B000C6E74FF4C571CFE785F310884FF4D871A0
:1028C000CAE700BFE81500206C000020410000406E
:1028D0002DE9F041254D04460E462B7D23B1012BF9
:1028E0000AD00020BDE8F0816A892B689B1A9842C3
:1028F0008CBF00200120F5E7D5E91A7800F08DFAA9
:102900002B691E3041F10001DB1948F100029842A9
:1029100071EB020C07D21B1A62EB010222B1B0214B
:102920006B20FFF7B5FD00239C421DD96B89C6F1D2
:1029300004011B19C9B21C18EB68DB19E41A192C25
:1029400038BF1924204600F0B3FA0028C9D000F09F
:1029500068FAEB6868891C44201AEC6000F05FFAA2
:102960006A89EB689B1A2B610120BBE7E815002000
:1029700070B5114C94F8705025B140F28F216B2046
:10298000FFF786FD01260D4B4FF4C85284F86150C5
:102990001E700B4B0B48C4E900230B4BA360FFF7E1
:1029A0004BFE2A4684F87100084904F1380000F013
:1029B000CAFA84F8706070BDE81500206C00002031
:1029C000FF3F420F212800000500B700692B0000DF
:1029D00008B5104B93F8702022B94FF43E716B206C
:1029E000FFF756FDEFF3108172B693F8602022B125
:1029F000012A0DD04FF44271F1E7022283F86020E2
:102A000001B962B693F87100BDE80840FFF72EBE29
:102A10000022F3E7E81500200B4B93F8703010B557
:102A200023B940F217316B20FFF732FDEFF310842A
:102A300072B6064B1A78102A03D108221A70FFF7D3
:102A400027F904B962B610BDE81500206C0000201B
:102A500010B5EFF3108472B6054B1B78042B04D12C
:102A6000FFF736FF04B962B610BD0020FAE700BFD9
:102A70006C00002070B5EFF3108472B6134B1B7816
:102A8000042B20D1124D2B7D2BB96B892868C01ADD
:102A900004B962B670BD00F0C0F92B691E30D5E9EB
:102AA0001A6241F100019B1942F10002984271EB58
:102AB000020508D2181A62EB0102002AE8D0B02100
:102AC0006B20FFF7E5FC0020E2E700BF6C00002070
:102AD000E8150020014B83F830007047E81500200E
:102AE00038B5144C94F8703023B940F2CD216B20E6
:102AF000FFF7CEFCEFF3108572B694F8603023B187
:102B0000022B0DD04FF43871F1E7012384F86030C7
:102B100005B962B694F87100BDE83840FFF7A6BD6C
:102B2000054B00221B7884F86020042BF0D136F08E
:102B3000C5FFEDE7E81500206C00002008B5094B43
:102B400019781029CAB207D0202A05D0042A04D146
:102B500010221A7036F0C2FF08BD40F2CF116B2070
:102B6000FFF796FC6C00002038B50C4600F055F9D4
:102B7000052C48D8DFE804F0035E522B2665334C61
:102B8000FFF7FAF8C4E91A0101210220FFF702FE5B
:102B900094F861202E4B7AB104221A702368E36006
:102BA0000023237594F86030022B01D036F086FFA5
:102BB000BDE83840FFF7BCBD20221A70BDE83840A0
:102BC000FFF766B84FF406716B20FFF761FC1F4CEE
:102BD00094F86130BBB11E4B1B78042B14D1237DBC
:102BE000012B0ED100F019F92369D4E91A525B19AF
:102BF00042F100029842914103D3BDE83840FFF70B
:102C00009DBF15F07FF938BD124B4FF48062C3F8B9
:102C10009020BFF34F8FBFF36F8FF4E701210220A5
:102C2000FFF7B8FD094B93F8613033B1BDE8384088
:102C3000FFF7CCBD01212820F2E7054B01221A70D5
:102C4000E1E7024B1B7D012BB2D1D6E7E81500204E
:102C50006C00002000E100E07BB972B90029BEBF22
:102C600000204FF0004106E008BF00281CBF6FF0B5
:102C700000414FF0FF3000F057B8ADF1080C6DE99E
:102C800004CE002909DB002B1ADB00F099FBDDF8EC
:102C900004E0DDE9022304B07047404261EB4101EA
:102CA000002B1BDB00F08CFBDDF804E0DDE90223E8
:102CB00004B0404261EB4101524263EB4303704771
:102CC000524263EB430300F07BFBDDF804E0DDE9F7
:102CD000022304B0404261EB41017047524263EB72
:102CE000430300F06DFBDDF804E0DDE9022304B0EE
:102CF000524263EB4303704753B94AB9002908BFF6
:102D000000281CBF4FF0FF314FF0FF3000F00CB82F
:102D1000ADF1080C6DE904CE00F052FBDDF804E0E3
:102D2000DDE9022304B07047704700BF00F061B8CE
:102D3000801A00F3070038B50D46144659B240B268
:102D4000FDF758FC0023287020446B7040B238BD5A
:102D50007FB5A0F10B040E461546E1B20F2903D949
:102D600050216420FFF794FB0DF10B033246042041
:102D7000FDF7FAFB08B15921F3E704EB8404009056
:102D8000042203A904F665139DF90B009BB2FDF71D
:102D9000BFFB9DF80C302B709DF80D306B7004B0AC
:102DA00070BD0023036070477047002070474FF0EC
:102DB000FF3070474FF0FF30704770474FF0FF30E3
:102DC0007047002070470020704700230370704751
:102DD0009DF800300022FFF7ABBF4FF0FF30704787
:102DE000002070474FF0FF3070474FF0FF307047C2
:102DF000704770470020FDF741BC0020FDF712BD71
:102E00000020FDF723BD0020FDF738BC7047FDF71B
:102E100069BDFDF77BBDFDF76BBDFFF747B9FEF759
:102E20005BBEFEF771BEFFF76BB9FFF75FB910B578
:102E3000837F8BB9034601F1180251F8044B91428C
:102E400043F8044BF9D1012484772146FEF76CF84E
:102E5000FEF734FE204610BD0020FCE7F8B507461B
:102E6000FEF79AFE044620B940F229110320FFF72D
:102E70000FFBFEF797FEA46800252418384641F1A1
:102E8000000622463346FEF7E7FAA04271EB06033E
:102E900009D3001B6FF0010361EB0601834275EB60
:102EA000010102D3F8BD2846FCE74FF0FF30F9E7F7
:102EB0002DE9F04104460F46FEF76EFE064620B9A6
:102EC0004FF4A3710320FFF7E3FA8568002362192A
:102ED0005B4113B10020BDE8F081FEF763FE2A18C4
:102EE000384641F1000314EB020843F10005FEF7F8
:102EF000B3FA4045A941EDD3FFF7D8F800F00AF83E
:102F0000B368012037752344B360E4E7FEF74ABE97
:102F100080687047FEF7A2B8032910B5044606D8AA
:102F200001290ED84FF49E71B020FFF7B1FA0429A1
:102F3000F8D1FEF70FF820B12046FEF73FFB022044
:102F400010BD0020FCE7C0E908122022002100F09B
:102F5000ECB97047704770477047FEF745BF08B53A
:102F600000230B8581F82A300B6A0921984728B184
:102F700003781BB1E9216A20FFF78AFA08BD436A8A
:102F800019444162A1F19600FFF749BFF8B5044624
:102F900020B940F2AD116A20FFF77AFA90F8585044
:102FA000052900F2C780DFE801F0038043656F79EF
:102FB00090F82A30033B012B02D94FF4DC71EAE789
:102FC000052380F82A30002380F859300378EBB1CC
:102FD0002378012B24D1FEF7CFFE636894F8286094
:102FE0006362C4E90601F6B9FFF71FFF31462046C8
:102FF000FFF7C5FF236A3146284698470146204619
:10300000FFF732F9022840F09880F8BDFFF705FF7E
:1030100007460E46FEF7B0FE87428E41F6D3D7E74D
:10302000D4E90401D9E72046BDE8F840FFF7E8B845
:1030300090F82A30DA1E012A02D940F2ED11AAE7EF
:1030400090F828202AB121462846BDE8F840FFF72D
:1030500086BF042B036A18BF012180F82A100521BE
:10306000284698470028D0D00378002BCDD04FF4C5
:10307000007190E790F82A30052B02D040F206212B
:1030800089E7036A0221B7E790F82A30052B02D0BE
:103090004FF403717FE7036A0121ADE790F82A300E
:1030A000052BC0D040F2122175E790F82A30052B8D
:1030B00007D090F829200AB1032B02D040F2172143
:1030C00069E794F82820002ABDD194F8593083B1DB
:1030D00002230821284684F8592084F82A30236ADC
:1030E0009847002891D00378002B8ED040F22321FE
:1030F00051E794F8292062B1214604F1300084F8A8
:103100002930FEF7D9FD00287FF47FAF4FF40A7114
:1031100041E702230721284684F82A30236A98478A
:1031200000283FF472AF0378002B3FF46EAF40F2FB
:103130002F2130E74FF40D712DE70128236A0CBFD2
:103140000421032158E770B50024FFF747F905462D
:103150002646E0B2854200D870BDFFF745F901343C
:10316000068580F82A60F4E7F8B504460D46002786
:10317000FFF734F90646F8B2864204D8082D0CD978
:103180006FF0150008E0FFF72FF990F82A300137AB
:10319000002BF0D04FF0FF30F8BD2CB1294620466F
:1031A000BDE8F840FFF72CB921462046F8E710B5F6
:1031B0000446FFF719F9014688B190F828308BB919
:1031C00090F82A3073B1013B012B04D82046FFF759
:1031D000C6FE002010BD012380F82830F9E76FF00B
:1031E0000100F7E76FF02200F4E770B50D46FFF736
:1031F000FBF8044600284CD090F82A60731E012B7F
:103200004DD8002D48D02846FEF7CEFF002843D0E9
:103210002B780BBB012323702B796A79003B18BFF5
:103220000123002A14BF0422022243F00403227265
:10323000AA68A5326260EA686372032322612146AC
:1032400004F1300084F82A30FEF736FD50BB40F21E
:10325000C1216A20FFF71CF9022E20D10023237020
:103260002B796A79003B18BF0123002A18BF042676
:1032700043F004032672EA686372A532A9686260AB
:10328000D4E906325B1842EBE172C4E9043204234C
:10329000D5E76FF0010070BD6FF01500FBE76FF030
:1032A0002200F8E70020F6E7F8B5037904461BB1E1
:1032B0001B219D20FFF7ECF84679017126B9012307
:1032C0004371217909B96171F8BD276820462671DB
:1032D000B84702280546F4D103212046B84708B173
:1032E0002F21E6E723682946204698470028E8D0A2
:1032F0003021DEE703460068884204D109B10A683C
:103300001A600846704728B97047884202D10A6897
:103310001A60F6E7034600680028F6D17047FFF709
:10332000C1B920BF704720BF7047F0B5C9B204468D
:10333000A30726460ED14FF0013522F003034D437B
:10334000E718BC420CD1334402F003021A44934202
:1033500009D1F0BD002AFCD0013A04F8011BE7E7CF
:1033600044F8045BEDE703F8011BF0E700280CBF0D
:103370006FF015000020704700207047072303708E
:1033800000207047002070470020704710F8012B84
:1033900011F8013B012A28BF9A42F7D0D01A704792
:1033A000034611F8012B03F8012B002AF9D17047CD
:1033B000034613F8012B002AFBD1181A0138704775
:1033C0002DE9F04786468C460846089E1546744609
:1033D0001946002B40F0C1808542B2FA82F245D9ED
:1033E0004AB1C2F1200300FA02FC954094402EFA43
:1033F00003F343EA0C0C4FEA154EA8B2230CBCFBB6
:10340000FEF80EFB18CC08FB00F943EA0C43994583
:1034100028D9EB1808F1FF3704D2994502D9A8F151
:1034200002072B44A3EB0903A4B2B3FBFEFC0EFB83
:103430001C330CFB00F044EA0344A04214D92C19BD
:103440000CF1FF3304D2A04202D9ACF102032C44A8
:10345000241A43EA07401EB1D4400023346073604D
:10346000BDE8F0874746DDE76346F1E792BB431BC3
:1034700001214FEA154EAFB2200CB3FBFEFC0EFB50
:103480001C330CFB07F840EA0343984561D9EB185D
:103490000CF1FF3004D2984502D9ACF102002B4464
:1034A000A3EB0803A4B2B3FBFEFC0EFB1C330CFB26
:1034B00007F744EA0344A7424DD92C190CF1FF3316
:1034C00004D2A74202D9ACF102032C44E41B43EA24
:1034D0000040C0E7C2F120039540944020FA03F178
:1034E0002EFA03F34FEA154E9040AFB20343B1FBFF
:1034F000FEFC0EFB1C10190C0CFB07F841EA004106
:10350000884522D969180CF1FF3004D2884502D9C8
:10351000ACF102002944A1EB08019BB2B1FBFEFC17
:103520000EFB1C110CFB07F743EA01439F420ED927
:10353000EB180CF1FF3104D29F4202D9ACF1020129
:103540002B44DB1B41EA004193E76046E3E7614619
:10355000F7E76046A4E76346B8E7834206D916B9A1
:10356000002108467CE7C6E900E0F9E7B3FA83F7F3
:103570008FB9834201D3724508D8BEEB020460EBD9
:10358000030301209C461EB9002169E73846FAE78B
:10359000C6E9004CF8E7C7F1200CBB400EFA07F56E
:1035A00022FA0CF42EFA0CF1BA401C4320FA0CF368
:1035B000B8404FEA144901431FFA84FEB3FBF9F8FF
:1035C00009FB18300B0C08FB0EFA43EA00439A453E
:1035D00040D9E31808F1FF3004D29A4502D9A8F186
:1035E00002002344A3EB0A0389B2B3FBF9F809FBF9
:1035F000183308FB0EFE41EA03418E452CD96118B1
:1036000008F1FF3304D28E4502D9A8F10203214408
:1036100043EA0040A1EB0E01A0FB02984145CE46D3
:10362000434602D306D14D4504D20138B9EB020E10
:1036300068EB0403002EA7D0B5EB0E0261EB03018B
:1036400001FA0CFC22FA07F3F9404CEA0303C6E93D
:10365000003199E74046C5E74346D9E7000000003E
:1036600000F1480300F58250083000E0083383423F
:1036700007D25A688A42F9D19FED037B83ED007B24
:10368000F4E77047AFF30080FFFFFFFFFFFFFFFF8E
:103690002DE9F04F8DB009900D4617464AF040FFD6
:1036A00002464B0143EAD0634001801A63EB0103F9
:1036B0009B0043EA90738000841843EB0101C9002A
:1036C00047F612220023E00041EA5471FFF714FB91
:1036D00081460C46012D65D07D6829463C48FFF7A0
:1036E00055FE28B129463B48FFF750FE002861D11E
:1036F00035A3D3E9002348462146FFF7ADFA8046BB
:103700000A9131A3D3E9002348462146FFF7A4FAE2
:1037100015461C46304A002328462146FFF79CFAEE
:1037200006460F462C4A002328462146FFF794FA06
:1037300015461C464EF66022002328462146FFF718
:103740008BFA81460B914EF66022002328462146D3
:10375000FFF782FA15461C464FF47A72002328467A
:103760002146FFF779FA83468A464FF47A7200239E
:1037700028462146FFF770FACDE90623CDF810B0B0
:10378000CDF814A0CDF808900B9A039200960197FB
:1037900042460A9B114909983BF048FA00200DB0B7
:1037A000BDE8F08F02460B460D4909983BF03EFA02
:1037B0000020F4E72A460B4909983BF055FA6FF0D0
:1037C0000400ECE7AFF30080005C26050000000079
:1037D000385806003C58060080EE36006058060057
:1037E00024580600485806002DE9F0418AB000250B
:1037F000002D02DD0AB0BDE8F081284640F0B8FF98
:1038000006464FF4987405FB04F4DFF8708004EB6F
:10381000080738464AF0D7F9203404EB08004FF483
:10382000BC62134902FB05119FED0F7B8DED067BFA
:103830000023049303960293019300970D4B4AF0E3
:10384000DBFB044660B12B460B4A082108A836F082
:10385000DDFB08A9204619F00FF9204619F012FFE8
:103860000135C5E7AFF30080FFFFFFFFFFFFFFFF5C
:10387000702A01204F47040040780600502C002099
:1038800070B588B0044616461D460FA3D3E9002341
:1038900030462946FFF7E0F9CDE900010AA3D3E954
:1038A000002330462946FFF7D7F902920DF1100C9C
:1038B0006B460FCB8CE80F0004F1200E8EE80F0052
:1038C00008B070BDAFF3008000CA9A3B0000000052
:1038D00030B583B0164D002400946FF00F034FF401
:1038E00080621449284600F0A7F81349284619F0C9
:1038F000C3F8124912484AF0B6FA224604211C20A5
:103900003CF072FB0F4B0122D3E8EF1FC3E8E02F1E
:103910000028F9D104A3D3E900230B4928464AF033
:10392000E9FA204603B030BD389C1C0000000000BE
:103930009037002050380120B08A060095770400A7
:1039400098F7002030F700207000002000000000F1
:1039500008B5094BD3E8AF3F03B908BDFDF74AFAF4
:1039600003A3D3E90023054905484AF0C3FAF4E765
:10397000389C1C000000000030F700207000002080
:10398000903700200000000070B588B0044616464D
:103990001D460FA3D3E9002330462946FFF75CF903
:1039A000CDE900010AA3D3E9002330462946FFF7F9
:1039B00053F902920DF1100C6B460FCB8CE80F00FF
:1039C00004F1200E8EE80F0008B070BDAFF3008048
:1039D00000CA9A3B0000000000B583B0124883681B
:1039E000DB684321984760B90F4883681B696A46C2
:1039F0000C21984728B90D4B93F90020009B9A425F
:103A000008D107A3D3E90023094818F0C3FF03B086
:103A10005DF804FB054A137044F09BFAF1E700BF20
:103A2000389C1C0000000000184806009E0700207B
:103A3000483B00200000000030B589B004460C9DD2
:103A40000020C4F80C01C4F8100104F58A70C4F811
:103A50001401C4F8180104F58E70C4F81C01C4F8F0
:103A600020012DB3287928BB0120C4F824019FED43
:103A7000147B8DED067B002004900393029001904F
:103A80000094114B20464AF0B7FA55B1296811B19C
:103A9000204618F0F1FF6B791BB1237B43F0010343
:103AA0002373204619F0EEFDC4F8084109B030BD7B
:103AB0000120DAE740F20110D7E700BFAFF3008042
:103AC000FFFFFFFFFFFFFFFF41C8010000000000F4
:103AD000F0B585B004460E4615461F461EA3D3E931
:103AE0000023FFF709F91E4BA3424FF00003B34137
:103AF0001AD303941B4903A84EF015F804464EF65A
:103B0000602103A84EF00FF806464FF47A7103A81F
:103B10004EF009F8009033462246134928464DF0EE
:103B20007BFE7FB905B0F0BD0246104928464DF036
:103B300073FE09A3D3E9002320463146FFF7DCF8E2
:103B40001446D6E7BDF80C20094928464DF064FE1E
:103B5000E8E700BFAFF30080005C2605000000002E
:103B6000FF5B260580EE3600F4B00600ECB00600E0
:103B700004B106000000000008B5154B984210D0B3
:103B80000133984212D0023B984202D034F0CEF872
:103B900006E09FED097B82ED007B0E4B0B60002061
:103BA00008BD9FED077B82ED007BF6E79FED067B6E
:103BB00082ED007BF1E700BF01C0FF7F0000000045
:103BC00002C0FF7F0000000003C0FF7F0000000074
:103BD00002C0FF7F03004E8070B588B0614B1B6848
:103BE00003F00703022B0BD85F480EF0A3F9F0B1E6
:103BF0005C4A126812F0070F0DD1002008B070BDAA
:103C00005A4B02930020019000900346032255492D
:103C100037F0EFFCE8E70390554B0293002001904A
:103C20000090034601224F4937F0E3FCE5E70EF030
:103C300075FA064680B14B4B1B6813F0070FDCD0BA
:103C400003904C4B02930020019000900346012208
:103C5000444937F0CEFCD0E7474A4849484800F08D
:103C60004FFA484849F0BBFD20B93E4B1B6813F0A2
:103C7000070F13D1444849F0B2FD002853D1394B06
:103C80001B6813F0070F4ED0404B02930190009039
:103C900003460122334937F0ACFC44E03C4B02932D
:103CA00001900090034601222E4937F0A2FCE1E783
:103CB000344C204637F06BFCA3681B6906AA1B2115
:103CC00020469847069BC3EB431203EB8203079CF5
:103CD000304A82FB0412E417C4EBA21404EBC304C1
:103CE00027E0294D284637F052FCAB681B6906AA2D
:103CF0001B2128469847069BC3EB431203EB820324
:103D0000079D244A82FB0512ED17C5EBA21505EBB2
:103D1000C30514E02946204600F05CFA47F612205D
:103D200000214AF0DDFA174849F059FD0028BFD1BB
:103D30003446154849F053FD0028D2D13546094B89
:103D40001B6803F00703022BE4D904950394124B7C
:103D5000029300200190009003460322014937F0AE
:103D600048FCD7E790100020BBB50300385106008F
:103D700054510600745106009BB50300A7B503001B
:103D8000B1B50300D8470600F8470600B851060051
:103D900094510600D34D6210DC51060010B5044664
:103DA0000FF014F814F0040F00D110BD4CF04EFBCE
:103DB0000238022807D8084908484AF07EF8084B1C
:103DC00001221A70F1E7074904484AF076F8044BDB
:103DD00000221A70E9E700BF14A800206016002036
:103DE000CA13012004A8002010B58EB01F4B9B8879
:103DF0007BB91F4B1B6813F0060F25D01D4B029398
:103E000000200190009003460222194937F000FC7F
:103E10001AE0194B1B680093184B1B68184A2021A5
:103E200006A836F0F3F80446114B1B6803F00703AD
:103E3000022B0BD800230193A4B2009406AB114AC5
:103E40000A4903200EF00CFD0EB010BD06AB049322
:103E50000D4B03930D4B02930020019000900346FD
:103E60000322034937F0D4FBE4E700BF3C01002004
:103E70009410002008520600ECA70020F0A70020B4
:103E80005052060094530600B8A700205C5206006A
:103E900000B585B00E4B1B6803F00703022B0BD84F
:103EA0000C4B0193002300930B4A0C4901200EF0A8
:103EB000D7FC05B05DF804FB094B0293002001908C
:103EC000009003460322024937F0A2FBE8E700BF57
:103ED00094100020254000008C530600540100205F
:103EE0008052060000B585B0134B1B78302B15D0DF
:103EF0003022114B1A70114B1B6803F00703022B81
:103F00000ED800230193012300930B4B0C4A0D495B
:103F100003200EF0A5FC05B05DF804FB3122E8E7B4
:103F2000094B0293002001900090034603220349AD
:103F300037F06EFBE5E700BF9C07002094100020DF
:103F40009C530600540100209C52060000B587B027
:103F500032238DF817301A4B9B889BB1194B1B6885
:103F600003F00703022B1DD80023019301230093C4
:103F70000DF11703144A124903200EF071FC07B02B
:103F80005DF804FB0F4B1B6813F0060FF7D00F4BC7
:103F9000029300200190009003460222094937F065
:103FA00037FBECE70A4B03930A4B02930020019086
:103FB000009003460322034937F02AFBD4E700BFF1
:103FC0003C010020941000209C530600085206007B
:103FD000B8A70020C052060000B585B00D4B1B7875
:103FE00043B90D4B1B6803F00703022B07D805B03C
:103FF0005DF804FB0146094849F05FFFF7E7084B0D
:10400000029300200190009003460322024937F0FA
:10401000FFFAECE7CA13012094100020601600207C
:10402000DC52060010B586B00023ADF816300DF155
:10403000160139F053FEC0B10446BDF81620102A0F
:1040400013D10146274860F02BF82E23264A21463B
:1040500002203EF0A3FCD8B1244B1B6803F00703F9
:10406000022B30D8002006B010BD204B1B6813F087
:10407000070F02D16FF01500F5E71D4B02930020EA
:104080000190009003460122184937F0C1FAF1E788
:10409000164B1B6813F0070F05D160F05FFA154B44
:1040A00018584042DFE760F059FA124B1B5803934F
:1040B000114B0293002001900090034601220B490E
:1040C00037F0A6FAE9E7084B03930C4B0293002460
:1040D00001940094234603220449204637F098FABD
:1040E0002046C0E740010020B8A70020941000201F
:1040F000F45206000C00000010530600385306006E
:1041000070B582B005460C46184B1A60002102209B
:104110000EF070FB164E304649F0D9FE0023009396
:1041200005234FF4006213493046FFF785FC29460A
:10413000114849F098FE2146104849F094FE104974
:10414000104849F090FE1049104849F08CFE104983
:10415000104849F088FE1049104849F084FE104884
:104160000EF066FE0EF0D4FE02B070BDE8A700208F
:10417000601600201014012014A8002004A80020BC
:104180004D3F000044A80020E53E000034A8002078
:10419000913E000024A80020E93D0000F4A7002083
:1041A0003001002008B50248FFF716FF08BD00BF28
:1041B00044A8002008B50248FFF70EFF08BD00BF65
:1041C00034A8002008B50248FFF706FF08BD00BF6D
:1041D00024A8002008B5044B1860044B196004485B
:1041E000FFF7FAFE08BD00BFF0A70020ECA70020F3
:1041F000F4A7002030B410F0030416D00A460024BF
:10420000032A28D950F8043B234D05FB03F34FEA5A
:104210007343224D05FB03F363404FEAF34303EB83
:1042200083031F4C1C44043AEAE70A46032A12D9C6
:1042300050F8043B184D05FB03F34FEA7343174D49
:1042400005FB03F363404FEAF34303EB8303144C92
:104250001C44043AEAE7002304E010F801CB4CEADE
:104260000323013A002AF8D10B4A02FB03F34FEA79
:1042700073430A4A02FB03F35C40614081EA114147
:10428000084801FB00F080EA5030074B03FB00F0C8
:1042900080EA104030BC7047512D9ECC9335871B6F
:1042A000646B54E66BCAEB8535AEB2C22DE9F04FB4
:1042B00091B005920293134602F004020092C3F3F8
:1042C000C20310F00302019240F02A8280468A461F
:1042D0000133041D00284ED0B8F1000F05D0A4EB27
:1042E00008020432524500F21E82029A551E019ABB
:1042F00004920692039200264FF0FF3B0427B94632
:10430000B8F1000F01D0029A22605A1E0792002BCA
:1043100040F35C81059B13F0020228D00120A4EB3E
:1043200008018B081AB1B1F5007F80F00282039971
:104330000F2900F20182B8F1000F00F05F81DBB2BB
:1043400001F140026A4402F8103C02F820BC002847
:1043500000F0508163F07F0301F140026A4402F8EB
:10436000103C049B01330493039B013303930434F7
:10437000002140463DE001F0070A5444CAF1080A12
:10438000AAE7002634E0002632E0002630E00827C5
:10439000B9462DE0252B2BD10BF1010B012604276B
:1043A000B94625E0472BEED82A2B14D32A3BDBB2A3
:1043B0004FF0010C0CFA03F34FF6DA7C13EA0C0F02
:1043C00016D113F0625F40F0C18013F0010F40F08E
:1043D0008D8000260CE0252B03D10BF1FF3B00263E
:1043E00006E001D9002603E0202B01D0232BCCD1FD
:1043F00015466A1C6B78002B00F01981002EC9D07D
:104400007A2BBED84C2BCDD34C3B2E2B62D80FF23F
:10441000080C5CF823F000BFF1430000D544000015
:10442000D5440000D5440000D5440000D544000028
:10443000D5440000D5440000D5440000D544000018
:10444000D5440000D5440000E5440000D5440000F8
:10445000D5440000D5440000D5440000D5440000F8
:10446000D5440000D5440000D54400004D4500006F
:10447000D5440000E5440000E54400004D4500003F
:104480004D4500004D450000F1430000E5440000AB
:104490008F430000D5440000F1430000D5440000E4
:1044A000A9450000E5440000A9450000D5440000EE
:1044B000D5440000B1450000DF440000E5440000A1
:1044C000D5440000D5440000E5440000D544000078
:1044D000D944000000268BE70427B94688E7042763
:1044E000B94685E72B786C2B24D000263C44013C50
:1044F000B4FBF7F407FB04F420B1231A4B445345F3
:1045000000F21481002958D1B9F1040F00F087801E
:10451000B9F1080F40F013811A9B073323F007030A
:1045200003F108051A9593ED007B08B184ED007B3B
:1045300008345DE712F8023C6C2B03D000260427F8
:10454000B946D3E700260827B946CFE72B784C2B8E
:104550001AD01A9B073323F0070303F108061A96B3
:10456000D3E90067073424F0070440B1231A083365
:10457000534513D82B784C2B13D0C4E9006708346B
:1045800000260827B94633E71A9B073323F00703B1
:1045900003F108061A96D3E90067E3E76FF01B0002
:1045A000BBE0C4E90067EAE700260427B9469DE7B7
:1045B000314600260427B94698E780461A9B191D04
:1045C0001A911B680293079B154699E6624B029A63
:1045D0009A4204D3614B9A420AD3002300E000239D
:1045E000002B7FF497AE059B03F00202002096E6B5
:1045F0000123F5E7069B01330693B5E610B10AF1F6
:10460000010AB1E6009B13B10AF1020AACE6029876
:10461000FEF7CEFE0AEB000303F1020AA4E61A9BA2
:104620001D1D1A951B6800B123600434E0E6804626
:10463000231AB3F5806F80F0858090B1002202606C
:104640009B080370009B83B1069BC370049B88F892
:1046500002301BBB019DDDF80C90DDF810B0029F0D
:104660003DE05344A3F1080057E0069B4370EDE79B
:1046700001339842EED903F140026A4412F8101C4B
:1046800012F9102C002AF3DA01F07F01A4EB0802E2
:104690000132524559D804F8011BE9E7019B039800
:1046A000E7E7009B43B305F140036B4413F8203C5C
:1046B00004F8013B019EA4EB080333440133534546
:1046C00046D805F140036B4413F8103C04F8013B55
:1046D0003246394620465FF0E3FC34440135A945B3
:1046E00019D9BBF1000FDCD005F140036B4413F97D
:1046F000103C002BD5DAF1E705F140036B4413F8C9
:10470000103C58F82370002248F823203846FEF762
:104710004FFE461CCFE7A4EB080011B0BDE8F08FB8
:104720006FF00D00F9E76FF01B00F6E76FF01B006C
:10473000F3E76FF01500F0E76FF01500EDE76FF0AD
:104740001500EAE76FF01500E7E76FF01B00E4E7FC
:104750006FF01B00E1E700BF7045060090CD06003A
:1047600000B584460023EFF3118E402282F31288B5
:10477000BFF36F8F08E0064B0FCB8CE80F008EF372
:104780001188BFF36F8F0123002BF4D05DF804FB79
:104790008817002030B585B005460C4637F083FAFF
:1047A00008B3012D18D149F0BBFE224637F085FA37
:1047B0006846FFF7D5FF6946204637F09AFA80F041
:1047C000010010F0FF0F02D1002005B030BD074BF3
:1047D0000FCB84E80F00F7E749F0A2FE224637F03E
:1047E0006CFA0020F1E76FF01500EEE7904C060040
:1047F00001282BD110B584B00C468A68164B9A421A
:1048000027D849F08DFE6A4637F057FA684637F0E8
:10481000A9FA2146684637F06CFA0023EFF3118CB1
:10482000402282F31288BFF36F8F0AE00B4C04AB77
:1048300013E90F0084E80F008CF31188BFF36F8F2A
:104840000123002BF2D0002004B010BD6FF0150042
:1048500070476FF01500F7E7FFC99A3B88170020F3
:10486000014B1860704700BF6C01002080B5054601
:104870000E461746984618F029FF03465FF06EFE75
:104880000446DFF8189049F8003042463946304671
:10489000A84754F8090005F053FB00BF08000000CA
:1048A00008B50446EFF31183402383F31288BFF366
:1048B0006F8FEFF3108372B60DF036F920463BF0A0
:1048C000C4FE034837F069FA3BF0D8FBFCE700BFB1
:1048D000B853060070B59646022A8CBF002201220A
:1048E000801A61F10001002978DBCC1704F0210562
:1048F000C0F3130C020D42EA0132C2F313029444D6
:10490000C1F3132294440CEB117CAC44554AA2FB36
:104910000C52D20802EB820202EB8202ACEB020CD8
:1049200024F01704A444B0EB0C0261EBEC714E4C84
:104930004E4D02FB05F504FB0155A2FB0421294461
:104940008C460029C0F28780120942EA0C714FEAB6
:104950002C1C474A02FB0100BEF1020F7FD96FF009
:104960000202724402EBC20202EB02120232414C1A
:10497000A4FB024203EB9202830840F26D1404FB95
:104980000033384CA4FB0040A3EB501083184FEACF
:10499000CC0040EA5170CA0052184CEB00000001F4
:1049A00040EA1270120152184CEB0000000140EA7C
:1049B00012701201521A60EB0C00810141EA9261FF
:1049C0004FEA821CBCEB020261EB0001D01841F1FE
:1049D0000001294BC01861F1000170BD6FF4C7726E
:1049E000821861F10001CD1705F0210CC2F3130408
:1049F000160D46EA0136C6F313063444C1F31326F6
:104A0000344404EB11746444164EA6FB046C4FEA64
:104A1000DC0C0CEB8C0C0CEB8C0CA4EB0C0425F0DC
:104A200017052C44121B61EBE4710F4C0F4D02FB78
:104A300005F504FB0151A2FB04240C44A446002C00
:104A400005DB120942EA0C714FEA2C1C81E70F3298
:104A500044F1000CF5E70F3241F1000C74E7092234
:104A60007FE700BF1F85EB51295C8FC2F5285C8F63
:104A700070FEFFFFCDCCCCCC9405F5FF10B537F020
:104A8000BBF902460B465FF069FD03490024445020
:104A90001046194610BD00BF0C00000030B48368FA
:104AA0002E4A93422FDD2E4981FB0321DA17C2EBF8
:104AB0002172002B33DB29498B4213DD04684168E6
:104AC000012C71F100050DDBE443C1F1FF4101F55B
:104AD000FF0101F5FF417F314FEAE27C94426446D9
:104AE000A14139DB1D498B4225DD0168446851181D
:104AF00044EBE274016044601A4901FB02338360B5
:104B0000012030BC7047002B01DB0022D1E7134AA3
:104B1000D21A520A1449A1FB0212D209C9E7056848
:104B200041680029C7DA01F10041D4179542A1413B
:104B3000C1DA0020E5E7002B01DB0120E1E7016895
:104B40004468891A64EBE27401604460074901FB20
:104B5000023383600120D4E70020D2E7FFC99A3BEB
:104B6000A12FB844003665C4834B040000CA9A3BA9
:104B700008B500F0D7F8012202604260002383608C
:104B8000C36003610649416106490A6006490A603B
:104B9000064A1360064A1360064A136008BD00BF48
:104BA0005C5B06008C010020880100205CA80020CE
:104BB00058A8002054A800202DE9F04106460F46D1
:104BC000154600F0AFF80446C3681BB943691A786C
:104BD000002A54D10023E360616857F821306361F3
:104BE000B14231DA5A1C62611A782D2A2CD19A1CF2
:104BF00062615A78A2602D2A2ED04AB9394B63617E
:104C00002D2128465FF09AFA002832D02D23A36088
:104C1000D4F80880414628465FF090FAB8F13A0F80
:104C200032D0002830D043783A2B38D0002323618B
:104C300063691B7813B9636801336360204600F031
:104C400053F8A068BDE8F081264B6361204600F070
:104C50004BF84FF0FF30F5E79B78002BCDD10131B9
:104C60006160204B6361204600F03EF84FF0FF305A
:104C7000E8E7204600F038F84FF0FF30E2E75A1C32
:104C800042611B788360C3E763691B7813B963686B
:104C900001336360204600F027F83F20D2E76369C4
:104CA0001A7832B123610F4B63616368013363602B
:104CB000C4E7636801336360B34203DA57F8233013
:104CC0002361F0E7074B63612B783A2B04D0204631
:104CD00000F00AF83F20B5E7204600F005F83A203A
:104CE000B0E700BF5C5B060008B50168084A1160C8
:104CF0004168084A11608168074A1160C168074A23
:104D000011600269064B1A6005F0FCFF08BD00BF88
:104D10008C010020880100205CA8002058A80020F9
:104D200054A8002000487047700100202DE9F0438E
:104D300083B0044608461546A38B13F0080F05D12F
:104D400003F0070600230093019354E0012909D0E2
:104D500043F02003A38385F31188BFF36F8F03B063
:104D6000BDE8F08343F01003A383F4E7204637F057
:104D7000C2F842E0D4F818904A466946204637F017
:104D8000D3F84FF00008A38B03F00707B74269D0B0
:104D9000A268002A66D0012243F00803A38385F3AA
:104DA0001188BFF36F8F002A64D1009B2BB14B4653
:104DB0003A466946204637F030F9B8F1000F02D084
:104DC00034492046C047EFF31185402383F312880E
:104DD000BFF36F8FA38B23F00803A383A38B13F080
:104DE000100F4DD023F01003A3830120A68B06F0F3
:104DF00007060028AFD00228B8D00028ABD0013871
:104E000004282BD801A353F820F000BF754D0000F3
:104E10005D4E0000214E0000354E0000494E00005E
:104E20002369D3F800800621204637F03AF84FF086
:104E30000009A8E72369D3F804800421204637F04D
:104E400030F84FF000099EE72369D3F80880052168
:104E5000204637F026F84FF0000994E74FF000089D
:104E6000C14690E7009A0AB1002295E7B8F1000F19
:104E700092D1B3E74A463946204637F01AF894E70C
:104E800013F0200F04D023F02003A3830220ADE70A
:104E90000020ABE749C00300F0B585B01D46C36BE9
:104EA0001B7913F0010F03D00026304605B0F0BD8A
:104EB00004460768836905FB03772946FEF7D0FBA4
:104EC000A2693946A06B37F052FA06460028ECD1A9
:104ED000E36B5B79A2690192009300222B46204686
:104EE00037F0FFFA0028E0D00A4B1B6813F0070FD9
:104EF00002D16FF00506D8E70397074B0293002015
:104F00000190009003460122024937F0A9FA6FF0A0
:104F10000506CAE7B0100020F05306002DE9F0475F
:104F20009CB0044600220023CDE90A23CDE90823E2
:104F3000C36B1F7907F0010700F124094FF0FF321E
:104F40004FF0FF33484617F049FA4FF00008464645
:104F500045462BE0A64B1B6813F0070F02D16FF0FC
:104F60007A0ADFE1A34B02930020019000900346F0
:104F700001229F4937F074FAF1E70AA9204637F079
:104F800028FA10AB01930CAB0093DDE90A2320460D
:104F900037F076FBB0F1000AC0F216819DF831308F
:104FA00084F82030BAF1000F33D00135E3699D4217
:104FB0002FD2A269236C5B00D21A65F100030A921A
:104FC0000B9310A901910CA90091204637F02CFAFF
:104FD0008246002840F0F8809DF8313084F8203077
:104FE0000F9B03F47023B3F5803FDED210AA0CA907
:104FF000204637F02DFB0028D7D001360F9B03F455
:105000007F41B1F5844FB8D1DBB2012BA2D18046EC
:10501000B3E7E369B34213D09D4217D008AA0AA9A7
:10502000204637F08FFB8246002840F0D180DDE932
:105030000A23C4E90223DDE90823C4E9042392E03A
:10504000B8F1000FE8D16FF0850AC1E0226C0A9B2D
:105050009A1A14AB00930B9B63F10003204637F0C0
:10506000ADF98246002840F0B38014A9204637F0FD
:1050700063FB40B310AB01930CAB0093DDE90A2353
:10508000204637F0D1F98246002840F0A1800F9BDE
:1050900003F47023B3F5803F25D20CA9204637F0E6
:1050A0006AFA00B30F9B03F47F42B2F5844F2AD112
:1050B000DBB2012B27D04E4B1B6813F0070F07D133
:1050C0006FF07A0A84E00AA9204637F082F9D1E726
:1050D000484B02930020019000900346012244496E
:1050E00037F0BEF9ECE7DDE90A232046FFF7D4FEEE
:1050F000824600286CD1DDE90A23204637F0A7FC60
:105100008246002864D104F120030093DDE90A23DC
:10511000204637F047FA824610F1020F03D00028EC
:105120003FF47CAF54E0002384F8203076E701336D
:105130000F2B08D803F170026A4412F8101CE26BBE
:1051400052799142F3D0102B23D0A368E2682069F2
:1051500061698A4208BF834243D0216C5B1A62F1C5
:105160000002A360E260A268E3682069616982428C
:1051700073EB01010DD318A90091204637F01EF9F9
:10518000824608BB5FB318A9204637F0D5FA00283D
:10519000DBD1E168A369226C52009B1A61F1000126
:1051A0000A930B910AA9204637F013F910AB01932B
:1051B0000CAB0093DDE90A23204637F061FA0028A2
:1051C000C0F2C280012817D0BAF1000F00F0A6800B
:1051D000484617F083F950461CB0BDE8F08700231D
:1051E000A6E7BDF862100029B7D06FF01C0AEFE700
:1051F000B0100020245406009DF8313084F820308F
:10520000A368E268216C5B1842F100020A930B92DA
:105210000A9A0B9BA169206CA1EB40018A4216D22D
:1052200004A90091204637F0C9F882460028CBD166
:1052300004A9204637F0D9FA034648B9226C0A9BE4
:105240009B180B9A42F100020A930B92E0E70023AD
:105250003BB33E4B1B6803F00703022B16D8E368F1
:1052600000220A920B930AA9204637F0B2F8DDE932
:105270000A232046FFF710FEB0F1000AA8DBDDE9A3
:105280000A23204637F0E3FB82469DE7304B02932A
:10529000002001900090034603222C4937F0E0F8EB
:1052A000DDE72A4B1B6803F00703022B1BD8D4E968
:1052B00002232046FFF7F0FD8246002888D1D4E97A
:1052C0000223204637F0C3FB8246002880D1E568E0
:1052D0000023A360A069226C02EB4202801AA06046
:1052E0002361656112E01B4B029300200190009046
:1052F00003460322154937F0B3F8D8E703F1090252
:1053000004EBC20144F832004D600133B3F5007F75
:10531000F4D3204637F0A2FC824655E7204637F00A
:10532000BEFA8246BAF1000F7FF452AFA168A269BB
:10533000236C03EB4303D21A91427FF449AF20461A
:1053400037F0CCFB824643E7824641E7B0100020AD
:10535000445406005C54060030B58DB0002845D09A
:105360000446243048F075FBA06B8368DB689847DF
:10537000E06300284CD00368012B5BD903F10F02D6
:105380005B42134023640368013B1F2B54D803790D
:1053900013F0010F63D0A269236C03EB83039A42DD
:1053A000C0F09280E369012B40F2A2802046FFF713
:1053B000B5FD0546B8B9012384F821306E4B1B6852
:1053C00003F00703022B00F2A6806B4B1B6803F06F
:1053D0000703022B00F2AD80674B1B6803F0070345
:1053E000022B00F2B78028460DB030BD624B1B681F
:1053F00013F0070F02D16FF01505F4E75F4B02932E
:1054000001900090034601225B4937F029F8F2E74A
:10541000594B1B6813F0070F02D16FF01505E2E737
:10542000574B02930190009003460122524937F0F6
:1054300017F8F2E71023A5E74F4B1B6813F0070F8F
:1054400002D16FF01505CEE74E4B0293002001907C
:10545000009003460122484937F002F8F1E7A06BBB
:10546000216809AA40F00FFA80B9A36933B10A9AFA
:10547000B3FBF2F102FB1133002B8CD03E4B1B68C7
:1054800013F0070F15D16FF01505ACE73A4B1B6809
:1054900013F0070F02D16FF01505A4E73A4B029302
:1054A00000200190009003460122334936F0D8FFD6
:1054B000F1E7364B02930020019000900346012251
:1054C0002D4936F0CDFFDEE72B4A126812F0070FA8
:1054D00002D16FF0150586E703932D4B0293002050
:1054E0000190009003460122234936F0B9FFF0E70E
:1054F000214B1B6813F0070F02D16FF0150572E7FF
:10550000244B0293002001900090034601221A4987
:1055100036F0A6FFF1E7A3690493E36903931E4BFA
:1055200002930190009003460322134936F098FF3E
:105530004BE7A268E3680020069207900493059069
:10554000164B029301900090034603220A4936F05D
:1055500087FF41E722696369002006920790049360
:1055600005900F4B029301900090034603220249DD
:1055700036F076FF37E700BFB010002084540600F5
:10558000A4540600C8540600E8540600005506005E
:105590001455060040550600845506009C5506002B
:1055A000B45506002DE9F04F85B078B38946904692
:1055B0001F46044690F82130002B39D0C36B1B687E
:1055C000012B48D9FE18013E5B421E40A369226CA4
:1055D00002EB82015B1ABB42C0F09680B7F5803FB8
:1055E00080F095801FB1B8F1000F00F0938016B1E4
:1055F000082F32D9164404F1240A4FF0FF324FF03D
:10560000FF33504616F0EAFE002534E0434B1B689A
:1056100013F0070F02D16FF0150B71E0404B0293AE
:1056200001900090034601223C4936F019FFF2E751
:105630003A4B1B6813F0070F02D16FF00C0B5FE0C1
:10564000384B029300200190009003460122334919
:1056500036F006FFF1E73E46B8E71646CBE72046B0
:1056600037F057FA834620BB204637F0F7FA8346D7
:1056700000282FD10135E369AB423CD0A368E16833
:10568000002BECD020696269301842F1000283429D
:105690009141E4D3226C934201D1002FDFD13B46EC
:1056A00042464946204637F0B4FB834628BBBB46FA
:1056B00023E01A4B1B6813F0070F1ED003901A4B00
:1056C000029300200190009003460122134936F016
:1056D000C7FE12E0114B1B6813F0070F0DD00390AB
:1056E000124B0293002001900090034601220B49C7
:1056F00036F0B6FE01E06FF01B0B504616F0EEFEE2
:10570000584605B0BDE8F08F6FF0150BF8E76FF065
:10571000150BF5E76FF0150BF2E700BFB010002096
:105720008454060090540600CC550600F855060037
:105730002DE9F04F8BB092469B46DDF85080002259
:105740000023CDE90823002837D00F46054690F8FE
:105750002130002B43D0084636F012FE093005EB0D
:10576000C00355F830205B68B3F1FF3F08BFB2F1CA
:10577000FF3F75D00026B1463446464542D80892D0
:10578000099308A9039104A90291D5E90201CDE981
:1057900000013946284637F03CF8041E4ADB002C4D
:1057A00030D00136DDF8249008A9284636F07FFF76
:1057B000002858D1089A099BDFE7324B1B6813F089
:1057C000070F02D16FF0150434E02F4B02930190C4
:1057D0000090034601222B4936F042FEF2E7294BA6
:1057E0001B6813F0070F02D16FF00C0422E0274B67
:1057F000029300200190009003460122214936F0D7
:105800002FFEF1E78CB3059BBB4231D1BDF81230BE
:105810008BB3464532D3082B10D8BAF1000F07D00E
:105820005B4528BF5B461A4606A950465EF038FC29
:10583000BDF8124020460BB0BDE8F08F069ABAF1D1
:10584000000FF5D05B4528BF5B460193CDF800A063
:105850004B46284636F0A5FD04460028E8D0E9E787
:105860006FF00104E6E70446E4E76FF00104E1E7C6
:105870006FF00104DEE76FF00104DBE76FF0010475
:10588000D8E700BFB01000208454060090540600F2
:105890002DE9F041074605460AE007EA0807144BE0
:1058A00003EB06135B6804221968204637F0FAFB05
:1058B000D5B195FAA5F6B6FA86F60D4C04EB0614AA
:1058C0000123B3406FEA030825EA0305237B002B7D
:1058D000EED03301064AD3581B69002BDDD0204699
:1058E00098470028E4D1D8E73846BDE8F08100BFEA
:1058F000A04A06002DE9F04180460F461D4BD3E833
:10590000EF5F6A1CC3E8E12F0029F8D16DBB1A4C88
:10591000002607E0636804221968204637F0C2FBBE
:1059200001361034154B9C4211D2237B002BF7D04B
:10593000204637F0BBFA23681B69002BEAD02046CB
:1059400098470028E6D00123B3401D43E8E7B8F1AB
:10595000000F0BD055B12846FFF79AFF0546002FE0
:10596000F8D00A2037F0B2FAF4E700252846BDE85F
:10597000F08100BF6CA80020A04A0600B04A0600D3
:1059800038B505460B4C00E010340B4B9C420FD24F
:1059900063685B79002BF7D02946204637F0CBFAB5
:1059A0000028F1D023681B68294620469847EBE77A
:1059B00038BD00BFA04A0600B04A060048B108B58D
:1059C000054A1060054B1960084600F01DFB0020D9
:1059D00008BD6FF0150070479001002060A80020FE
:1059E00008B500230C4A13700C4A13600C4A13606C
:1059F0000C490D48FFF7E2FF00F09AF80B4A06E069
:105A00000A4BD31A1B11013351680B711032084B2A
:105A10009A42F5D308BD00BFCC13012064A8002032
:105A200068A8002040420F00C5CE0300A04A06002F
:105A3000B04A06000D4B1B7803B1704710B500212A
:105A40000120FFF757FF0A4C00E01034094B9C423D
:105A500008D263685B79002BF7D023689B682046E7
:105A60009847F2E7014B01221A7010BDCC130120B8
:105A7000A04A0600B04A0600014B01221A70704786
:105A8000CB130120094BD3E8EF1F0131C3E8E21F1C
:105A9000002AF8D100B97047054BD3E8EF1F013950
:105AA000C3E8E21F002AF6D0F7E700BF64A8002091
:105AB00068A8002010B50446044B1B689847A060F6
:105AC0002146034837F059FA10BD00BF900100206D
:105AD00034100020014800EB810070477C1000204A
:105AE0000248034BC01AC008704700BFA04A060016
:105AF0007849060010B50C46FFF7F2FFA04203D923
:105B0000024B53F8340010BD0020FCE77849060032
:105B100010B50C46FFF7E4FFA04204D9034B03EB9A
:105B2000C403187910BD0020FCE700BF78490600C7
:105B300010B500240EE021460020FFF7E9FF094AD6
:105B400052F8243023F0070300F00700184342F80E
:105B500024000134044B054A9B1AB4EBD30FEAD35B
:105B600010BD00BF7C100020A04A06007849060046
:105B70002DE9F8430D4616469846002812DBC4B2BC
:105B80000023204637F03FFA074610B1404500D9C0
:105B900047463B463246E9B2204637F016FA3846C9
:105BA000BDE8F8830C4B0D4AA3EB02094FEA191923
:105BB000002427460DE0094B03EB041358684346C5
:105BC000324629460079FFF7D3FF874238BF0746A0
:105BD00001344C45EFD3E2E7B04A0600A04A060084
:105BE0002DE9F04F87B004AF81460D4690461E4622
:105BF000D7F830B0D7F838A0BAF1000F1ED0FB6B41
:105C00007B60009353467A6B10210020FEF74EFB19
:105C1000B0F5006F13D3224B1B6813F0060F3AD078
:105C200040F2FF7303931F4B0293002001900090FA
:105C3000034602221A4937F074FA2CE0002001468C
:105C400000EB0B03173300246FF300046FF34104E0
:105C50006FF3820469F3C50468F3881460F3532476
:105C60006BF31F5423F00703ADEB030D0DF1100888
:105C70006B4613F1200008D0BAF1000F05D0FB6B82
:105C8000009353467A6BFEF711FB334622462946B2
:105C9000404637F02FFA0C37BD46BDE8F08F00BF05
:105CA000C81000203C560600406820B1034BC01AC3
